{
  "transactions": [
    {
      "hash": "0xb6bb6363de23340f63ebc384614cbd3c02dde8dd5b90e3a0bfda9866b277b23c",
      "transactionType": "CALL",
      "contractName": null,
      "contractAddress": "0xac631556d3d4019c95769033b5e719dd77124bac",
      "function": "modifyLiquidities(bytes,uint256)",
      "arguments": [
        "0x0000000000000000000000000000000000000000000000000000000000000040000000000000000000000000000000000000000000000000000000000000008000000000000000000000000000000000000000000000000000000000000000030212120000000000000000000000000000000000000000000000000000000000000000000000000000000000000000000000000000000000000000000000000300000000000000000000000000000000000000000000000000000000000000600000000000000000000000000000000000000000000000000000000000000220000000000000000000000000000000000000000000000000000000000000026000000000000000000000000000000000000000000000000000000000000001a0000000000000000000000000980b62da83eff3d4576c647993b0c1d7faf17c73000000000000000000000000b893e3334d4bd6c5ba8277fd559e99ed683a9fc70000000000000000000000000000000000000000000000000000000000000bb8000000000000000000000000000000000000000000000000000000000000003c00000000000000000000000051ed077265dc54b2afdbf26181b48f7314b44a40fffffffffffffffffffffffffffffffffffffffffffffffffffffffffffcee24fffffffffffffffffffffffffffffffffffffffffffffffffffffffffffd0918000000000000000000000000000000000000000000000000000002ba7def3000000000000000000000000000000000000000000000000000002386f26fc100000000000000000000000000000000000000000000000000000000000001c9c380000000000000000000000000564323ae0d8473103f3763814c5121ca9e48004b000000000000000000000000000000000000000000000000000000000000018000000000000000000000000000000000000000000000000000000000000000000000000000000000000000000000000000000000000000000000000000000020000000000000000000000000980b62da83eff3d4576c647993b0c1d7faf17c730000000000000000000000000000000000000000000000000000000000000020000000000000000000000000b893e3334d4bd6c5ba8277fd559e99ed683a9fc7",
        "1771742526"
      ],
      "transaction": {
        "from": "0x564323ae0d8473103f3763814c5121ca9e48004b",
        "to": "0xac631556d3d4019c95769033b5e719dd77124bac",
        "gas": "0x53005",
        "value": "0x0",
        "input": "0xdd46508f000000000000000000000000000000000000000000000000000000000000004000000000000000000000000000000000000000000000000000000000699aa53e00000000000000000000000000000000000000000000000000000000000003400000000000000000000000000000000000000000000000000000000000000040000000000000000000000000000000000000000000000000000000000000008000000000000000000000000000000000000000000000000000000000000000030212120000000000000000000000000000000000000000000000000000000000000000000000000000000000000000000000000000000000000000000000000300000000000000000000000000000000000000000000000000000000000000600000000000000000000000000000000000000000000000000000000000000220000000000000000000000000000000000000000000000000000000000000026000000000000000000000000000000000000000000000000000000000000001a0000000000000000000000000980b62da83eff3d4576c647993b0c1d7faf17c73000000000000000000000000b893e3334d4bd6c5ba8277fd559e99ed683a9fc70000000000000000000000000000000000000000000000000000000000000bb8000000000000000000000000000000000000000000000000000000000000003c00000000000000000000000051ed077265dc54b2afdbf26181b48f7314b44a40fffffffffffffffffffffffffffffffffffffffffffffffffffffffffffcee24fffffffffffffffffffffffffffffffffffffffffffffffffffffffffffd0918000000000000000000000000000000000000000000000000000002ba7def3000000000000000000000000000000000000000000000000000002386f26fc100000000000000000000000000000000000000000000000000000000000001c9c380000000000000000000000000564323ae0d8473103f3763814c5121ca9e48004b000000000000000000000000000000000000000000000000000000000000018000000000000000000000000000000000000000000000000000000000000000000000000000000000000000000000000000000000000000000000000000000020000000000000000000000000980b62da83eff3d4576c647993b0c1d7faf17c730000000000000000000000000000000000000000000000000000000000000020000000000000000000000000b893e3334d4bd6c5ba8277fd559e99ed683a9fc7",
        "nonce": "0x75",
        "chainId": "0x66eee"
      },
      "additionalContracts": [],
      "isFixedGasLimit": false
    },
    {
      "hash": "0x36c37656d7528df8818ed9882d6a5a21a8c3069be06455640e62225d99494ed1",
      "transactionType": "CALL",
      "contractName": null,
      "contractAddress": "0xac631556d3d4019c95769033b5e719dd77124bac",
      "function": "setApprovalForAll(address,bool)",
      "arguments": [
        "0x1e73A6b71308b41d683FD77bBA43BD3C0bF20ee8",
        "true"
      ],
      "transaction": {
        "from": "0x564323ae0d8473103f3763814c5121ca9e48004b",
        "to": "0xac631556d3d4019c95769033b5e719dd77124bac",
        "gas": "0x8b08",
        "value": "0x0",
        "input": "0xa22cb4650000000000000000000000001e73a6b71308b41d683fd77bba43bd3c0bf20ee80000000000000000000000000000000000000000000000000000000000000001",
        "nonce": "0x76",
        "chainId": "0x66eee"
      },
      "additionalContracts": [],
      "isFixedGasLimit": false
    },
    {
      "hash": null,
      "transactionType": "CALL",
      "contractName": null,
      "contractAddress": "0xba7559e1e00ec894decfaf2d0273fdd77a1f0540",
      "function": "createBattle(uint8,uint256,uint256,uint8)",
      "arguments": [
        "0",
        "234",
        "300",
        "0"
      ],
      "transaction": {
        "from": "0x564323ae0d8473103f3763814c5121ca9e48004b",
        "to": "0xba7559e1e00ec894decfaf2d0273fdd77a1f0540",
        "gas": "0x8d252",
        "value": "0x0",
        "input": "0xb0a26f1e000000000000000000000000000000000000000000000000000000000000000000000000000000000000000000000000000000000000000000000000000000ea000000000000000000000000000000000000000000000000000000000000012c0000000000000000000000000000000000000000000000000000000000000000",
        "nonce": "0x77",
        "chainId": "0x66eee"
      },
      "additionalContracts": [],
      "isFixedGasLimit": false
    }
  ],
  "receipts": [
    {
      "status": "0x1",
      "cumulativeGasUsed": "0x646b4",
      "logs": [
        {
          "address": "0xac631556d3d4019c95769033b5e719dd77124bac",
          "topics": [
            "0xddf252ad1be2c89b69c2b068fc378daa952ba7f163c4a11628f55a4df523b3ef",
            "0x0000000000000000000000000000000000000000000000000000000000000000",
            "0x000000000000000000000000564323ae0d8473103f3763814c5121ca9e48004b",
            "0x00000000000000000000000000000000000000000000000000000000000000eb"
          ],
          "data": "0x",
          "blockHash": "0xf7a9efc6cb0d6fb2fa7433da2656355c5e281d943aa618172886827f6e08c629",
          "blockNumber": "0xe9256fd",
          "blockTimestamp": "0x699aa446",
          "transactionHash": "0xb6bb6363de23340f63ebc384614cbd3c02dde8dd5b90e3a0bfda9866b277b23c",
          "transactionIndex": "0x2",
          "logIndex": "0x4",
          "removed": false
        },
        {
          "address": "0xfb3e0c6f74eb1a21cc1da29aec80d2dfe6c9a317",
          "topics": [
            "0xf208f4912782fd25c7f114ca3723a2d5dd6f3bcc3ac8db5af63baa85f711d5ec",
            "0x08f0aa16861abbc231031678ba2326eaf4c0b74b8f1fced53940c99dcb5a1ba2",
            "0x000000000000000000000000ac631556d3d4019c95769033b5e719dd77124bac"
          ],
          "data": "0xfffffffffffffffffffffffffffffffffffffffffffffffffffffffffffcee24fffffffffffffffffffffffffffffffffffffffffffffffffffffffffffd0918000000000000000000000000000000000000000000000000000002ba7def300000000000000000000000000000000000000000000000000000000000000000eb",
          "blockHash": "0xf7a9efc6cb0d6fb2fa7433da2656355c5e281d943aa618172886827f6e08c629",
          "blockNumber": "0xe9256fd",
          "blockTimestamp": "0x699aa446",
          "transactionHash": "0xb6bb6363de23340f63ebc384614cbd3c02dde8dd5b90e3a0bfda9866b277b23c",
          "transactionIndex": "0x2",
          "logIndex": "0x5",
          "removed": false
        },
        {
          "address": "0x980b62da83eff3d4576c647993b0c1d7faf17c73",
          "topics": [
            "0xddf252ad1be2c89b69c2b068fc378daa952ba7f163c4a11628f55a4df523b3ef",
            "0x000000000000000000000000564323ae0d8473103f3763814c5121ca9e48004b",
            "0x000000000000000000000000fb3e0c6f74eb1a21cc1da29aec80d2dfe6c9a317"
          ],
          "data": "0x000000000000000000000000000000000000000000000000001effcf4b5b92a6",
          "blockHash": "0xf7a9efc6cb0d6fb2fa7433da2656355c5e281d943aa618172886827f6e08c629",
          "blockNumber": "0xe9256fd",
          "blockTimestamp": "0x699aa446",
          "transactionHash": "0xb6bb6363de23340f63ebc384614cbd3c02dde8dd5b90e3a0bfda9866b277b23c",
          "transactionIndex": "0x2",
          "logIndex": "0x6",
          "removed": false
        },
        {
          "address": "0x980b62da83eff3d4576c647993b0c1d7faf17c73",
          "topics": [
            "0x8c5be1e5ebec7d5bd14f71427d1e84f3dd0314c0f7b2291e5b200ac8c7c3b925",
            "0x000000000000000000000000564323ae0d8473103f3763814c5121ca9e48004b",
            "0x000000000000000000000000000000000022d473030f116ddee9f6b43ac78ba3"
          ],
          "data": "0xffffffffffffffffffffffffffffffffffffffffffffffffffc200616948dab3",
          "blockHash": "0xf7a9efc6cb0d6fb2fa7433da2656355c5e281d943aa618172886827f6e08c629",
          "blockNumber": "0xe9256fd",
          "blockTimestamp": "0x699aa446",
          "transactionHash": "0xb6bb6363de23340f63ebc384614cbd3c02dde8dd5b90e3a0bfda9866b277b23c",
          "transactionIndex": "0x2",
          "logIndex": "0x7",
          "removed": false
        },
        {
          "address": "0xb893e3334d4bd6c5ba8277fd559e99ed683a9fc7",
          "topics": [
            "0xddf252ad1be2c89b69c2b068fc378daa952ba7f163c4a11628f55a4df523b3ef",
            "0x000000000000000000000000564323ae0d8473103f3763814c5121ca9e48004b",
            "0x000000000000000000000000fb3e0c6f74eb1a21cc1da29aec80d2dfe6c9a317"
          ],
          "data": "0x0000000000000000000000000000000000000000000000000000000001899b5b",
          "blockHash": "0xf7a9efc6cb0d6fb2fa7433da2656355c5e281d943aa618172886827f6e08c629",
          "blockNumber": "0xe9256fd",
          "blockTimestamp": "0x699aa446",
          "transactionHash": "0xb6bb6363de23340f63ebc384614cbd3c02dde8dd5b90e3a0bfda9866b277b23c",
          "transactionIndex": "0x2",
          "logIndex": "0x8",
          "removed": false
        },
        {
          "address": "0xb893e3334d4bd6c5ba8277fd559e99ed683a9fc7",
          "topics": [
            "0x8c5be1e5ebec7d5bd14f71427d1e84f3dd0314c0f7b2291e5b200ac8c7c3b925",
            "0x000000000000000000000000564323ae0d8473103f3763814c5121ca9e48004b",
            "0x000000000000000000000000000000000022d473030f116ddee9f6b43ac78ba3"
          ],
          "data": "0xfffffffffffffffffffffffffffffffffffffffffffffffffffffffffcecc949",
          "blockHash": "0xf7a9efc6cb0d6fb2fa7433da2656355c5e281d943aa618172886827f6e08c629",
          "blockNumber": "0xe9256fd",
          "blockTimestamp": "0x699aa446",
          "transactionHash": "0xb6bb6363de23340f63ebc384614cbd3c02dde8dd5b90e3a0bfda9866b277b23c",
          "transactionIndex": "0x2",
          "logIndex": "0x9",
          "removed": false
        }
      ],
      "logsBloom": "0x000000400000000000000000000000080000000000a0100000000800000000000000000000000000100000000000000000000000800000000000000000200040000000000020000000004008110000000000000000000800000000000000000000000000020400000000000000080800000002000000004000000010000000000000000001000002000080000000000000000000000000000020000000000000020004200000000000000000000000000800000000000000000000000000000002000002000000004000010000000000000000000000000000000000000020000010000400000000400000000000000004000100000000000000000000000004",
      "type": "0x2",
      "transactionHash": "0xb6bb6363de23340f63ebc384614cbd3c02dde8dd5b90e3a0bfda9866b277b23c",
      "transactionIndex": "0x2",
      "blockHash": "0xf7a9efc6cb0d6fb2fa7433da2656355c5e281d943aa618172886827f6e08c629",
      "blockNumber": "0xe9256fd",
      "gasUsed": "0x3e49c",
      "effectiveGasPrice": "0x1312d00",
      "from": "0x564323ae0d8473103f3763814c5121ca9e48004b",
      "to": "0xac631556d3d4019c95769033b5e719dd77124bac",
      "contractAddress": null,
      "gasUsedForL1": "0x0",
      "l1BlockNumber": "0x9d57f4",
      "timeboosted": false
    },
    {
      "status": "0x1",
      "cumulativeGasUsed": "0x6842",
      "logs": [
        {
          "address": "0xac631556d3d4019c95769033b5e719dd77124bac",
          "topics": [
            "0x17307eab39ab6107e8899845ad3d59bd9653f200f220920489ca2b5937696c31",
            "0x000000000000000000000000564323ae0d8473103f3763814c5121ca9e48004b",
            "0x0000000000000000000000001e73a6b71308b41d683fd77bba43bd3c0bf20ee8"
          ],
          "data": "0x0000000000000000000000000000000000000000000000000000000000000001",
          "blockHash": "0x6e1af077b51c7f5e3fcf0c03bd554162586fac32dc5c52e14245c7afe883625f",
          "blockNumber": "0xe925702",
          "blockTimestamp": "0x699aa449",
          "transactionHash": "0x36c37656d7528df8818ed9882d6a5a21a8c3069be06455640e62225d99494ed1",
          "transactionIndex": "0x1",
          "logIndex": "0x0",
          "removed": false
        }
      ],
      "logsBloom": "0x00000000000000000000000000000000000000000000100000000000000000000000000000000000000000000000000000000000000000000000000000000000000000000000000000000000000000000100000000000000000000000000000002000000000000000000000000000000000000000000000000000000000000000000000000000002000000000000000000000000000000000000000000000000000000200000000000000000000000000000000000000000000000000000000002000000000000000000000000000001000000000000000000000000000100000000200800000000400000000000000000000100000000000000000000000000",
      "type": "0x2",
      "transactionHash": "0x36c37656d7528df8818ed9882d6a5a21a8c3069be06455640e62225d99494ed1",
      "transactionIndex": "0x1",
      "blockHash": "0x6e1af077b51c7f5e3fcf0c03bd554162586fac32dc5c52e14245c7afe883625f",
      "blockNumber": "0xe925702",
      "gasUsed": "0x6842",
      "effectiveGasPrice": "0x1313ca0",
      "from": "0x564323ae0d8473103f3763814c5121ca9e48004b",
      "to": "0xac631556d3d4019c95769033b5e719dd77124bac",
      "contractAddress": null,
      "gasUsedForL1": "0x0",
      "l1BlockNumber": "0x9d57f4",
      "timeboosted": false
    }
  ],
  "libraries": [],
  "pending": [],
  "returns": {},
  "timestamp": 1771742283,
  "chain": 421614,
  "commit": "5b7f00d"
}