{
  "transactions": [
    {
      "hash": "0x6847fa0374328e41bfb1d10016f4e41998874041507b3c4f6241f8129d88080a",
      "transactionType": "CALL",
      "contractName": null,
      "contractAddress": "0x980b62da83eff3d4576c647993b0c1d7faf17c73",
      "function": "deposit()",
      "arguments": [],
      "transaction": {
        "from": "0x564323ae0d8473103f3763814c5121ca9e48004b",
        "to": "0x980b62da83eff3d4576c647993b0c1d7faf17c73",
        "gas": "0x12aeb",
        "value": "0x6a94d74f430000",
        "input": "0xd0e30db0",
        "nonce": "0x33",
        "chainId": "0x66eee"
      },
      "additionalContracts": [],
      "isFixedGasLimit": false
    },
    {
      "hash": "0xe779f67e83c10f0faec63edbeceb954dc18961a86420e146d1030236dd00da63",
      "transactionType": "CREATE2",
      "contractName": "BattleVaultHook",
      "contractAddress": "0x51ed077265dc54b2afdbf26181b48f7314b44a40",
      "function": null,
      "arguments": [
        "0xFB3e0C6F74eB1a21CC1Da29aeC80D2Dfe6C9a317",
        "0x478505eb07B3C8943A642E51F066bcF8aC8ed51d"
      ],
      "transaction": {
        "from": "0x564323ae0d8473103f3763814c5121ca9e48004b",
        "to": "0x4e59b44847b379578588920ca78fbf26c0b4956c",
        "gas": "0x1f9625",
        "value": "0x0",
        "input": "0x0000000000000000000000000000000000000000000000000000000000006c2460c0604052346102c457604051601f611e2c38819003918201601f19168301916001600160401b038311848410176102c85780849260409485528339810103126102c4578051906001600160a01b03821682036102c45760200151906001600160a01b03821682036102c4576080525f6101a061007a6102dc565b8281528260208201528260408201528260608201528260808201528260a08201528260c08201528260e0820152826101008201528261012082015282610140820152826101608201528261018082015201525f6101a06100d86102dc565b82815282602082015260016040820152826060820152600160808201528260a08201528260c0820152600160e0820152826101008201528261012082015282610140820152826101608201528261018082015201526120003016158015906102b7575b80156102a6575b8015610299575b8015610288575b801561027b575b801561026f575b801561025f575b8015610253575b8015610247575b801561023b575b801561022f575b8015610223575b8015610217575b6102045760a052604051611b2f90816102fd82396080518181816101e7015281816102df015281816103770152818161095d01528181610a3b01528181610bbf01528181610e7d015281816111970152611286015260a05181818161046301528181610ab101528181610d440152610ef30152f35b630732d7b560e51b5f523060045260245ffd5b5060013016151561018f565b50600230161515610188565b50600430161515610181565b5060083016151561017a565b50601030161515610173565b5060203016151561016c565b5060403016151560011415610165565b5060803016151561015e565b5061010030161515610157565b506102003016151560011415610150565b5061040030161515610149565b506108003016151560011415610142565b506110003016151561013b565b5f80fd5b634e487b7160e01b5f52604160045260245ffd5b604051906101c082016001600160401b038111838210176102c85760405256fe60806040526004361015610011575f80fd5b5f3560e01c80630e7632c11461137657806315fe123b1461132457806321d0ee701461125d578063259982e51461116e5780632e63cc2b146110b557806331c398ca14610fe85780634208ceb114610fb7578063511c8a1414610ecb578063575e24b414610db65780635f105e2d14610d685780636001c0e514610cfa57806369d818a414610c785780636c2bbe7e14610a0f5780636fe7e6eb14610c04578063760f59d014610b7d5780638f766a6d14610a895780639f063efc14610a0f578063b47b2fb1146108ab578063b6a8b0fa146101bc578063c4e833ce14610726578063c56afe18146103f0578063dc3db1b71461039b578063dc4c90d31461032d578063dc98354e1461025d578063e1b4af69146101bc5763f2fa485b14610137575f80fd5b346101b857610145366113b4565b905f52600360205260405f209081548110156101b85760a0915f5260205f209060011b0160ff6001825492015460405192835273ffffffffffffffffffffffffffffffffffffffff8116602084015280841c60020b60408401528060b81c60020b606084015260d01c1615156080820152f35b5f80fd5b346101b8576101ca366116bd565b50505050505073ffffffffffffffffffffffffffffffffffffffff7f0000000000000000000000000000000000000000000000000000000000000000163303610235577f0a85dc29000000000000000000000000000000000000000000000000000000005f5260045ffd5b7fae18210a000000000000000000000000000000000000000000000000000000005f5260045ffd5b346101b85760e07ffffffffffffffffffffffffffffffffffffffffffffffffffffffffffffffffc3601126101b85761029461148c565b5060a07fffffffffffffffffffffffffffffffffffffffffffffffffffffffffffffffdc3601126101b8576102c761169a565b5073ffffffffffffffffffffffffffffffffffffffff7f0000000000000000000000000000000000000000000000000000000000000000163303610235577f0a85dc29000000000000000000000000000000000000000000000000000000005f5260045ffd5b346101b8575f7ffffffffffffffffffffffffffffffffffffffffffffffffffffffffffffffffc3601126101b857602060405173ffffffffffffffffffffffffffffffffffffffff7f0000000000000000000000000000000000000000000000000000000000000000168152f35b346101b85760a06103ba6103ae3661143a565b93919290923690611970565b205f52600260205260405f209060020b5f5260205260405f209060020b5f52602052602060ff60405f2054166040519015158152f35b346101b85760c07ffffffffffffffffffffffffffffffffffffffffffffffffffffffffffffffffc3601126101b85760043560a07fffffffffffffffffffffffffffffffffffffffffffffffffffffffffffffffdc3601126101b85773ffffffffffffffffffffffffffffffffffffffff7f00000000000000000000000000000000000000000000000000000000000000001633036106fe5760a0610494366118a4565b2090805f525f60205260405f2060243573ffffffffffffffffffffffffffffffffffffffff811681036101b8578073ffffffffffffffffffffffffffffffffffffffff9150167fffffffffffffffffffffffff00000000000000000000000000000000000000008254161781556001810160443573ffffffffffffffffffffffffffffffffffffffff811681036101b85781547fffffffffffffffffffffffff00000000000000000000000000000000000000001673ffffffffffffffffffffffffffffffffffffffff90911617815560643562ffffff811681036101b85781546084358060020b81036101b85776ffffff0000000000000000000000000000000000000000817fffffffffffff000000000000ffffffffffffffffffffffffffffffffffffffff925060b81b79ffffff0000000000000000000000000000000000000000000000169360a01b1691161717905560a4359073ffffffffffffffffffffffffffffffffffffffff821682036101b857600273ffffffffffffffffffffffffffffffffffffffff910191167fffffffffffffffffffffffff0000000000000000000000000000000000000000825416179055815f52600160205260405f208054680100000000000000008110156106d157610679916001820181556113e8565b81549060031b907fffffffffffffffffffffffffffffffffffffffffffffffffffffffffffffffff84831b921b19161790557fbb224a93b783f64323be416bbc4897d94807a23556237e6635b1b475a430433f5f80a3005b7f4e487b71000000000000000000000000000000000000000000000000000000005f52604160045260245ffd5b7fac003eae000000000000000000000000000000000000000000000000000000005f5260045ffd5b346101b8575f7ffffffffffffffffffffffffffffffffffffffffffffffffffffffffffffffffc3601126101b8575f6101a06040516107648161175e565b8281528260208201528260408201528260608201528260808201528260a08201528260c08201528260e0820152826101008201528261012082015282610140820152826101608201528261018082015201526101c060206040516107c78161175e565b5f8152818101905f82526040810160018152606082015f8152608083016001815260a084015f815260c085015f815260e0860190600182526101008701925f84526101208801945f86526101408901965f88526101608a01985f8a526101a06101808c019b5f8d52019b5f8d526040519d8e915f835251151591015251151560408d015251151560608c015251151560808b015251151560a08a015251151560c089015251151560e08801525115156101008701525115156101208601525115156101408501525115156101608401525115156101808301525115156101a0820152f35b346101b8576101607ffffffffffffffffffffffffffffffffffffffffffffffffffffffffffffffffc3601126101b8576108e361148c565b5060a07fffffffffffffffffffffffffffffffffffffffffffffffffffffffffffffffdc3601126101b85760607fffffffffffffffffffffffffffffffffffffffffffffffffffffffffffffff3c3601126101b8576101443567ffffffffffffffff81116101b8576109599036906004016114d0565b50507f000000000000000000000000000000000000000000000000000000000000000073ffffffffffffffffffffffffffffffffffffffff81163303610235577f8c9c1f76bc92923e70c249137c912d71245578a8e16badc2424717cb87efdb5360206109d260a06109ca366118a4565b208094611a08565b505090506040519060020b8152a2604080517fb47b2fb10000000000000000000000000000000000000000000000000000000081525f6020820152f35b346101b857610a1d366115c9565b5050505050505073ffffffffffffffffffffffffffffffffffffffff7f0000000000000000000000000000000000000000000000000000000000000000163303610235577f0a85dc29000000000000000000000000000000000000000000000000000000005f5260045ffd5b346101b857610a973661143a565b73ffffffffffffffffffffffffffffffffffffffff9291927f00000000000000000000000000000000000000000000000000000000000000001633036106fe5760a0610b057fb0c9ae6fb6516b32f5987d89a00c58737efc3ba3ed6e89c803ea52ba6d6b2a16933690611970565b2092835f52600260205260405f208160020b5f5260205260405f208260020b5f5260205260405f2060017fffffffffffffffffffffffffffffffffffffffffffffffffffffffffffffff00825416179055610b7860405192839283909291602090604083019460020b835260020b910152565b0390a2005b346101b85760a07ffffffffffffffffffffffffffffffffffffffffffffffffffffffffffffffffc3601126101b8576020610be360a0610bbc366117d8565b207f0000000000000000000000000000000000000000000000000000000000000000611a08565b50505073ffffffffffffffffffffffffffffffffffffffff60405191168152f35b346101b8576101007ffffffffffffffffffffffffffffffffffffffffffffffffffffffffffffffffc3601126101b857610c3c61148c565b5060a07fffffffffffffffffffffffffffffffffffffffffffffffffffffffffffffffdc3601126101b857610c6f61169a565b506102c761142a565b346101b85760607ffffffffffffffffffffffffffffffffffffffffffffffffffffffffffffffffc3601126101b8576024358060020b81036101b857604435908160020b82036101b8576004355f52600260205260405f209060020b5f5260205260405f209060020b5f52602052602060ff60405f2054166040519015158152f35b346101b8575f7ffffffffffffffffffffffffffffffffffffffffffffffffffffffffffffffffc3601126101b857602060405173ffffffffffffffffffffffffffffffffffffffff7f0000000000000000000000000000000000000000000000000000000000000000168152f35b346101b85760a07ffffffffffffffffffffffffffffffffffffffffffffffffffffffffffffffffc3601126101b8576020610da760a0610bbc366117d8565b505090506040519060020b8152f35b346101b8576101407ffffffffffffffffffffffffffffffffffffffffffffffffffffffffffffffffc3601126101b857610dee61148c565b5060a07fffffffffffffffffffffffffffffffffffffffffffffffffffffffffffffffdc3601126101b85760607fffffffffffffffffffffffffffffffffffffffffffffffffffffffffffffff3c3601126101b8576101243567ffffffffffffffff81116101b857610e649036906004016114d0565b505073ffffffffffffffffffffffffffffffffffffffff7f0000000000000000000000000000000000000000000000000000000000000000163303610235577f0a85dc29000000000000000000000000000000000000000000000000000000005f5260045ffd5b346101b857610ed93661143a565b73ffffffffffffffffffffffffffffffffffffffff9291927f00000000000000000000000000000000000000000000000000000000000000001633036106fe5760a0610f477f70e67e25ec2e784b2182da179534a2f6de6940f8f3bebabda81a5069160efa91933690611970565b2092835f52600260205260405f208160020b5f5260205260405f208260020b5f5260205260405f207fffffffffffffffffffffffffffffffffffffffffffffffffffffffffffffff008154169055610b7860405192839283909291602090604083019460020b835260020b910152565b346101b85760207ffffffffffffffffffffffffffffffffffffffffffffffffffffffffffffffffc3601126101b857005b346101b85760a07ffffffffffffffffffffffffffffffffffffffffffffffffffffffffffffffffc3601126101b85760a0611022366117d8565b205f52600160205260405f20604051806020835491828152019081935f5260205f20905f5b81811061109f575050508161105d910382611797565b604051918291602083019060208452518091526040830191905f5b818110611086575050500390f35b8251845285945060209384019390920191600101611078565b8254845260209093019260019283019201611047565b346101b85760207ffffffffffffffffffffffffffffffffffffffffffffffffffffffffffffffffc3601126101b8576004355f525f60205260a060405f2073ffffffffffffffffffffffffffffffffffffffff8154169073ffffffffffffffffffffffffffffffffffffffff60026001830154920154169060405192835273ffffffffffffffffffffffffffffffffffffffff8116602084015262ffffff81851c16604084015260b81c60020b60608301526080820152f35b346101b85761117c366114fe565b5050915073ffffffffffffffffffffffffffffffffffffffff7f0000000000000000000000000000000000000000000000000000000000000000163303610235576111ca60a0913690611970565b205f52600260205260405f206111df826119fa565b60020b5f526020526111f7602060405f2092016119fa565b60020b5f5260205260ff60405f2054166112355760206040517f259982e5000000000000000000000000000000000000000000000000000000008152f35b7f3878a690000000000000000000000000000000000000000000000000000000005f5260045ffd5b346101b85761126b366114fe565b5050915073ffffffffffffffffffffffffffffffffffffffff7f0000000000000000000000000000000000000000000000000000000000000000163303610235576112b960a0913690611970565b205f52600260205260405f206112ce826119fa565b60020b5f526020526112e6602060405f2092016119fa565b60020b5f5260205260ff60405f2054166112355760206040517f21d0ee70000000000000000000000000000000000000000000000000000000008152f35b346101b857602060a0610bbc61134861133c3661143a565b94919390933690611970565b5050905060020b9060020b8112159182611369575b50506040519015158152f35b60020b139050828061135d565b346101b857611384366113b4565b905f52600160205260405f2080548210156101b8576020916113a5916113e8565b90549060031b1c604051908152f35b7ffffffffffffffffffffffffffffffffffffffffffffffffffffffffffffffffc60409101126101b8576004359060243590565b80548210156113fd575f5260205f2001905f90565b7f4e487b71000000000000000000000000000000000000000000000000000000005f52603260045260245ffd5b60e435908160020b82036101b857565b7ffffffffffffffffffffffffffffffffffffffffffffffffffffffffffffffffc0160e081126101b85760a0136101b85760049060a4358060020b81036101b8579060c4358060020b81036101b85790565b6004359073ffffffffffffffffffffffffffffffffffffffff821682036101b857565b359073ffffffffffffffffffffffffffffffffffffffff821682036101b857565b9181601f840112156101b85782359167ffffffffffffffff83116101b857602083818601950101116101b857565b906101607ffffffffffffffffffffffffffffffffffffffffffffffffffffffffffffffffc8301126101b85760043573ffffffffffffffffffffffffffffffffffffffff811681036101b8579160a07fffffffffffffffffffffffffffffffffffffffffffffffffffffffffffffffdc8201126101b85760249160807fffffffffffffffffffffffffffffffffffffffffffffffffffffffffffffff3c8301126101b85760c491610144359067ffffffffffffffff82116101b8576115c5916004016114d0565b9091565b906101a07ffffffffffffffffffffffffffffffffffffffffffffffffffffffffffffffffc8301126101b85760043573ffffffffffffffffffffffffffffffffffffffff811681036101b8579160a07fffffffffffffffffffffffffffffffffffffffffffffffffffffffffffffffdc8201126101b85760249160807fffffffffffffffffffffffffffffffffffffffffffffffffffffffffffffff3c8301126101b85760c49161014435916101643591610184359067ffffffffffffffff82116101b8576115c5916004016114d0565b60c4359073ffffffffffffffffffffffffffffffffffffffff821682036101b857565b6101207ffffffffffffffffffffffffffffffffffffffffffffffffffffffffffffffffc8201126101b85760043573ffffffffffffffffffffffffffffffffffffffff811681036101b8579160a07fffffffffffffffffffffffffffffffffffffffffffffffffffffffffffffffdc8301126101b85760249160c4359160e43591610104359067ffffffffffffffff82116101b8576115c5916004016114d0565b6101c0810190811067ffffffffffffffff8211176106d157604052565b60a0810190811067ffffffffffffffff8211176106d157604052565b90601f7fffffffffffffffffffffffffffffffffffffffffffffffffffffffffffffffe0910116810190811067ffffffffffffffff8211176106d157604052565b7ffffffffffffffffffffffffffffffffffffffffffffffffffffffffffffffffc60a09101126101b8576040519061180f8261177b565b8160043573ffffffffffffffffffffffffffffffffffffffff811681036101b857815260243573ffffffffffffffffffffffffffffffffffffffff811681036101b857602082015260443562ffffff811681036101b85760408201526064358060020b81036101b85760608201526084359073ffffffffffffffffffffffffffffffffffffffff821682036101b85760800152565b7fffffffffffffffffffffffffffffffffffffffffffffffffffffffffffffffdc60a09101126101b857604051906118db8261177b565b8160243573ffffffffffffffffffffffffffffffffffffffff811681036101b857815260443573ffffffffffffffffffffffffffffffffffffffff811681036101b857602082015260643562ffffff811681036101b85760408201526084358060020b81036101b857606082015260a4359073ffffffffffffffffffffffffffffffffffffffff821682036101b85760800152565b91908260a09103126101b8576040516119888161177b565b8092611993816114af565b82526119a1602082016114af565b6020830152604081013562ffffff811681036101b85760408301526060810135908160020b82036101b857608091606084015201359073ffffffffffffffffffffffffffffffffffffffff821682036101b85760800152565b358060020b81036101b85790565b602090602473ffffffffffffffffffffffffffffffffffffffff94936040518481019182526006604082015260408152611a43606082611797565b51902060405195869384927f1e2eaeaf0000000000000000000000000000000000000000000000000000000084526004840152165afa918215611aee575f92611aba575b5073ffffffffffffffffffffffffffffffffffffffff8216918060a01c60020b9162ffffff808360b81c169260d01c1690565b9091506020813d602011611ae6575b81611ad660209383611797565b810103126101b85751905f611a87565b3d9150611ac9565b6040513d5f823e3d90fdfea26469706673582212201317d86b9d99a419e8a414066d6519e762eba34d3328b7a4223bcc1c8a1e433264736f6c634300081a0033000000000000000000000000fb3e0c6f74eb1a21cc1da29aec80d2dfe6c9a317000000000000000000000000478505eb07b3c8943a642e51f066bcf8ac8ed51d",
        "nonce": "0x34",
        "chainId": "0x66eee"
      },
      "additionalContracts": [],
      "isFixedGasLimit": false
    },
    {
      "hash": "0x5eafb5482489d21484523b83a3d9cb612c72d13fb865a2ffcd3e1f00613410df",
      "transactionType": "CALL",
      "contractName": "UniswapV4Adapter",
      "contractAddress": "0x244c49e7986fec5bad7c567d588b9262ef5e0604",
      "function": "setBattleHook(address)",
      "arguments": [
        "0x51ed077265dC54B2AFdBf26181b48f7314B44A40"
      ],
      "transaction": {
        "from": "0x564323ae0d8473103f3763814c5121ca9e48004b",
        "to": "0x244c49e7986fec5bad7c567d588b9262ef5e0604",
        "gas": "0xec7a",
        "value": "0x0",
        "input": "0x88c0f8f200000000000000000000000051ed077265dc54b2afdbf26181b48f7314b44a40",
        "nonce": "0x35",
        "chainId": "0x66eee"
      },
      "additionalContracts": [],
      "isFixedGasLimit": false
    },
    {
      "hash": "0xd06a2fbe2d03a93bf7a9f36aaea256995c184a0204ae26ddb7a8167f20abc6f0",
      "transactionType": "CALL",
      "contractName": null,
      "contractAddress": "0xfb3e0c6f74eb1a21cc1da29aec80d2dfe6c9a317",
      "function": "initialize((address,address,uint24,int24,address),uint160)",
      "arguments": [
        "(0x980B62Da83eFf3D4576C647993b0c1D7faf17c73, 0xb893E3334D4Bd6C5ba8277Fd559e99Ed683A9FC7, 3000, 60, 0x51ed077265dC54B2AFdBf26181b48f7314B44A40)",
        "4073818919513456845602663"
      ],
      "transaction": {
        "from": "0x564323ae0d8473103f3763814c5121ca9e48004b",
        "to": "0xfb3e0c6f74eb1a21cc1da29aec80d2dfe6c9a317",
        "gas": "0x10c88",
        "value": "0x0",
        "input": "0x6276cbbe000000000000000000000000980b62da83eff3d4576c647993b0c1d7faf17c73000000000000000000000000b893e3334d4bd6c5ba8277fd559e99ed683a9fc70000000000000000000000000000000000000000000000000000000000000bb8000000000000000000000000000000000000000000000000000000000000003c00000000000000000000000051ed077265dc54b2afdbf26181b48f7314b44a40000000000000000000000000000000000000000000035eaa2a884fcddea13f67",
        "nonce": "0x36",
        "chainId": "0x66eee"
      },
      "additionalContracts": [],
      "isFixedGasLimit": false
    },
    {
      "hash": "0x16e4d76116c703335e72b62ba548b0bc5bd66e44a19a77d9d878a245b24ca626",
      "transactionType": "CALL",
      "contractName": null,
      "contractAddress": "0x980b62da83eff3d4576c647993b0c1d7faf17c73",
      "function": "approve(address,uint256)",
      "arguments": [
        "0x000000000022D473030F116dDEE9F6B43aC78BA3",
        "115792089237316195423570985008687907853269984665640564039457584007913129639935"
      ],
      "transaction": {
        "from": "0x564323ae0d8473103f3763814c5121ca9e48004b",
        "to": "0x980b62da83eff3d4576c647993b0c1d7faf17c73",
        "gas": "0x11515",
        "value": "0x0",
        "input": "0x095ea7b3000000000000000000000000000000000022d473030f116ddee9f6b43ac78ba3ffffffffffffffffffffffffffffffffffffffffffffffffffffffffffffffff",
        "nonce": "0x37",
        "chainId": "0x66eee"
      },
      "additionalContracts": [],
      "isFixedGasLimit": false
    },
    {
      "hash": "0xc52965d8c05ee20a4ce537de4ada58c1c43275b42a3240ca29e09c425ddee665",
      "transactionType": "CALL",
      "contractName": null,
      "contractAddress": "0xb893e3334d4bd6c5ba8277fd559e99ed683a9fc7",
      "function": "approve(address,uint256)",
      "arguments": [
        "0x000000000022D473030F116dDEE9F6B43aC78BA3",
        "115792089237316195423570985008687907853269984665640564039457584007913129639935"
      ],
      "transaction": {
        "from": "0x564323ae0d8473103f3763814c5121ca9e48004b",
        "to": "0xb893e3334d4bd6c5ba8277fd559e99ed683a9fc7",
        "gas": "0xed8f",
        "value": "0x0",
        "input": "0x095ea7b3000000000000000000000000000000000022d473030f116ddee9f6b43ac78ba3ffffffffffffffffffffffffffffffffffffffffffffffffffffffffffffffff",
        "nonce": "0x38",
        "chainId": "0x66eee"
      },
      "additionalContracts": [],
      "isFixedGasLimit": false
    },
    {
      "hash": "0x294d478456814b33010865d9c7a3fb44408b2a81ca3598b0213f5ffebc660299",
      "transactionType": "CALL",
      "contractName": null,
      "contractAddress": "0x000000000022d473030f116ddee9f6b43ac78ba3",
      "function": "approve(address,address,uint160,uint48)",
      "arguments": [
        "0x980B62Da83eFf3D4576C647993b0c1D7faf17c73",
        "0xAc631556d3d4019C95769033B5E719dD77124BAc",
        "1461501637330902918203684832716283019655932542975",
        "281474976710655"
      ],
      "transaction": {
        "from": "0x564323ae0d8473103f3763814c5121ca9e48004b",
        "to": "0x000000000022d473030f116ddee9f6b43ac78ba3",
        "gas": "0xf4c9",
        "value": "0x0",
        "input": "0x87517c45000000000000000000000000980b62da83eff3d4576c647993b0c1d7faf17c73000000000000000000000000ac631556d3d4019c95769033b5e719dd77124bac000000000000000000000000ffffffffffffffffffffffffffffffffffffffff0000000000000000000000000000000000000000000000000000ffffffffffff",
        "nonce": "0x39",
        "chainId": "0x66eee"
      },
      "additionalContracts": [],
      "isFixedGasLimit": false
    },
    {
      "hash": "0x0e14a1ec0ec4a4a641e93c5e4208a43f8b2a068f2ff9985d062312754d3ddac0",
      "transactionType": "CALL",
      "contractName": null,
      "contractAddress": "0x000000000022d473030f116ddee9f6b43ac78ba3",
      "function": "approve(address,address,uint160,uint48)",
      "arguments": [
        "0xb893E3334D4Bd6C5ba8277Fd559e99Ed683A9FC7",
        "0xAc631556d3d4019C95769033B5E719dD77124BAc",
        "1461501637330902918203684832716283019655932542975",
        "281474976710655"
      ],
      "transaction": {
        "from": "0x564323ae0d8473103f3763814c5121ca9e48004b",
        "to": "0x000000000022d473030f116ddee9f6b43ac78ba3",
        "gas": "0xf4c9",
        "value": "0x0",
        "input": "0x87517c45000000000000000000000000b893e3334d4bd6c5ba8277fd559e99ed683a9fc7000000000000000000000000ac631556d3d4019c95769033b5e719dd77124bac000000000000000000000000ffffffffffffffffffffffffffffffffffffffff0000000000000000000000000000000000000000000000000000ffffffffffff",
        "nonce": "0x3a",
        "chainId": "0x66eee"
      },
      "additionalContracts": [],
      "isFixedGasLimit": false
    },
    {
      "hash": "0x7373060cdb5b62cf783600bcac933ac69319d1aa8c140c4170799553fae3be53",
      "transactionType": "CALL",
      "contractName": null,
      "contractAddress": "0xac631556d3d4019c95769033b5e719dd77124bac",
      "function": "modifyLiquidities(bytes,uint256)",
      "arguments": [
        "0x0000000000000000000000000000000000000000000000000000000000000040000000000000000000000000000000000000000000000000000000000000008000000000000000000000000000000000000000000000000000000000000000030212120000000000000000000000000000000000000000000000000000000000000000000000000000000000000000000000000000000000000000000000000300000000000000000000000000000000000000000000000000000000000000600000000000000000000000000000000000000000000000000000000000000220000000000000000000000000000000000000000000000000000000000000026000000000000000000000000000000000000000000000000000000000000001a0000000000000000000000000980b62da83eff3d4576c647993b0c1d7faf17c73000000000000000000000000b893e3334d4bd6c5ba8277fd559e99ed683a9fc70000000000000000000000000000000000000000000000000000000000000bb8000000000000000000000000000000000000000000000000000000000000003c00000000000000000000000051ed077265dc54b2afdbf26181b48f7314b44a40fffffffffffffffffffffffffffffffffffffffffffffffffffffffffffcee24fffffffffffffffffffffffffffffffffffffffffffffffffffffffffffd0918000000000000000000000000000000000000000000000000000002ba7def3000000000000000000000000000000000000000000000000000002386f26fc100000000000000000000000000000000000000000000000000000000000001c9c380000000000000000000000000564323ae0d8473103f3763814c5121ca9e48004b000000000000000000000000000000000000000000000000000000000000018000000000000000000000000000000000000000000000000000000000000000000000000000000000000000000000000000000000000000000000000000000020000000000000000000000000980b62da83eff3d4576c647993b0c1d7faf17c730000000000000000000000000000000000000000000000000000000000000020000000000000000000000000b893e3334d4bd6c5ba8277fd559e99ed683a9fc7",
        "1771701810"
      ],
      "transaction": {
        "from": "0x564323ae0d8473103f3763814c5121ca9e48004b",
        "to": "0xac631556d3d4019c95769033b5e719dd77124bac",
        "gas": "0xa12e6",
        "value": "0x0",
        "input": "0xdd46508f000000000000000000000000000000000000000000000000000000000000004000000000000000000000000000000000000000000000000000000000699a063200000000000000000000000000000000000000000000000000000000000003400000000000000000000000000000000000000000000000000000000000000040000000000000000000000000000000000000000000000000000000000000008000000000000000000000000000000000000000000000000000000000000000030212120000000000000000000000000000000000000000000000000000000000000000000000000000000000000000000000000000000000000000000000000300000000000000000000000000000000000000000000000000000000000000600000000000000000000000000000000000000000000000000000000000000220000000000000000000000000000000000000000000000000000000000000026000000000000000000000000000000000000000000000000000000000000001a0000000000000000000000000980b62da83eff3d4576c647993b0c1d7faf17c73000000000000000000000000b893e3334d4bd6c5ba8277fd559e99ed683a9fc70000000000000000000000000000000000000000000000000000000000000bb8000000000000000000000000000000000000000000000000000000000000003c00000000000000000000000051ed077265dc54b2afdbf26181b48f7314b44a40fffffffffffffffffffffffffffffffffffffffffffffffffffffffffffcee24fffffffffffffffffffffffffffffffffffffffffffffffffffffffffffd0918000000000000000000000000000000000000000000000000000002ba7def3000000000000000000000000000000000000000000000000000002386f26fc100000000000000000000000000000000000000000000000000000000000001c9c380000000000000000000000000564323ae0d8473103f3763814c5121ca9e48004b000000000000000000000000000000000000000000000000000000000000018000000000000000000000000000000000000000000000000000000000000000000000000000000000000000000000000000000000000000000000000000000020000000000000000000000000980b62da83eff3d4576c647993b0c1d7faf17c730000000000000000000000000000000000000000000000000000000000000020000000000000000000000000b893e3334d4bd6c5ba8277fd559e99ed683a9fc7",
        "nonce": "0x3b",
        "chainId": "0x66eee"
      },
      "additionalContracts": [],
      "isFixedGasLimit": false
    },
    {
      "hash": "0x121cac493e2350103284b6ba597abddfe586e14bc0a94be8895c0d5dfd008cbb",
      "transactionType": "CALL",
      "contractName": null,
      "contractAddress": "0x980b62da83eff3d4576c647993b0c1d7faf17c73",
      "function": "approve(address,uint256)",
      "arguments": [
        "0x79EA6cB3889fe1FC7490A1C69C7861761d882D4A",
        "115792089237316195423570985008687907853269984665640564039457584007913129639935"
      ],
      "transaction": {
        "from": "0x564323ae0d8473103f3763814c5121ca9e48004b",
        "to": "0x980b62da83eff3d4576c647993b0c1d7faf17c73",
        "gas": "0x11563",
        "value": "0x0",
        "input": "0x095ea7b300000000000000000000000079ea6cb3889fe1fc7490a1c69c7861761d882d4affffffffffffffffffffffffffffffffffffffffffffffffffffffffffffffff",
        "nonce": "0x3c",
        "chainId": "0x66eee"
      },
      "additionalContracts": [],
      "isFixedGasLimit": false
    },
    {
      "hash": "0x8114477f993d348fd5117eb98c09ec6bb0e623d3a985510e2be283a8f96e4c1b",
      "transactionType": "CALL",
      "contractName": null,
      "contractAddress": "0xb893e3334d4bd6c5ba8277fd559e99ed683a9fc7",
      "function": "approve(address,uint256)",
      "arguments": [
        "0x79EA6cB3889fe1FC7490A1C69C7861761d882D4A",
        "115792089237316195423570985008687907853269984665640564039457584007913129639935"
      ],
      "transaction": {
        "from": "0x564323ae0d8473103f3763814c5121ca9e48004b",
        "to": "0xb893e3334d4bd6c5ba8277fd559e99ed683a9fc7",
        "gas": "0xeddd",
        "value": "0x0",
        "input": "0x095ea7b300000000000000000000000079ea6cb3889fe1fc7490a1c69c7861761d882d4affffffffffffffffffffffffffffffffffffffffffffffffffffffffffffffff",
        "nonce": "0x3d",
        "chainId": "0x66eee"
      },
      "additionalContracts": [],
      "isFixedGasLimit": false
    },
    {
      "hash": "0x4fdd1070b712eaf8544b10dd6e5d750b098789d59dd0b651e90af887d5e4797a",
      "transactionType": "CALL",
      "contractName": null,
      "contractAddress": "0x79ea6cb3889fe1fc7490a1c69c7861761d882d4a",
      "function": "mint((address,address,int24,int24,uint256,uint256,uint256,uint256,address,uint256))",
      "arguments": [
        "(0x980B62Da83eFf3D4576C647993b0c1D7faf17c73, 0xb893E3334D4Bd6C5ba8277Fd559e99Ed683A9FC7, -201180, -194280, 10000000000000000, 30000000, 0, 0, 0x564323aE0D8473103F3763814c5121Ca9e48004B, 1771701810)"
      ],
      "transaction": {
        "from": "0x564323ae0d8473103f3763814c5121ca9e48004b",
        "to": "0x79ea6cb3889fe1fc7490a1c69c7861761d882d4a",
        "gas": "0xc2ecb",
        "value": "0x0",
        "input": "0x9cc1a283000000000000000000000000980b62da83eff3d4576c647993b0c1d7faf17c73000000000000000000000000b893e3334d4bd6c5ba8277fd559e99ed683a9fc7fffffffffffffffffffffffffffffffffffffffffffffffffffffffffffcee24fffffffffffffffffffffffffffffffffffffffffffffffffffffffffffd0918000000000000000000000000000000000000000000000000002386f26fc100000000000000000000000000000000000000000000000000000000000001c9c38000000000000000000000000000000000000000000000000000000000000000000000000000000000000000000000000000000000000000000000000000000000000000000000000000000000564323ae0d8473103f3763814c5121ca9e48004b00000000000000000000000000000000000000000000000000000000699a0632",
        "nonce": "0x3e",
        "chainId": "0x66eee"
      },
      "additionalContracts": [],
      "isFixedGasLimit": false
    }
  ],
  "receipts": [
    {
      "status": "0x1",
      "cumulativeGasUsed": "0xe2c3",
      "logs": [
        {
          "address": "0x980b62da83eff3d4576c647993b0c1d7faf17c73",
          "topics": [
            "0xddf252ad1be2c89b69c2b068fc378daa952ba7f163c4a11628f55a4df523b3ef",
            "0x0000000000000000000000000000000000000000000000000000000000000000",
            "0x000000000000000000000000564323ae0d8473103f3763814c5121ca9e48004b"
          ],
          "data": "0x000000000000000000000000000000000000000000000000006a94d74f430000",
          "blockHash": "0xce2608983baf4f10384be719ca46661345dddb5da781d6e3003297550ad49eae",
          "blockNumber": "0xe91093b",
          "blockTimestamp": "0x699a052d",
          "transactionHash": "0x6847fa0374328e41bfb1d10016f4e41998874041507b3c4f6241f8129d88080a",
          "transactionIndex": "0x1",
          "logIndex": "0x0",
          "removed": false
        }
      ],
      "logsBloom": "0x00000000000000000000000000000000000000000000000000000800000000000000000000000000000000000000000000000000000000000000000000000000000000000000000000000008100000000000000000000000000000000000000000000000020000000000000000000800000000000000000000000010000000000000000000000002000000000000000000000000000000000000000000000000000000000000000000000000000000000000000000000000000000000000000002000002000000004000000000000000000000000000000000000000000020000000000000000000000000000000000000000100000000000000000000000000",
      "type": "0x2",
      "transactionHash": "0x6847fa0374328e41bfb1d10016f4e41998874041507b3c4f6241f8129d88080a",
      "transactionIndex": "0x1",
      "blockHash": "0xce2608983baf4f10384be719ca46661345dddb5da781d6e3003297550ad49eae",
      "blockNumber": "0xe91093b",
      "gasUsed": "0xe2c3",
      "effectiveGasPrice": "0x1312d00",
      "from": "0x564323ae0d8473103f3763814c5121ca9e48004b",
      "to": "0x980b62da83eff3d4576c647993b0c1d7faf17c73",
      "contractAddress": null,
      "gasUsedForL1": "0x0",
      "l1BlockNumber": "0x9d4b20",
      "timeboosted": false
    },
    {
      "status": "0x1",
      "cumulativeGasUsed": "0x17e1f1",
      "logs": [],
      "logsBloom": "0x00000000000000000000000000000000000000000000000000000000000000000000000000000000000000000000000000000000000000000000000000000000000000000000000000000000000000000000000000000000000000000000000000000000000000000000000000000000000000000000000000000000000000000000000000000000000000000000000000000000000000000000000000000000000000000000000000000000000000000000000000000000000000000000000000000000000000000000000000000000000000000000000000000000000000000000000000000000000000000000000000000000000000000000000000000000",
      "type": "0x2",
      "transactionHash": "0xe779f67e83c10f0faec63edbeceb954dc18961a86420e146d1030236dd00da63",
      "transactionIndex": "0x1",
      "blockHash": "0x93ff9d6c91d65009962db048abfd7d907c47ae3405b35982ac11a0e5263e2e35",
      "blockNumber": "0xe910943",
      "gasUsed": "0x17e1f1",
      "effectiveGasPrice": "0x1314470",
      "from": "0x564323ae0d8473103f3763814c5121ca9e48004b",
      "to": "0x4e59b44847b379578588920ca78fbf26c0b4956c",
      "contractAddress": null,
      "gasUsedForL1": "0x0",
      "l1BlockNumber": "0x9d4b20",
      "timeboosted": false
    },
    {
      "status": "0x1",
      "cumulativeGasUsed": "0xb46a",
      "logs": [],
      "logsBloom": "0x00000000000000000000000000000000000000000000000000000000000000000000000000000000000000000000000000000000000000000000000000000000000000000000000000000000000000000000000000000000000000000000000000000000000000000000000000000000000000000000000000000000000000000000000000000000000000000000000000000000000000000000000000000000000000000000000000000000000000000000000000000000000000000000000000000000000000000000000000000000000000000000000000000000000000000000000000000000000000000000000000000000000000000000000000000000",
      "type": "0x2",
      "transactionHash": "0x5eafb5482489d21484523b83a3d9cb612c72d13fb865a2ffcd3e1f00613410df",
      "transactionIndex": "0x1",
      "blockHash": "0x9e2245d864dc148d421527ae8ab3f7ee0091370103f53206e9e2c6a950b78345",
      "blockNumber": "0xe910946",
      "gasUsed": "0xb46a",
      "effectiveGasPrice": "0x13255e0",
      "from": "0x564323ae0d8473103f3763814c5121ca9e48004b",
      "to": "0x244c49e7986fec5bad7c567d588b9262ef5e0604",
      "contractAddress": null,
      "gasUsedForL1": "0x0",
      "l1BlockNumber": "0x9d4b20",
      "timeboosted": false
    },
    {
      "status": "0x1",
      "cumulativeGasUsed": "0xcb7a",
      "logs": [
        {
          "address": "0xfb3e0c6f74eb1a21cc1da29aec80d2dfe6c9a317",
          "topics": [
            "0xdd466e674ea557f56295e2d0218a125ea4b4f0f6f3307b95f85e6110838d6438",
            "0x08f0aa16861abbc231031678ba2326eaf4c0b74b8f1fced53940c99dcb5a1ba2",
            "0x000000000000000000000000980b62da83eff3d4576c647993b0c1d7faf17c73",
            "0x000000000000000000000000b893e3334d4bd6c5ba8277fd559e99ed683a9fc7"
          ],
          "data": "0x0000000000000000000000000000000000000000000000000000000000000bb8000000000000000000000000000000000000000000000000000000000000003c00000000000000000000000051ed077265dc54b2afdbf26181b48f7314b44a40000000000000000000000000000000000000000000035eaa2a884fcddea13f67fffffffffffffffffffffffffffffffffffffffffffffffffffffffffffcfc70",
          "blockHash": "0x221d3c1b3179cb7ca6c096380a1f700657596fb54913edbd59e398a670059e85",
          "blockNumber": "0xe910947",
          "blockTimestamp": "0x699a0534",
          "transactionHash": "0xd06a2fbe2d03a93bf7a9f36aaea256995c184a0204ae26ddb7a8167f20abc6f0",
          "transactionIndex": "0x1",
          "logIndex": "0x0",
          "removed": false
        }
      ],
      "logsBloom": "0x00000000000000000000000000000000000000000080000000000000000000000000000000000000000000000000000000000000000000000000000000000040000020000000000000000000000000000000000000000000000000000000000000020000000400000000000000080000040000000000000000000000000000000000000000000008000000000000000000000001000000000000000000200000000000000000000000000000000000000800000000000000000000000000000000000000000000000000000200000000000000000000000000000000000000000000000000000000000000000000000000000000004000200000000000000004",
      "type": "0x2",
      "transactionHash": "0xd06a2fbe2d03a93bf7a9f36aaea256995c184a0204ae26ddb7a8167f20abc6f0",
      "transactionIndex": "0x1",
      "blockHash": "0x221d3c1b3179cb7ca6c096380a1f700657596fb54913edbd59e398a670059e85",
      "blockNumber": "0xe910947",
      "gasUsed": "0xcb7a",
      "effectiveGasPrice": "0x1312d00",
      "from": "0x564323ae0d8473103f3763814c5121ca9e48004b",
      "to": "0xfb3e0c6f74eb1a21cc1da29aec80d2dfe6c9a317",
      "contractAddress": null,
      "gasUsedForL1": "0x0",
      "l1BlockNumber": "0x9d4b20",
      "timeboosted": false
    },
    {
      "status": "0x1",
      "cumulativeGasUsed": "0xd208",
      "logs": [
        {
          "address": "0x980b62da83eff3d4576c647993b0c1d7faf17c73",
          "topics": [
            "0x8c5be1e5ebec7d5bd14f71427d1e84f3dd0314c0f7b2291e5b200ac8c7c3b925",
            "0x000000000000000000000000564323ae0d8473103f3763814c5121ca9e48004b",
            "0x000000000000000000000000000000000022d473030f116ddee9f6b43ac78ba3"
          ],
          "data": "0xffffffffffffffffffffffffffffffffffffffffffffffffffffffffffffffff",
          "blockHash": "0xaeca1e044f3094832dab30709173978d4f8d0688407fef2ad37878ce2d498108",
          "blockNumber": "0xe91094d",
          "blockTimestamp": "0x699a0535",
          "transactionHash": "0x16e4d76116c703335e72b62ba548b0bc5bd66e44a19a77d9d878a245b24ca626",
          "transactionIndex": "0x1",
          "logIndex": "0x0",
          "removed": false
        }
      ],
      "logsBloom": "0x00000000000000000000000000000000000000000000000000000800000000000000000000000000000000000000000000000000800000000000000000200000000000000000000000004000100000000000000000000800000000000000000000000000000000000000000000000000000000000000000000000000000000000000000000000002000000000000000000000000000000000000000000000000020000000000000000000000000000000000000000000000000000000000000002000000000000004000000000000000000000000000000000000000000000000010000000000000000000000000000000000100000000000000000000000000",
      "type": "0x2",
      "transactionHash": "0x16e4d76116c703335e72b62ba548b0bc5bd66e44a19a77d9d878a245b24ca626",
      "transactionIndex": "0x1",
      "blockHash": "0xaeca1e044f3094832dab30709173978d4f8d0688407fef2ad37878ce2d498108",
      "blockNumber": "0xe91094d",
      "gasUsed": "0xd208",
      "effectiveGasPrice": "0x1314c40",
      "from": "0x564323ae0d8473103f3763814c5121ca9e48004b",
      "to": "0x980b62da83eff3d4576c647993b0c1d7faf17c73",
      "contractAddress": null,
      "gasUsedForL1": "0x0",
      "l1BlockNumber": "0x9d4b20",
      "timeboosted": false
    },
    {
      "status": "0x1",
      "cumulativeGasUsed": "0xb53e",
      "logs": [
        {
          "address": "0xb893e3334d4bd6c5ba8277fd559e99ed683a9fc7",
          "topics": [
            "0x8c5be1e5ebec7d5bd14f71427d1e84f3dd0314c0f7b2291e5b200ac8c7c3b925",
            "0x000000000000000000000000564323ae0d8473103f3763814c5121ca9e48004b",
            "0x000000000000000000000000000000000022d473030f116ddee9f6b43ac78ba3"
          ],
          "data": "0xffffffffffffffffffffffffffffffffffffffffffffffffffffffffffffffff",
          "blockHash": "0xe748da4c1066193451202b39305520aa3118b304032993fe109775a4433a69bb",
          "blockNumber": "0xe910955",
          "blockTimestamp": "0x699a0538",
          "transactionHash": "0xc52965d8c05ee20a4ce537de4ada58c1c43275b42a3240ca29e09c425ddee665",
          "transactionIndex": "0x1",
          "logIndex": "0x0",
          "removed": false
        }
      ],
      "logsBloom": "0x00000000000000000000000000000000000000000000000000000000000000000000000000000000000000000000000000000000800000000000000000200000000000000000000000004000000000000000000000000800000000000000000000000000000000000000000000000000000002000000000000000000000000000000000000000002000080000000000000000000000000000000000000000000020000000000000000000000000000000000000000000000000000000000000002000000000000000000000000000000000000000000000000000000000000000010000400000000000000000000000000000100000000000000000000000000",
      "type": "0x2",
      "transactionHash": "0xc52965d8c05ee20a4ce537de4ada58c1c43275b42a3240ca29e09c425ddee665",
      "transactionIndex": "0x1",
      "blockHash": "0xe748da4c1066193451202b39305520aa3118b304032993fe109775a4433a69bb",
      "blockNumber": "0xe910955",
      "gasUsed": "0xb53e",
      "effectiveGasPrice": "0x1312d00",
      "from": "0x564323ae0d8473103f3763814c5121ca9e48004b",
      "to": "0xb893e3334d4bd6c5ba8277fd559e99ed683a9fc7",
      "contractAddress": null,
      "gasUsedForL1": "0x0",
      "l1BlockNumber": "0x9d4b21",
      "timeboosted": false
    },
    {
      "status": "0x1",
      "cumulativeGasUsed": "0xbaca",
      "logs": [
        {
          "address": "0x000000000022d473030f116ddee9f6b43ac78ba3",
          "topics": [
            "0xda9fa7c1b00402c17d0161b249b1ab8bbec047c5a52207b9c112deffd817036b",
            "0x000000000000000000000000564323ae0d8473103f3763814c5121ca9e48004b",
            "0x000000000000000000000000980b62da83eff3d4576c647993b0c1d7faf17c73",
            "0x000000000000000000000000ac631556d3d4019c95769033b5e719dd77124bac"
          ],
          "data": "0x000000000000000000000000ffffffffffffffffffffffffffffffffffffffff0000000000000000000000000000000000000000000000000000ffffffffffff",
          "blockHash": "0x979787ad3bd939f7673d6963674b1165d34fae80bf5f16ddffdcb3869e0c1e34",
          "blockNumber": "0xe91095a",
          "blockTimestamp": "0x699a053a",
          "transactionHash": "0x294d478456814b33010865d9c7a3fb44408b2a81ca3598b0213f5ffebc660299",
          "transactionIndex": "0x1",
          "logIndex": "0x0",
          "removed": false
        }
      ],
      "logsBloom": "0x00010000000000000000000000000000000000000000000000000000000000000000000000000000100000000000000000000000000000000000000000080000000020000020000000000000000000000000000000000000000000000000000000020000000000000000000000000000000000000000000000000000000000000020000000000002000000000000000000000000000000000000000000000000000000000000000000000000000000000000000000000000000000080000000002000000000000000000010200000000000000000000000040000000000000000000000000000000000000000000000000000100000000000000000000000400",
      "type": "0x2",
      "transactionHash": "0x294d478456814b33010865d9c7a3fb44408b2a81ca3598b0213f5ffebc660299",
      "transactionIndex": "0x1",
      "blockHash": "0x979787ad3bd939f7673d6963674b1165d34fae80bf5f16ddffdcb3869e0c1e34",
      "blockNumber": "0xe91095a",
      "gasUsed": "0xbaca",
      "effectiveGasPrice": "0x1313ca0",
      "from": "0x564323ae0d8473103f3763814c5121ca9e48004b",
      "to": "0x000000000022d473030f116ddee9f6b43ac78ba3",
      "contractAddress": null,
      "gasUsedForL1": "0x0",
      "l1BlockNumber": "0x9d4b21",
      "timeboosted": false
    },
    {
      "status": "0x1",
      "cumulativeGasUsed": "0xbaca",
      "logs": [
        {
          "address": "0x000000000022d473030f116ddee9f6b43ac78ba3",
          "topics": [
            "0xda9fa7c1b00402c17d0161b249b1ab8bbec047c5a52207b9c112deffd817036b",
            "0x000000000000000000000000564323ae0d8473103f3763814c5121ca9e48004b",
            "0x000000000000000000000000b893e3334d4bd6c5ba8277fd559e99ed683a9fc7",
            "0x000000000000000000000000ac631556d3d4019c95769033b5e719dd77124bac"
          ],
          "data": "0x000000000000000000000000ffffffffffffffffffffffffffffffffffffffff0000000000000000000000000000000000000000000000000000ffffffffffff",
          "blockHash": "0x3dacfe2013c9d82fe94123b4624b84a368c7aa671be9908a56efacf46bdefca6",
          "blockNumber": "0xe91095e",
          "blockTimestamp": "0x699a053d",
          "transactionHash": "0x0e14a1ec0ec4a4a641e93c5e4208a43f8b2a068f2ff9985d062312754d3ddac0",
          "transactionIndex": "0x1",
          "logIndex": "0x0",
          "removed": false
        }
      ],
      "logsBloom": "0x00010000000000000000000000000000000000000000000000000000000000000000000000000000100000000000000000000000000000000000000000080000000000000020000000000000000000000000000000000000000000000000000000000000000000000000000000000000040000000000000000000000000000000020000000000002000000000000000000000000000000000000000000000000000000000000000000000000000000000000000000000000000000080000000002000000000000000000010000000000000000000000000040000000000000000000000000000000000000000000000000000100004000200000000000000400",
      "type": "0x2",
      "transactionHash": "0x0e14a1ec0ec4a4a641e93c5e4208a43f8b2a068f2ff9985d062312754d3ddac0",
      "transactionIndex": "0x1",
      "blockHash": "0x3dacfe2013c9d82fe94123b4624b84a368c7aa671be9908a56efacf46bdefca6",
      "blockNumber": "0xe91095e",
      "gasUsed": "0xbaca",
      "effectiveGasPrice": "0x1317b20",
      "from": "0x564323ae0d8473103f3763814c5121ca9e48004b",
      "to": "0x000000000022d473030f116ddee9f6b43ac78ba3",
      "contractAddress": null,
      "gasUsedForL1": "0x0",
      "l1BlockNumber": "0x9d4b21",
      "timeboosted": false
    },
    {
      "status": "0x1",
      "cumulativeGasUsed": "0x14358b",
      "logs": [
        {
          "address": "0xac631556d3d4019c95769033b5e719dd77124bac",
          "topics": [
            "0xddf252ad1be2c89b69c2b068fc378daa952ba7f163c4a11628f55a4df523b3ef",
            "0x0000000000000000000000000000000000000000000000000000000000000000",
            "0x000000000000000000000000564323ae0d8473103f3763814c5121ca9e48004b",
            "0x00000000000000000000000000000000000000000000000000000000000000e7"
          ],
          "data": "0x",
          "blockHash": "0xddfb06abb818fdc4f7a7e8d97fd57552105142e5c41d2f334a64945867539bd5",
          "blockNumber": "0xe910963",
          "blockTimestamp": "0x699a053f",
          "transactionHash": "0x7373060cdb5b62cf783600bcac933ac69319d1aa8c140c4170799553fae3be53",
          "transactionIndex": "0x4",
          "logIndex": "0x3c",
          "removed": false
        },
        {
          "address": "0xfb3e0c6f74eb1a21cc1da29aec80d2dfe6c9a317",
          "topics": [
            "0xf208f4912782fd25c7f114ca3723a2d5dd6f3bcc3ac8db5af63baa85f711d5ec",
            "0x08f0aa16861abbc231031678ba2326eaf4c0b74b8f1fced53940c99dcb5a1ba2",
            "0x000000000000000000000000ac631556d3d4019c95769033b5e719dd77124bac"
          ],
          "data": "0xfffffffffffffffffffffffffffffffffffffffffffffffffffffffffffcee24fffffffffffffffffffffffffffffffffffffffffffffffffffffffffffd0918000000000000000000000000000000000000000000000000000002ba7def300000000000000000000000000000000000000000000000000000000000000000e7",
          "blockHash": "0xddfb06abb818fdc4f7a7e8d97fd57552105142e5c41d2f334a64945867539bd5",
          "blockNumber": "0xe910963",
          "blockTimestamp": "0x699a053f",
          "transactionHash": "0x7373060cdb5b62cf783600bcac933ac69319d1aa8c140c4170799553fae3be53",
          "transactionIndex": "0x4",
          "logIndex": "0x3d",
          "removed": false
        },
        {
          "address": "0x980b62da83eff3d4576c647993b0c1d7faf17c73",
          "topics": [
            "0xddf252ad1be2c89b69c2b068fc378daa952ba7f163c4a11628f55a4df523b3ef",
            "0x000000000000000000000000564323ae0d8473103f3763814c5121ca9e48004b",
            "0x000000000000000000000000fb3e0c6f74eb1a21cc1da29aec80d2dfe6c9a317"
          ],
          "data": "0x000000000000000000000000000000000000000000000000001effcf4b5b92a6",
          "blockHash": "0xddfb06abb818fdc4f7a7e8d97fd57552105142e5c41d2f334a64945867539bd5",
          "blockNumber": "0xe910963",
          "blockTimestamp": "0x699a053f",
          "transactionHash": "0x7373060cdb5b62cf783600bcac933ac69319d1aa8c140c4170799553fae3be53",
          "transactionIndex": "0x4",
          "logIndex": "0x3e",
          "removed": false
        },
        {
          "address": "0x980b62da83eff3d4576c647993b0c1d7faf17c73",
          "topics": [
            "0x8c5be1e5ebec7d5bd14f71427d1e84f3dd0314c0f7b2291e5b200ac8c7c3b925",
            "0x000000000000000000000000564323ae0d8473103f3763814c5121ca9e48004b",
            "0x000000000000000000000000000000000022d473030f116ddee9f6b43ac78ba3"
          ],
          "data": "0xffffffffffffffffffffffffffffffffffffffffffffffffffe10030b4a46d59",
          "blockHash": "0xddfb06abb818fdc4f7a7e8d97fd57552105142e5c41d2f334a64945867539bd5",
          "blockNumber": "0xe910963",
          "blockTimestamp": "0x699a053f",
          "transactionHash": "0x7373060cdb5b62cf783600bcac933ac69319d1aa8c140c4170799553fae3be53",
          "transactionIndex": "0x4",
          "logIndex": "0x3f",
          "removed": false
        },
        {
          "address": "0xb893e3334d4bd6c5ba8277fd559e99ed683a9fc7",
          "topics": [
            "0xddf252ad1be2c89b69c2b068fc378daa952ba7f163c4a11628f55a4df523b3ef",
            "0x000000000000000000000000564323ae0d8473103f3763814c5121ca9e48004b",
            "0x000000000000000000000000fb3e0c6f74eb1a21cc1da29aec80d2dfe6c9a317"
          ],
          "data": "0x0000000000000000000000000000000000000000000000000000000001899b5b",
          "blockHash": "0xddfb06abb818fdc4f7a7e8d97fd57552105142e5c41d2f334a64945867539bd5",
          "blockNumber": "0xe910963",
          "blockTimestamp": "0x699a053f",
          "transactionHash": "0x7373060cdb5b62cf783600bcac933ac69319d1aa8c140c4170799553fae3be53",
          "transactionIndex": "0x4",
          "logIndex": "0x40",
          "removed": false
        },
        {
          "address": "0xb893e3334d4bd6c5ba8277fd559e99ed683a9fc7",
          "topics": [
            "0x8c5be1e5ebec7d5bd14f71427d1e84f3dd0314c0f7b2291e5b200ac8c7c3b925",
            "0x000000000000000000000000564323ae0d8473103f3763814c5121ca9e48004b",
            "0x000000000000000000000000000000000022d473030f116ddee9f6b43ac78ba3"
          ],
          "data": "0xfffffffffffffffffffffffffffffffffffffffffffffffffffffffffe7664a4",
          "blockHash": "0xddfb06abb818fdc4f7a7e8d97fd57552105142e5c41d2f334a64945867539bd5",
          "blockNumber": "0xe910963",
          "blockTimestamp": "0x699a053f",
          "transactionHash": "0x7373060cdb5b62cf783600bcac933ac69319d1aa8c140c4170799553fae3be53",
          "transactionIndex": "0x4",
          "logIndex": "0x41",
          "removed": false
        }
      ],
      "logsBloom": "0x000000400000000000000000000000080000000000a0100000000800000000000000000000000000100000000000000000000000800000000000000000200040000000000020000000004008100000000000000000000800000000000000000000000000020400000001000000080800000002000000000000000010000000000000000001000002000080000000000000000000001000000000000020000000020004200000000000000000000000000800000000000000000000000000000002000002000000004000010000000000000000000000000000000000000020000010000400000000400000000000000004000100000000000000000000000004",
      "type": "0x2",
      "transactionHash": "0x7373060cdb5b62cf783600bcac933ac69319d1aa8c140c4170799553fae3be53",
      "transactionIndex": "0x4",
      "blockHash": "0xddfb06abb818fdc4f7a7e8d97fd57552105142e5c41d2f334a64945867539bd5",
      "blockNumber": "0xe910963",
      "gasUsed": "0x6e35a",
      "effectiveGasPrice": "0x1321f30",
      "from": "0x564323ae0d8473103f3763814c5121ca9e48004b",
      "to": "0xac631556d3d4019c95769033b5e719dd77124bac",
      "contractAddress": null,
      "gasUsedForL1": "0x0",
      "l1BlockNumber": "0x9d4b21",
      "timeboosted": false
    },
    {
      "status": "0x1",
      "cumulativeGasUsed": "0xd244",
      "logs": [
        {
          "address": "0x980b62da83eff3d4576c647993b0c1d7faf17c73",
          "topics": [
            "0x8c5be1e5ebec7d5bd14f71427d1e84f3dd0314c0f7b2291e5b200ac8c7c3b925",
            "0x000000000000000000000000564323ae0d8473103f3763814c5121ca9e48004b",
            "0x00000000000000000000000079ea6cb3889fe1fc7490a1c69c7861761d882d4a"
          ],
          "data": "0xffffffffffffffffffffffffffffffffffffffffffffffffffffffffffffffff",
          "blockHash": "0xffd73def4e4f465dea263127ce268a8ee8236e69e5abf8d8862105718e81fc84",
          "blockNumber": "0xe910965",
          "blockTimestamp": "0x699a0540",
          "transactionHash": "0x121cac493e2350103284b6ba597abddfe586e14bc0a94be8895c0d5dfd008cbb",
          "transactionIndex": "0x1",
          "logIndex": "0x0",
          "removed": false
        }
      ],
      "logsBloom": "0x00000000000000000000000000000000000000000000000000080800000000000000000000000000000000000000000000000000000000000000000000200000000000000000000000000000100000000000000000000000000000000000000000000000000000000000000000000000000000000000000000000000000000000000000000000002200000000000000000000000000000000000000000000000020000000000000000000000000000000000000000000000000000000000000002000000000000004000000000000000000000000004000000000000000000000010000000000000000000000000000000000100000000000000000000000000",
      "type": "0x2",
      "transactionHash": "0x121cac493e2350103284b6ba597abddfe586e14bc0a94be8895c0d5dfd008cbb",
      "transactionIndex": "0x1",
      "blockHash": "0xffd73def4e4f465dea263127ce268a8ee8236e69e5abf8d8862105718e81fc84",
      "blockNumber": "0xe910965",
      "gasUsed": "0xd244",
      "effectiveGasPrice": "0x1312d00",
      "from": "0x564323ae0d8473103f3763814c5121ca9e48004b",
      "to": "0x980b62da83eff3d4576c647993b0c1d7faf17c73",
      "contractAddress": null,
      "gasUsedForL1": "0x0",
      "l1BlockNumber": "0x9d4b21",
      "timeboosted": false
    },
    {
      "status": "0x1",
      "cumulativeGasUsed": "0xb57a",
      "logs": [
        {
          "address": "0xb893e3334d4bd6c5ba8277fd559e99ed683a9fc7",
          "topics": [
            "0x8c5be1e5ebec7d5bd14f71427d1e84f3dd0314c0f7b2291e5b200ac8c7c3b925",
            "0x000000000000000000000000564323ae0d8473103f3763814c5121ca9e48004b",
            "0x00000000000000000000000079ea6cb3889fe1fc7490a1c69c7861761d882d4a"
          ],
          "data": "0xffffffffffffffffffffffffffffffffffffffffffffffffffffffffffffffff",
          "blockHash": "0x91f5e67cc008b2bed0f87642fb4865922a320826e6e8e16d756b75e76aa270f4",
          "blockNumber": "0xe910968",
          "blockTimestamp": "0x699a0542",
          "transactionHash": "0x8114477f993d348fd5117eb98c09ec6bb0e623d3a985510e2be283a8f96e4c1b",
          "transactionIndex": "0x1",
          "logIndex": "0x0",
          "removed": false
        }
      ],
      "logsBloom": "0x00000000000000000000000000000000000000000000000000080000000000000000000000000000000000000000000000000000000000000000000000200000000000000000000000000000000000000000000000000000000000000000000000000000000000000000000000000000000002000000000000000000000000000000000000000002200080000000000000000000000000000000000000000000020000000000000000000000000000000000000000000000000000000000000002000000000000000000000000000000000000000004000000000000000000000010000400000000000000000000000000000100000000000000000000000000",
      "type": "0x2",
      "transactionHash": "0x8114477f993d348fd5117eb98c09ec6bb0e623d3a985510e2be283a8f96e4c1b",
      "transactionIndex": "0x1",
      "blockHash": "0x91f5e67cc008b2bed0f87642fb4865922a320826e6e8e16d756b75e76aa270f4",
      "blockNumber": "0xe910968",
      "gasUsed": "0xb57a",
      "effectiveGasPrice": "0x1312d00",
      "from": "0x564323ae0d8473103f3763814c5121ca9e48004b",
      "to": "0xb893e3334d4bd6c5ba8277fd559e99ed683a9fc7",
      "contractAddress": null,
      "gasUsedForL1": "0x0",
      "l1BlockNumber": "0x9d4b21",
      "timeboosted": false
    },
    {
      "status": "0x1",
      "cumulativeGasUsed": "0x85483",
      "logs": [
        {
          "address": "0xb893e3334d4bd6c5ba8277fd559e99ed683a9fc7",
          "topics": [
            "0xddf252ad1be2c89b69c2b068fc378daa952ba7f163c4a11628f55a4df523b3ef",
            "0x000000000000000000000000564323ae0d8473103f3763814c5121ca9e48004b",
            "0x0000000000000000000000003965361ea4f9000ae3cf995f553115b2832d0e2d"
          ],
          "data": "0x0000000000000000000000000000000000000000000000000000000001c9c380",
          "blockHash": "0xdacdce54d85319b7c439674049588e5a38d3c8c0e73b86db1fe20811012de624",
          "blockNumber": "0xe91096a",
          "blockTimestamp": "0x699a0543",
          "transactionHash": "0x4fdd1070b712eaf8544b10dd6e5d750b098789d59dd0b651e90af887d5e4797a",
          "transactionIndex": "0x1",
          "logIndex": "0x0",
          "removed": false
        },
        {
          "address": "0xb893e3334d4bd6c5ba8277fd559e99ed683a9fc7",
          "topics": [
            "0x8c5be1e5ebec7d5bd14f71427d1e84f3dd0314c0f7b2291e5b200ac8c7c3b925",
            "0x000000000000000000000000564323ae0d8473103f3763814c5121ca9e48004b",
            "0x00000000000000000000000079ea6cb3889fe1fc7490a1c69c7861761d882d4a"
          ],
          "data": "0xfffffffffffffffffffffffffffffffffffffffffffffffffffffffffe363c7f",
          "blockHash": "0xdacdce54d85319b7c439674049588e5a38d3c8c0e73b86db1fe20811012de624",
          "blockNumber": "0xe91096a",
          "blockTimestamp": "0x699a0543",
          "transactionHash": "0x4fdd1070b712eaf8544b10dd6e5d750b098789d59dd0b651e90af887d5e4797a",
          "transactionIndex": "0x1",
          "logIndex": "0x1",
          "removed": false
        },
        {
          "address": "0x3965361ea4f9000ae3cf995f553115b2832d0e2d",
          "topics": [
            "0x7a53080ba414158be7ec69b987b5fb7d07dee101fe85488f0853ae16239d0bde",
            "0x00000000000000000000000079ea6cb3889fe1fc7490a1c69c7861761d882d4a",
            "0xfffffffffffffffffffffffffffffffffffffffffffffffffffffffffffcee24",
            "0xfffffffffffffffffffffffffffffffffffffffffffffffffffffffffffd0918"
          ],
          "data": "0x00000000000000000000000079ea6cb3889fe1fc7490a1c69c7861761d882d4a0000000000000000000000000000000000000000000000000000018bf583536c00000000000000000000000000000000000000000000000000000000000000000000000000000000000000000000000000000000000000000000000001c9c380",
          "blockHash": "0xdacdce54d85319b7c439674049588e5a38d3c8c0e73b86db1fe20811012de624",
          "blockNumber": "0xe91096a",
          "blockTimestamp": "0x699a0543",
          "transactionHash": "0x4fdd1070b712eaf8544b10dd6e5d750b098789d59dd0b651e90af887d5e4797a",
          "transactionIndex": "0x1",
          "logIndex": "0x2",
          "removed": false
        },
        {
          "address": "0x79ea6cb3889fe1fc7490a1c69c7861761d882d4a",
          "topics": [
            "0xddf252ad1be2c89b69c2b068fc378daa952ba7f163c4a11628f55a4df523b3ef",
            "0x0000000000000000000000000000000000000000000000000000000000000000",
            "0x000000000000000000000000564323ae0d8473103f3763814c5121ca9e48004b",
            "0x0000000000000000000000000000000000000000000000000000000000000043"
          ],
          "data": "0x",
          "blockHash": "0xdacdce54d85319b7c439674049588e5a38d3c8c0e73b86db1fe20811012de624",
          "blockNumber": "0xe91096a",
          "blockTimestamp": "0x699a0543",
          "transactionHash": "0x4fdd1070b712eaf8544b10dd6e5d750b098789d59dd0b651e90af887d5e4797a",
          "transactionIndex": "0x1",
          "logIndex": "0x3",
          "removed": false
        },
        {
          "address": "0x79ea6cb3889fe1fc7490a1c69c7861761d882d4a",
          "topics": [
            "0x8a82de7fe9b33e0e6bca0e26f5bd14a74f1164ffe236d50e0a36c3ea70f2b814",
            "0x0000000000000000000000000000000000000000000000000000000000000043"
          ],
          "data": "0x0000000000000000000000000000000000000000000000000000018bf583536c0000000000000000000000000000000000000000000000000000018bf583536c00000000000000000000000000000000000000000000000000000000000000000000000000000000000000000000000000000000000000000000000001c9c3800000000000000000000000003965361ea4f9000ae3cf995f553115b2832d0e2d",
          "blockHash": "0xdacdce54d85319b7c439674049588e5a38d3c8c0e73b86db1fe20811012de624",
          "blockNumber": "0xe91096a",
          "blockTimestamp": "0x699a0543",
          "transactionHash": "0x4fdd1070b712eaf8544b10dd6e5d750b098789d59dd0b651e90af887d5e4797a",
          "transactionIndex": "0x1",
          "logIndex": "0x4",
          "removed": false
        }
      ],
      "logsBloom": "0x00100000000000000000300000000000000000000000000000080000000000000000000000004200004004000001000000000000000000400000000100200000000000000000000008000008022000000000000000000000200000000000000000000000020000000000000000000800000002000000000000000010000000000000000008000002200080000040000000000000000002000000000000000000020000000000000400000000200000002000000000000000000000000000000002000002000000000000080000000000000000004004000000000000000020000010040400000000000000000000000000000100000000000000000000000000",
      "type": "0x2",
      "transactionHash": "0x4fdd1070b712eaf8544b10dd6e5d750b098789d59dd0b651e90af887d5e4797a",
      "transactionIndex": "0x1",
      "blockHash": "0xdacdce54d85319b7c439674049588e5a38d3c8c0e73b86db1fe20811012de624",
      "blockNumber": "0xe91096a",
      "gasUsed": "0x85483",
      "effectiveGasPrice": "0x13182f0",
      "from": "0x564323ae0d8473103f3763814c5121ca9e48004b",
      "to": "0x79ea6cb3889fe1fc7490a1c69c7861761d882d4a",
      "contractAddress": null,
      "gasUsedForL1": "0x0",
      "l1BlockNumber": "0x9d4b21",
      "timeboosted": false
    }
  ],
  "libraries": [],
  "pending": [],
  "returns": {},
  "timestamp": 1771701572,
  "chain": 421614,
  "commit": "d9ae643"
}