{
  "transactions": [
    {
      "hash": "0x3c03a9ebc1fc80bd71532102c4ef3e957aa520e7d8fbb8bbea6aef4b9a61924e",
      "transactionType": "CALL",
      "contractName": null,
      "contractAddress": "0x980b62da83eff3d4576c647993b0c1d7faf17c73",
      "function": "approve(address,uint256)",
      "arguments": [
        "0x000000000022D473030F116dDEE9F6B43aC78BA3",
        "115792089237316195423570985008687907853269984665640564039457584007913129639935"
      ],
      "transaction": {
        "from": "0x6789e51196ea26a159c992b70cc80453ca6e381a",
        "to": "0x980b62da83eff3d4576c647993b0c1d7faf17c73",
        "gas": "0xbc0c",
        "value": "0x0",
        "input": "0x095ea7b3000000000000000000000000000000000022d473030f116ddee9f6b43ac78ba3ffffffffffffffffffffffffffffffffffffffffffffffffffffffffffffffff",
        "nonce": "0x24",
        "chainId": "0x66eee"
      },
      "additionalContracts": [],
      "isFixedGasLimit": false
    },
    {
      "hash": "0x125bf31ea588cc9b6df660e15ccea389daf5185c8318c5b9a8aa224908faeba5",
      "transactionType": "CALL",
      "contractName": null,
      "contractAddress": "0xb893e3334d4bd6c5ba8277fd559e99ed683a9fc7",
      "function": "approve(address,uint256)",
      "arguments": [
        "0x000000000022D473030F116dDEE9F6B43aC78BA3",
        "115792089237316195423570985008687907853269984665640564039457584007913129639935"
      ],
      "transaction": {
        "from": "0x6789e51196ea26a159c992b70cc80453ca6e381a",
        "to": "0xb893e3334d4bd6c5ba8277fd559e99ed683a9fc7",
        "gas": "0x968d",
        "value": "0x0",
        "input": "0x095ea7b3000000000000000000000000000000000022d473030f116ddee9f6b43ac78ba3ffffffffffffffffffffffffffffffffffffffffffffffffffffffffffffffff",
        "nonce": "0x25",
        "chainId": "0x66eee"
      },
      "additionalContracts": [],
      "isFixedGasLimit": false
    },
    {
      "hash": "0x9a5cdf8c2e23cb7683e89933a45d5790dff651bc5236bac3f8cd79772640b7c3",
      "transactionType": "CALL",
      "contractName": null,
      "contractAddress": "0x000000000022d473030f116ddee9f6b43ac78ba3",
      "function": "approve(address,address,uint160,uint48)",
      "arguments": [
        "0x980B62Da83eFf3D4576C647993b0c1D7faf17c73",
        "0xAc631556d3d4019C95769033B5E719dD77124BAc",
        "1461501637330902918203684832716283019655932542975",
        "281474976710655"
      ],
      "transaction": {
        "from": "0x6789e51196ea26a159c992b70cc80453ca6e381a",
        "to": "0x000000000022d473030f116ddee9f6b43ac78ba3",
        "gas": "0x8f87",
        "value": "0x0",
        "input": "0x87517c45000000000000000000000000980b62da83eff3d4576c647993b0c1d7faf17c73000000000000000000000000ac631556d3d4019c95769033b5e719dd77124bac000000000000000000000000ffffffffffffffffffffffffffffffffffffffff0000000000000000000000000000000000000000000000000000ffffffffffff",
        "nonce": "0x26",
        "chainId": "0x66eee"
      },
      "additionalContracts": [],
      "isFixedGasLimit": false
    },
    {
      "hash": "0x09f176999b0b25803bac7947fe0948a5a661643a2b24bfbdb1c808e7c0472076",
      "transactionType": "CALL",
      "contractName": null,
      "contractAddress": "0x000000000022d473030f116ddee9f6b43ac78ba3",
      "function": "approve(address,address,uint160,uint48)",
      "arguments": [
        "0xb893E3334D4Bd6C5ba8277Fd559e99Ed683A9FC7",
        "0xAc631556d3d4019C95769033B5E719dD77124BAc",
        "1461501637330902918203684832716283019655932542975",
        "281474976710655"
      ],
      "transaction": {
        "from": "0x6789e51196ea26a159c992b70cc80453ca6e381a",
        "to": "0x000000000022d473030f116ddee9f6b43ac78ba3",
        "gas": "0x8f87",
        "value": "0x0",
        "input": "0x87517c45000000000000000000000000b893e3334d4bd6c5ba8277fd559e99ed683a9fc7000000000000000000000000ac631556d3d4019c95769033b5e719dd77124bac000000000000000000000000ffffffffffffffffffffffffffffffffffffffff0000000000000000000000000000000000000000000000000000ffffffffffff",
        "nonce": "0x27",
        "chainId": "0x66eee"
      },
      "additionalContracts": [],
      "isFixedGasLimit": false
    },
    {
      "hash": "0x86f3f03daf797721630d0a8f0c44fe4b171d3dd1c251b1531ad5a0bca307e79b",
      "transactionType": "CALL",
      "contractName": null,
      "contractAddress": "0xac631556d3d4019c95769033b5e719dd77124bac",
      "function": "modifyLiquidities(bytes,uint256)",
      "arguments": [
        "0x0000000000000000000000000000000000000000000000000000000000000040000000000000000000000000000000000000000000000000000000000000008000000000000000000000000000000000000000000000000000000000000000030212120000000000000000000000000000000000000000000000000000000000000000000000000000000000000000000000000000000000000000000000000300000000000000000000000000000000000000000000000000000000000000600000000000000000000000000000000000000000000000000000000000000220000000000000000000000000000000000000000000000000000000000000026000000000000000000000000000000000000000000000000000000000000001a0000000000000000000000000980b62da83eff3d4576c647993b0c1d7faf17c73000000000000000000000000b893e3334d4bd6c5ba8277fd559e99ed683a9fc70000000000000000000000000000000000000000000000000000000000000bb8000000000000000000000000000000000000000000000000000000000000003c00000000000000000000000051ed077265dc54b2afdbf26181b48f7314b44a40fffffffffffffffffffffffffffffffffffffffffffffffffffffffffffcee24fffffffffffffffffffffffffffffffffffffffffffffffffffffffffffd0918000000000000000000000000000000000000000000000000000002ba7def3000000000000000000000000000000000000000000000000000002386f26fc100000000000000000000000000000000000000000000000000000000000001c9c3800000000000000000000000006789e51196ea26a159c992b70cc80453ca6e381a000000000000000000000000000000000000000000000000000000000000018000000000000000000000000000000000000000000000000000000000000000000000000000000000000000000000000000000000000000000000000000000020000000000000000000000000980b62da83eff3d4576c647993b0c1d7faf17c730000000000000000000000000000000000000000000000000000000000000020000000000000000000000000b893e3334d4bd6c5ba8277fd559e99ed683a9fc7",
        "1771743402"
      ],
      "transaction": {
        "from": "0x6789e51196ea26a159c992b70cc80453ca6e381a",
        "to": "0xac631556d3d4019c95769033b5e719dd77124bac",
        "gas": "0x53015",
        "value": "0x0",
        "input": "0xdd46508f000000000000000000000000000000000000000000000000000000000000004000000000000000000000000000000000000000000000000000000000699aa8aa00000000000000000000000000000000000000000000000000000000000003400000000000000000000000000000000000000000000000000000000000000040000000000000000000000000000000000000000000000000000000000000008000000000000000000000000000000000000000000000000000000000000000030212120000000000000000000000000000000000000000000000000000000000000000000000000000000000000000000000000000000000000000000000000300000000000000000000000000000000000000000000000000000000000000600000000000000000000000000000000000000000000000000000000000000220000000000000000000000000000000000000000000000000000000000000026000000000000000000000000000000000000000000000000000000000000001a0000000000000000000000000980b62da83eff3d4576c647993b0c1d7faf17c73000000000000000000000000b893e3334d4bd6c5ba8277fd559e99ed683a9fc70000000000000000000000000000000000000000000000000000000000000bb8000000000000000000000000000000000000000000000000000000000000003c00000000000000000000000051ed077265dc54b2afdbf26181b48f7314b44a40fffffffffffffffffffffffffffffffffffffffffffffffffffffffffffcee24fffffffffffffffffffffffffffffffffffffffffffffffffffffffffffd0918000000000000000000000000000000000000000000000000000002ba7def3000000000000000000000000000000000000000000000000000002386f26fc100000000000000000000000000000000000000000000000000000000000001c9c3800000000000000000000000006789e51196ea26a159c992b70cc80453ca6e381a000000000000000000000000000000000000000000000000000000000000018000000000000000000000000000000000000000000000000000000000000000000000000000000000000000000000000000000000000000000000000000000020000000000000000000000000980b62da83eff3d4576c647993b0c1d7faf17c730000000000000000000000000000000000000000000000000000000000000020000000000000000000000000b893e3334d4bd6c5ba8277fd559e99ed683a9fc7",
        "nonce": "0x28",
        "chainId": "0x66eee"
      },
      "additionalContracts": [],
      "isFixedGasLimit": false
    }
  ],
  "receipts": [
    {
      "status": "0x1",
      "cumulativeGasUsed": "0x8f3c",
      "logs": [
        {
          "address": "0x980b62da83eff3d4576c647993b0c1d7faf17c73",
          "topics": [
            "0x8c5be1e5ebec7d5bd14f71427d1e84f3dd0314c0f7b2291e5b200ac8c7c3b925",
            "0x0000000000000000000000006789e51196ea26a159c992b70cc80453ca6e381a",
            "0x000000000000000000000000000000000022d473030f116ddee9f6b43ac78ba3"
          ],
          "data": "0xffffffffffffffffffffffffffffffffffffffffffffffffffffffffffffffff",
          "blockHash": "0xf67aa996ed471a65a75a4cd418174cae68139ead5e53f8dc9a455c3c50be737c",
          "blockNumber": "0xe925d0d",
          "blockTimestamp": "0x699aa7a3",
          "transactionHash": "0x3c03a9ebc1fc80bd71532102c4ef3e957aa520e7d8fbb8bbea6aef4b9a61924e",
          "transactionIndex": "0x1",
          "logIndex": "0x0",
          "removed": false
        }
      ],
      "logsBloom": "0x00000000000000000000000000000000000000000000000040000a00000000000000000000000000000000000000000000000000800000000000000000200000000000000000000000004000100000000040000000000800000000000000000000000000000000000000000000000000000000000000000000000000000000000000000000000000000000000000000000000000000000000000000000000000020000000000000000000000000000000000000000000000000000000000000000000000000000004000000000000000000000000000000000000000000000000010000000000000000000000000000000000000000000000000000000000000",
      "type": "0x2",
      "transactionHash": "0x3c03a9ebc1fc80bd71532102c4ef3e957aa520e7d8fbb8bbea6aef4b9a61924e",
      "transactionIndex": "0x1",
      "blockHash": "0xf67aa996ed471a65a75a4cd418174cae68139ead5e53f8dc9a455c3c50be737c",
      "blockNumber": "0xe925d0d",
      "gasUsed": "0x8f3c",
      "effectiveGasPrice": "0x1312d00",
      "from": "0x6789e51196ea26a159c992b70cc80453ca6e381a",
      "to": "0x980b62da83eff3d4576c647993b0c1d7faf17c73",
      "contractAddress": null,
      "gasUsedForL1": "0x0",
      "l1BlockNumber": "0x9d5838",
      "timeboosted": false
    },
    {
      "status": "0x1",
      "cumulativeGasUsed": "0x3ff60",
      "logs": [
        {
          "address": "0xb893e3334d4bd6c5ba8277fd559e99ed683a9fc7",
          "topics": [
            "0x8c5be1e5ebec7d5bd14f71427d1e84f3dd0314c0f7b2291e5b200ac8c7c3b925",
            "0x0000000000000000000000006789e51196ea26a159c992b70cc80453ca6e381a",
            "0x000000000000000000000000000000000022d473030f116ddee9f6b43ac78ba3"
          ],
          "data": "0xffffffffffffffffffffffffffffffffffffffffffffffffffffffffffffffff",
          "blockHash": "0xbb1e77dff3d7a5811205b43871e1c6d0d7f97f3e14147827870e52a3a5ed6e9e",
          "blockNumber": "0xe925d14",
          "blockTimestamp": "0x699aa7a5",
          "transactionHash": "0x125bf31ea588cc9b6df660e15ccea389daf5185c8318c5b9a8aa224908faeba5",
          "transactionIndex": "0x2",
          "logIndex": "0x5",
          "removed": false
        }
      ],
      "logsBloom": "0x00000000000000000000000000000000000000000000000040000200000000000000000000000000000000000000000000000000800000000000000000200000000000000000000000004000000000000040000000000800000000000000000000000000000000000000000000000000000002000000000000000000000000000000000000000000000080000000000000000000000000000000000000000000020000000000000000000000000000000000000000000000000000000000000000000000000000000000000000000000000000000000000000000000000000000010000400000000000000000000000000000000000000000000000000000000",
      "type": "0x2",
      "transactionHash": "0x125bf31ea588cc9b6df660e15ccea389daf5185c8318c5b9a8aa224908faeba5",
      "transactionIndex": "0x2",
      "blockHash": "0xbb1e77dff3d7a5811205b43871e1c6d0d7f97f3e14147827870e52a3a5ed6e9e",
      "blockNumber": "0xe925d14",
      "gasUsed": "0x7272",
      "effectiveGasPrice": "0x1314470",
      "from": "0x6789e51196ea26a159c992b70cc80453ca6e381a",
      "to": "0xb893e3334d4bd6c5ba8277fd559e99ed683a9fc7",
      "contractAddress": null,
      "gasUsedForL1": "0x0",
      "l1BlockNumber": "0x9d5838",
      "timeboosted": false
    },
    {
      "status": "0x1",
      "cumulativeGasUsed": "0x6d0e",
      "logs": [
        {
          "address": "0x000000000022d473030f116ddee9f6b43ac78ba3",
          "topics": [
            "0xda9fa7c1b00402c17d0161b249b1ab8bbec047c5a52207b9c112deffd817036b",
            "0x0000000000000000000000006789e51196ea26a159c992b70cc80453ca6e381a",
            "0x000000000000000000000000980b62da83eff3d4576c647993b0c1d7faf17c73",
            "0x000000000000000000000000ac631556d3d4019c95769033b5e719dd77124bac"
          ],
          "data": "0x000000000000000000000000ffffffffffffffffffffffffffffffffffffffff0000000000000000000000000000000000000000000000000000ffffffffffff",
          "blockHash": "0xcf60cec310880ebcadc3e0644595b84e80e7c312d9348e262d01b68e4034aceb",
          "blockNumber": "0xe925d1a",
          "blockTimestamp": "0x699aa7a8",
          "transactionHash": "0x9a5cdf8c2e23cb7683e89933a45d5790dff651bc5236bac3f8cd79772640b7c3",
          "transactionIndex": "0x1",
          "logIndex": "0x0",
          "removed": false
        }
      ],
      "logsBloom": "0x00010000000000000000000000000000000000000000000040000200000000000000000000000000100000000000000000000000000000000000000000080000000020000020000000000000000000000040000000000000000000000000000000020000000000000000000000000000000000000000000000000000000000000020000000000000000000000000000000000000000000000000000000000000000000000000000000000000000000000000000000000000000000080000000000000000000000000000010200000000000000000000000040000000000000000000000000000000000000000000000000000000000000000000000000000400",
      "type": "0x2",
      "transactionHash": "0x9a5cdf8c2e23cb7683e89933a45d5790dff651bc5236bac3f8cd79772640b7c3",
      "transactionIndex": "0x1",
      "blockHash": "0xcf60cec310880ebcadc3e0644595b84e80e7c312d9348e262d01b68e4034aceb",
      "blockNumber": "0xe925d1a",
      "gasUsed": "0x6d0e",
      "effectiveGasPrice": "0x1314470",
      "from": "0x6789e51196ea26a159c992b70cc80453ca6e381a",
      "to": "0x000000000022d473030f116ddee9f6b43ac78ba3",
      "contractAddress": null,
      "gasUsedForL1": "0x0",
      "l1BlockNumber": "0x9d5838",
      "timeboosted": false
    },
    {
      "status": "0x1",
      "cumulativeGasUsed": "0x6d0e",
      "logs": [
        {
          "address": "0x000000000022d473030f116ddee9f6b43ac78ba3",
          "topics": [
            "0xda9fa7c1b00402c17d0161b249b1ab8bbec047c5a52207b9c112deffd817036b",
            "0x0000000000000000000000006789e51196ea26a159c992b70cc80453ca6e381a",
            "0x000000000000000000000000b893e3334d4bd6c5ba8277fd559e99ed683a9fc7",
            "0x000000000000000000000000ac631556d3d4019c95769033b5e719dd77124bac"
          ],
          "data": "0x000000000000000000000000ffffffffffffffffffffffffffffffffffffffff0000000000000000000000000000000000000000000000000000ffffffffffff",
          "blockHash": "0x8ad01e3d82e51535ec5e380ae315554fa4b77d7d45e45736d5896fd5a16d0fdf",
          "blockNumber": "0xe925d20",
          "blockTimestamp": "0x699aa7ab",
          "transactionHash": "0x09f176999b0b25803bac7947fe0948a5a661643a2b24bfbdb1c808e7c0472076",
          "transactionIndex": "0x1",
          "logIndex": "0x0",
          "removed": false
        }
      ],
      "logsBloom": "0x00010000000000000000000000000000000000000000000040000200000000000000000000000000100000000000000000000000000000000000000000080000000000000020000000000000000000000040000000000000000000000000000000000000000000000000000000000000040000000000000000000000000000000020000000000000000000000000000000000000000000000000000000000000000000000000000000000000000000000000000000000000000000080000000000000000000000000000010000000000000000000000000040000000000000000000000000000000000000000000000000000000004000200000000000000400",
      "type": "0x2",
      "transactionHash": "0x09f176999b0b25803bac7947fe0948a5a661643a2b24bfbdb1c808e7c0472076",
      "transactionIndex": "0x1",
      "blockHash": "0x8ad01e3d82e51535ec5e380ae315554fa4b77d7d45e45736d5896fd5a16d0fdf",
      "blockNumber": "0xe925d20",
      "gasUsed": "0x6d0e",
      "effectiveGasPrice": "0x1315be0",
      "from": "0x6789e51196ea26a159c992b70cc80453ca6e381a",
      "to": "0x000000000022d473030f116ddee9f6b43ac78ba3",
      "contractAddress": null,
      "gasUsedForL1": "0x0",
      "l1BlockNumber": "0x9d5839",
      "timeboosted": false
    },
    {
      "status": "0x1",
      "cumulativeGasUsed": "0x3e4a8",
      "logs": [
        {
          "address": "0xac631556d3d4019c95769033b5e719dd77124bac",
          "topics": [
            "0xddf252ad1be2c89b69c2b068fc378daa952ba7f163c4a11628f55a4df523b3ef",
            "0x0000000000000000000000000000000000000000000000000000000000000000",
            "0x0000000000000000000000006789e51196ea26a159c992b70cc80453ca6e381a",
            "0x00000000000000000000000000000000000000000000000000000000000000ed"
          ],
          "data": "0x",
          "blockHash": "0xb8178770383429c32d845c6f333abb2373c77df5bdd803a8792509bbf6c08e1c",
          "blockNumber": "0xe925d27",
          "blockTimestamp": "0x699aa7ae",
          "transactionHash": "0x86f3f03daf797721630d0a8f0c44fe4b171d3dd1c251b1531ad5a0bca307e79b",
          "transactionIndex": "0x1",
          "logIndex": "0x0",
          "removed": false
        },
        {
          "address": "0xfb3e0c6f74eb1a21cc1da29aec80d2dfe6c9a317",
          "topics": [
            "0xf208f4912782fd25c7f114ca3723a2d5dd6f3bcc3ac8db5af63baa85f711d5ec",
            "0x08f0aa16861abbc231031678ba2326eaf4c0b74b8f1fced53940c99dcb5a1ba2",
            "0x000000000000000000000000ac631556d3d4019c95769033b5e719dd77124bac"
          ],
          "data": "0xfffffffffffffffffffffffffffffffffffffffffffffffffffffffffffcee24fffffffffffffffffffffffffffffffffffffffffffffffffffffffffffd0918000000000000000000000000000000000000000000000000000002ba7def300000000000000000000000000000000000000000000000000000000000000000ed",
          "blockHash": "0xb8178770383429c32d845c6f333abb2373c77df5bdd803a8792509bbf6c08e1c",
          "blockNumber": "0xe925d27",
          "blockTimestamp": "0x699aa7ae",
          "transactionHash": "0x86f3f03daf797721630d0a8f0c44fe4b171d3dd1c251b1531ad5a0bca307e79b",
          "transactionIndex": "0x1",
          "logIndex": "0x1",
          "removed": false
        },
        {
          "address": "0x980b62da83eff3d4576c647993b0c1d7faf17c73",
          "topics": [
            "0xddf252ad1be2c89b69c2b068fc378daa952ba7f163c4a11628f55a4df523b3ef",
            "0x0000000000000000000000006789e51196ea26a159c992b70cc80453ca6e381a",
            "0x000000000000000000000000fb3e0c6f74eb1a21cc1da29aec80d2dfe6c9a317"
          ],
          "data": "0x000000000000000000000000000000000000000000000000001effcf4b5b92a6",
          "blockHash": "0xb8178770383429c32d845c6f333abb2373c77df5bdd803a8792509bbf6c08e1c",
          "blockNumber": "0xe925d27",
          "blockTimestamp": "0x699aa7ae",
          "transactionHash": "0x86f3f03daf797721630d0a8f0c44fe4b171d3dd1c251b1531ad5a0bca307e79b",
          "transactionIndex": "0x1",
          "logIndex": "0x2",
          "removed": false
        },
        {
          "address": "0x980b62da83eff3d4576c647993b0c1d7faf17c73",
          "topics": [
            "0x8c5be1e5ebec7d5bd14f71427d1e84f3dd0314c0f7b2291e5b200ac8c7c3b925",
            "0x0000000000000000000000006789e51196ea26a159c992b70cc80453ca6e381a",
            "0x000000000000000000000000000000000022d473030f116ddee9f6b43ac78ba3"
          ],
          "data": "0xffffffffffffffffffffffffffffffffffffffffffffffffffe10030b4a46d59",
          "blockHash": "0xb8178770383429c32d845c6f333abb2373c77df5bdd803a8792509bbf6c08e1c",
          "blockNumber": "0xe925d27",
          "blockTimestamp": "0x699aa7ae",
          "transactionHash": "0x86f3f03daf797721630d0a8f0c44fe4b171d3dd1c251b1531ad5a0bca307e79b",
          "transactionIndex": "0x1",
          "logIndex": "0x3",
          "removed": false
        },
        {
          "address": "0xb893e3334d4bd6c5ba8277fd559e99ed683a9fc7",
          "topics": [
            "0xddf252ad1be2c89b69c2b068fc378daa952ba7f163c4a11628f55a4df523b3ef",
            "0x0000000000000000000000006789e51196ea26a159c992b70cc80453ca6e381a",
            "0x000000000000000000000000fb3e0c6f74eb1a21cc1da29aec80d2dfe6c9a317"
          ],
          "data": "0x0000000000000000000000000000000000000000000000000000000001899b5b",
          "blockHash": "0xb8178770383429c32d845c6f333abb2373c77df5bdd803a8792509bbf6c08e1c",
          "blockNumber": "0xe925d27",
          "blockTimestamp": "0x699aa7ae",
          "transactionHash": "0x86f3f03daf797721630d0a8f0c44fe4b171d3dd1c251b1531ad5a0bca307e79b",
          "transactionIndex": "0x1",
          "logIndex": "0x4",
          "removed": false
        },
        {
          "address": "0xb893e3334d4bd6c5ba8277fd559e99ed683a9fc7",
          "topics": [
            "0x8c5be1e5ebec7d5bd14f71427d1e84f3dd0314c0f7b2291e5b200ac8c7c3b925",
            "0x0000000000000000000000006789e51196ea26a159c992b70cc80453ca6e381a",
            "0x000000000000000000000000000000000022d473030f116ddee9f6b43ac78ba3"
          ],
          "data": "0xfffffffffffffffffffffffffffffffffffffffffffffffffffffffffe7664a4",
          "blockHash": "0xb8178770383429c32d845c6f333abb2373c77df5bdd803a8792509bbf6c08e1c",
          "blockNumber": "0xe925d27",
          "blockTimestamp": "0x699aa7ae",
          "transactionHash": "0x86f3f03daf797721630d0a8f0c44fe4b171d3dd1c251b1531ad5a0bca307e79b",
          "transactionIndex": "0x1",
          "logIndex": "0x5",
          "removed": false
        }
      ],
      "logsBloom": "0x000000400000000000000000000000080000000000a0100040000a00000000000000000000000000100000000000000000000000800000000000000000200040000000000020000000004008100000000040000000000800000000000000001000000000020400000000000000080800000002000000000000000010000000000000000001000000000080000000000000000000000000000000000000000000020004200004000000000000000000000800000000000000000000000000000000000002000000004000010000000000000000000000000000000000000020000010000400000000400000020000000004000000000000000000000000000004",
      "type": "0x2",
      "transactionHash": "0x86f3f03daf797721630d0a8f0c44fe4b171d3dd1c251b1531ad5a0bca307e79b",
      "transactionIndex": "0x1",
      "blockHash": "0xb8178770383429c32d845c6f333abb2373c77df5bdd803a8792509bbf6c08e1c",
      "blockNumber": "0xe925d27",
      "gasUsed": "0x3e4a8",
      "effectiveGasPrice": "0x1312d00",
      "from": "0x6789e51196ea26a159c992b70cc80453ca6e381a",
      "to": "0xac631556d3d4019c95769033b5e719dd77124bac",
      "contractAddress": null,
      "gasUsedForL1": "0x0",
      "l1BlockNumber": "0x9d5839",
      "timeboosted": false
    }
  ],
  "libraries": [],
  "pending": [],
  "returns": {},
  "timestamp": 1771743151,
  "chain": 421614,
  "commit": "5b7f00d"
}