{
  "transactions": [
    {
      "hash": "0x99c72ab3f9ad2e495efc5d257f59e6bad00b52b02e42d940e20cff81c1f21692",
      "transactionType": "CALL",
      "contractName": null,
      "contractAddress": "0x980b62da83eff3d4576c647993b0c1d7faf17c73",
      "function": "approve(address,uint256)",
      "arguments": [
        "0x000000000022D473030F116dDEE9F6B43aC78BA3",
        "115792089237316195423570985008687907853269984665640564039457584007913129639935"
      ],
      "transaction": {
        "from": "0x6789e51196ea26a159c992b70cc80453ca6e381a",
        "to": "0x980b62da83eff3d4576c647993b0c1d7faf17c73",
        "gas": "0xbc0c",
        "value": "0x0",
        "input": "0x095ea7b3000000000000000000000000000000000022d473030f116ddee9f6b43ac78ba3ffffffffffffffffffffffffffffffffffffffffffffffffffffffffffffffff",
        "nonce": "0x1e",
        "chainId": "0x66eee"
      },
      "additionalContracts": [],
      "isFixedGasLimit": false
    },
    {
      "hash": "0x9b4ba2f2cd27c49a7a398425c7658582f967567c407c4f283788085b4db9d848",
      "transactionType": "CALL",
      "contractName": null,
      "contractAddress": "0xb893e3334d4bd6c5ba8277fd559e99ed683a9fc7",
      "function": "approve(address,uint256)",
      "arguments": [
        "0x000000000022D473030F116dDEE9F6B43aC78BA3",
        "115792089237316195423570985008687907853269984665640564039457584007913129639935"
      ],
      "transaction": {
        "from": "0x6789e51196ea26a159c992b70cc80453ca6e381a",
        "to": "0xb893e3334d4bd6c5ba8277fd559e99ed683a9fc7",
        "gas": "0x968d",
        "value": "0x0",
        "input": "0x095ea7b3000000000000000000000000000000000022d473030f116ddee9f6b43ac78ba3ffffffffffffffffffffffffffffffffffffffffffffffffffffffffffffffff",
        "nonce": "0x1f",
        "chainId": "0x66eee"
      },
      "additionalContracts": [],
      "isFixedGasLimit": false
    },
    {
      "hash": "0x0961f05ae0f814074faeb7a1e8277f6ef283d367d9131d70ce807e0d560ffcc2",
      "transactionType": "CALL",
      "contractName": null,
      "contractAddress": "0x000000000022d473030f116ddee9f6b43ac78ba3",
      "function": "approve(address,address,uint160,uint48)",
      "arguments": [
        "0x980B62Da83eFf3D4576C647993b0c1D7faf17c73",
        "0xAc631556d3d4019C95769033B5E719dD77124BAc",
        "1461501637330902918203684832716283019655932542975",
        "281474976710655"
      ],
      "transaction": {
        "from": "0x6789e51196ea26a159c992b70cc80453ca6e381a",
        "to": "0x000000000022d473030f116ddee9f6b43ac78ba3",
        "gas": "0x8f87",
        "value": "0x0",
        "input": "0x87517c45000000000000000000000000980b62da83eff3d4576c647993b0c1d7faf17c73000000000000000000000000ac631556d3d4019c95769033b5e719dd77124bac000000000000000000000000ffffffffffffffffffffffffffffffffffffffff0000000000000000000000000000000000000000000000000000ffffffffffff",
        "nonce": "0x20",
        "chainId": "0x66eee"
      },
      "additionalContracts": [],
      "isFixedGasLimit": false
    },
    {
      "hash": "0xbba3cc64f8eb8b2856ffba38e4e665f3584177d36747d29ca1186178e873e607",
      "transactionType": "CALL",
      "contractName": null,
      "contractAddress": "0x000000000022d473030f116ddee9f6b43ac78ba3",
      "function": "approve(address,address,uint160,uint48)",
      "arguments": [
        "0xb893E3334D4Bd6C5ba8277Fd559e99Ed683A9FC7",
        "0xAc631556d3d4019C95769033B5E719dD77124BAc",
        "1461501637330902918203684832716283019655932542975",
        "281474976710655"
      ],
      "transaction": {
        "from": "0x6789e51196ea26a159c992b70cc80453ca6e381a",
        "to": "0x000000000022d473030f116ddee9f6b43ac78ba3",
        "gas": "0x8f87",
        "value": "0x0",
        "input": "0x87517c45000000000000000000000000b893e3334d4bd6c5ba8277fd559e99ed683a9fc7000000000000000000000000ac631556d3d4019c95769033b5e719dd77124bac000000000000000000000000ffffffffffffffffffffffffffffffffffffffff0000000000000000000000000000000000000000000000000000ffffffffffff",
        "nonce": "0x21",
        "chainId": "0x66eee"
      },
      "additionalContracts": [],
      "isFixedGasLimit": false
    },
    {
      "hash": "0xf14cdb156b0f9acd42cd03412e54fd409e87d5500dd492e661708fae722fa4e0",
      "transactionType": "CALL",
      "contractName": null,
      "contractAddress": "0xac631556d3d4019c95769033b5e719dd77124bac",
      "function": "modifyLiquidities(bytes,uint256)",
      "arguments": [
        "0x0000000000000000000000000000000000000000000000000000000000000040000000000000000000000000000000000000000000000000000000000000008000000000000000000000000000000000000000000000000000000000000000030212120000000000000000000000000000000000000000000000000000000000000000000000000000000000000000000000000000000000000000000000000300000000000000000000000000000000000000000000000000000000000000600000000000000000000000000000000000000000000000000000000000000220000000000000000000000000000000000000000000000000000000000000026000000000000000000000000000000000000000000000000000000000000001a0000000000000000000000000980b62da83eff3d4576c647993b0c1d7faf17c73000000000000000000000000b893e3334d4bd6c5ba8277fd559e99ed683a9fc70000000000000000000000000000000000000000000000000000000000000bb8000000000000000000000000000000000000000000000000000000000000003c00000000000000000000000051ed077265dc54b2afdbf26181b48f7314b44a40fffffffffffffffffffffffffffffffffffffffffffffffffffffffffffcee24fffffffffffffffffffffffffffffffffffffffffffffffffffffffffffd0918000000000000000000000000000000000000000000000000000001d1a94a2000000000000000000000000000000000000000000000000000001550f7dca700000000000000000000000000000000000000000000000000000000000001312d000000000000000000000000006789e51196ea26a159c992b70cc80453ca6e381a000000000000000000000000000000000000000000000000000000000000018000000000000000000000000000000000000000000000000000000000000000000000000000000000000000000000000000000000000000000000000000000020000000000000000000000000980b62da83eff3d4576c647993b0c1d7faf17c730000000000000000000000000000000000000000000000000000000000000020000000000000000000000000b893e3334d4bd6c5ba8277fd559e99ed683a9fc7",
        "1771743142"
      ],
      "transaction": {
        "from": "0x6789e51196ea26a159c992b70cc80453ca6e381a",
        "to": "0xac631556d3d4019c95769033b5e719dd77124bac",
        "gas": "0x53005",
        "value": "0x0",
        "input": "0xdd46508f000000000000000000000000000000000000000000000000000000000000004000000000000000000000000000000000000000000000000000000000699aa7a600000000000000000000000000000000000000000000000000000000000003400000000000000000000000000000000000000000000000000000000000000040000000000000000000000000000000000000000000000000000000000000008000000000000000000000000000000000000000000000000000000000000000030212120000000000000000000000000000000000000000000000000000000000000000000000000000000000000000000000000000000000000000000000000300000000000000000000000000000000000000000000000000000000000000600000000000000000000000000000000000000000000000000000000000000220000000000000000000000000000000000000000000000000000000000000026000000000000000000000000000000000000000000000000000000000000001a0000000000000000000000000980b62da83eff3d4576c647993b0c1d7faf17c73000000000000000000000000b893e3334d4bd6c5ba8277fd559e99ed683a9fc70000000000000000000000000000000000000000000000000000000000000bb8000000000000000000000000000000000000000000000000000000000000003c00000000000000000000000051ed077265dc54b2afdbf26181b48f7314b44a40fffffffffffffffffffffffffffffffffffffffffffffffffffffffffffcee24fffffffffffffffffffffffffffffffffffffffffffffffffffffffffffd0918000000000000000000000000000000000000000000000000000001d1a94a2000000000000000000000000000000000000000000000000000001550f7dca700000000000000000000000000000000000000000000000000000000000001312d000000000000000000000000006789e51196ea26a159c992b70cc80453ca6e381a000000000000000000000000000000000000000000000000000000000000018000000000000000000000000000000000000000000000000000000000000000000000000000000000000000000000000000000000000000000000000000000020000000000000000000000000980b62da83eff3d4576c647993b0c1d7faf17c730000000000000000000000000000000000000000000000000000000000000020000000000000000000000000b893e3334d4bd6c5ba8277fd559e99ed683a9fc7",
        "nonce": "0x22",
        "chainId": "0x66eee"
      },
      "additionalContracts": [],
      "isFixedGasLimit": false
    }
  ],
  "receipts": [
    {
      "status": "0x1",
      "cumulativeGasUsed": "0x8f3c",
      "logs": [
        {
          "address": "0x980b62da83eff3d4576c647993b0c1d7faf17c73",
          "topics": [
            "0x8c5be1e5ebec7d5bd14f71427d1e84f3dd0314c0f7b2291e5b200ac8c7c3b925",
            "0x0000000000000000000000006789e51196ea26a159c992b70cc80453ca6e381a",
            "0x000000000000000000000000000000000022d473030f116ddee9f6b43ac78ba3"
          ],
          "data": "0xffffffffffffffffffffffffffffffffffffffffffffffffffffffffffffffff",
          "blockHash": "0xbb442429bdcf761e1028dc8e6ff994fe42c94752bffef893ff2fb400d6d52f4f",
          "blockNumber": "0xe925b1d",
          "blockTimestamp": "0x699aa68f",
          "transactionHash": "0x99c72ab3f9ad2e495efc5d257f59e6bad00b52b02e42d940e20cff81c1f21692",
          "transactionIndex": "0x1",
          "logIndex": "0x0",
          "removed": false
        }
      ],
      "logsBloom": "0x00000000000000000000000000000000000000000000000040000a00000000000000000000000000000000000000000000000000800000000000000000200000000000000000000000004000100000000040000000000800000000000000000000000000000000000000000000000000000000000000000000000000000000000000000000000000000000000000000000000000000000000000000000000000020000000000000000000000000000000000000000000000000000000000000000000000000000004000000000000000000000000000000000000000000000000010000000000000000000000000000000000000000000000000000000000000",
      "type": "0x2",
      "transactionHash": "0x99c72ab3f9ad2e495efc5d257f59e6bad00b52b02e42d940e20cff81c1f21692",
      "transactionIndex": "0x1",
      "blockHash": "0xbb442429bdcf761e1028dc8e6ff994fe42c94752bffef893ff2fb400d6d52f4f",
      "blockNumber": "0xe925b1d",
      "gasUsed": "0x8f3c",
      "effectiveGasPrice": "0x13134d0",
      "from": "0x6789e51196ea26a159c992b70cc80453ca6e381a",
      "to": "0x980b62da83eff3d4576c647993b0c1d7faf17c73",
      "contractAddress": null,
      "gasUsedForL1": "0x0",
      "l1BlockNumber": "0x9d5824",
      "timeboosted": false
    },
    {
      "status": "0x1",
      "cumulativeGasUsed": "0x7272",
      "logs": [
        {
          "address": "0xb893e3334d4bd6c5ba8277fd559e99ed683a9fc7",
          "topics": [
            "0x8c5be1e5ebec7d5bd14f71427d1e84f3dd0314c0f7b2291e5b200ac8c7c3b925",
            "0x0000000000000000000000006789e51196ea26a159c992b70cc80453ca6e381a",
            "0x000000000000000000000000000000000022d473030f116ddee9f6b43ac78ba3"
          ],
          "data": "0xffffffffffffffffffffffffffffffffffffffffffffffffffffffffffffffff",
          "blockHash": "0xc28439dd7ef5a5255667893cf8fdf4345b307f741d7acdfab01b0b3a7fc34b7e",
          "blockNumber": "0xe925b22",
          "blockTimestamp": "0x699aa692",
          "transactionHash": "0x9b4ba2f2cd27c49a7a398425c7658582f967567c407c4f283788085b4db9d848",
          "transactionIndex": "0x1",
          "logIndex": "0x0",
          "removed": false
        }
      ],
      "logsBloom": "0x00000000000000000000000000000000000000000000000040000200000000000000000000000000000000000000000000000000800000000000000000200000000000000000000000004000000000000040000000000800000000000000000000000000000000000000000000000000000002000000000000000000000000000000000000000000000080000000000000000000000000000000000000000000020000000000000000000000000000000000000000000000000000000000000000000000000000000000000000000000000000000000000000000000000000000010000400000000000000000000000000000000000000000000000000000000",
      "type": "0x2",
      "transactionHash": "0x9b4ba2f2cd27c49a7a398425c7658582f967567c407c4f283788085b4db9d848",
      "transactionIndex": "0x1",
      "blockHash": "0xc28439dd7ef5a5255667893cf8fdf4345b307f741d7acdfab01b0b3a7fc34b7e",
      "blockNumber": "0xe925b22",
      "gasUsed": "0x7272",
      "effectiveGasPrice": "0x13134d0",
      "from": "0x6789e51196ea26a159c992b70cc80453ca6e381a",
      "to": "0xb893e3334d4bd6c5ba8277fd559e99ed683a9fc7",
      "contractAddress": null,
      "gasUsedForL1": "0x0",
      "l1BlockNumber": "0x9d5824",
      "timeboosted": false
    },
    {
      "status": "0x1",
      "cumulativeGasUsed": "0x6d0e",
      "logs": [
        {
          "address": "0x000000000022d473030f116ddee9f6b43ac78ba3",
          "topics": [
            "0xda9fa7c1b00402c17d0161b249b1ab8bbec047c5a52207b9c112deffd817036b",
            "0x0000000000000000000000006789e51196ea26a159c992b70cc80453ca6e381a",
            "0x000000000000000000000000980b62da83eff3d4576c647993b0c1d7faf17c73",
            "0x000000000000000000000000ac631556d3d4019c95769033b5e719dd77124bac"
          ],
          "data": "0x000000000000000000000000ffffffffffffffffffffffffffffffffffffffff0000000000000000000000000000000000000000000000000000ffffffffffff",
          "blockHash": "0x1bf99309cb698005b2a256fcfac0f6411eabd97ee18c7000dfbeb9286a339099",
          "blockNumber": "0xe925b25",
          "blockTimestamp": "0x699aa695",
          "transactionHash": "0x0961f05ae0f814074faeb7a1e8277f6ef283d367d9131d70ce807e0d560ffcc2",
          "transactionIndex": "0x1",
          "logIndex": "0x0",
          "removed": false
        }
      ],
      "logsBloom": "0x00010000000000000000000000000000000000000000000040000200000000000000000000000000100000000000000000000000000000000000000000080000000020000020000000000000000000000040000000000000000000000000000000020000000000000000000000000000000000000000000000000000000000000020000000000000000000000000000000000000000000000000000000000000000000000000000000000000000000000000000000000000000000080000000000000000000000000000010200000000000000000000000040000000000000000000000000000000000000000000000000000000000000000000000000000400",
      "type": "0x2",
      "transactionHash": "0x0961f05ae0f814074faeb7a1e8277f6ef283d367d9131d70ce807e0d560ffcc2",
      "transactionIndex": "0x1",
      "blockHash": "0x1bf99309cb698005b2a256fcfac0f6411eabd97ee18c7000dfbeb9286a339099",
      "blockNumber": "0xe925b25",
      "gasUsed": "0x6d0e",
      "effectiveGasPrice": "0x1313ca0",
      "from": "0x6789e51196ea26a159c992b70cc80453ca6e381a",
      "to": "0x000000000022d473030f116ddee9f6b43ac78ba3",
      "contractAddress": null,
      "gasUsedForL1": "0x0",
      "l1BlockNumber": "0x9d5824",
      "timeboosted": false
    },
    {
      "status": "0x1",
      "cumulativeGasUsed": "0x6d0e",
      "logs": [
        {
          "address": "0x000000000022d473030f116ddee9f6b43ac78ba3",
          "topics": [
            "0xda9fa7c1b00402c17d0161b249b1ab8bbec047c5a52207b9c112deffd817036b",
            "0x0000000000000000000000006789e51196ea26a159c992b70cc80453ca6e381a",
            "0x000000000000000000000000b893e3334d4bd6c5ba8277fd559e99ed683a9fc7",
            "0x000000000000000000000000ac631556d3d4019c95769033b5e719dd77124bac"
          ],
          "data": "0x000000000000000000000000ffffffffffffffffffffffffffffffffffffffff0000000000000000000000000000000000000000000000000000ffffffffffff",
          "blockHash": "0xb0f62b74e8396796cf1b8bbb9ed48ebcd913e550bf0c090b58b40b8155e8441b",
          "blockNumber": "0xe925b29",
          "blockTimestamp": "0x699aa699",
          "transactionHash": "0xbba3cc64f8eb8b2856ffba38e4e665f3584177d36747d29ca1186178e873e607",
          "transactionIndex": "0x1",
          "logIndex": "0x0",
          "removed": false
        }
      ],
      "logsBloom": "0x00010000000000000000000000000000000000000000000040000200000000000000000000000000100000000000000000000000000000000000000000080000000000000020000000000000000000000040000000000000000000000000000000000000000000000000000000000000040000000000000000000000000000000020000000000000000000000000000000000000000000000000000000000000000000000000000000000000000000000000000000000000000000080000000000000000000000000000010000000000000000000000000040000000000000000000000000000000000000000000000000000000004000200000000000000400",
      "type": "0x2",
      "transactionHash": "0xbba3cc64f8eb8b2856ffba38e4e665f3584177d36747d29ca1186178e873e607",
      "transactionIndex": "0x1",
      "blockHash": "0xb0f62b74e8396796cf1b8bbb9ed48ebcd913e550bf0c090b58b40b8155e8441b",
      "blockNumber": "0xe925b29",
      "gasUsed": "0x6d0e",
      "effectiveGasPrice": "0x13163b0",
      "from": "0x6789e51196ea26a159c992b70cc80453ca6e381a",
      "to": "0x000000000022d473030f116ddee9f6b43ac78ba3",
      "contractAddress": null,
      "gasUsedForL1": "0x0",
      "l1BlockNumber": "0x9d5824",
      "timeboosted": false
    },
    {
      "status": "0x1",
      "cumulativeGasUsed": "0x3e49c",
      "logs": [
        {
          "address": "0xac631556d3d4019c95769033b5e719dd77124bac",
          "topics": [
            "0xddf252ad1be2c89b69c2b068fc378daa952ba7f163c4a11628f55a4df523b3ef",
            "0x0000000000000000000000000000000000000000000000000000000000000000",
            "0x0000000000000000000000006789e51196ea26a159c992b70cc80453ca6e381a",
            "0x00000000000000000000000000000000000000000000000000000000000000ec"
          ],
          "data": "0x",
          "blockHash": "0xa2000dd7c00b470c0fc9f730a57614748bfa635abd29408512ea483b2bff7eae",
          "blockNumber": "0xe925b2a",
          "blockTimestamp": "0x699aa69c",
          "transactionHash": "0xf14cdb156b0f9acd42cd03412e54fd409e87d5500dd492e661708fae722fa4e0",
          "transactionIndex": "0x1",
          "logIndex": "0x0",
          "removed": false
        },
        {
          "address": "0xfb3e0c6f74eb1a21cc1da29aec80d2dfe6c9a317",
          "topics": [
            "0xf208f4912782fd25c7f114ca3723a2d5dd6f3bcc3ac8db5af63baa85f711d5ec",
            "0x08f0aa16861abbc231031678ba2326eaf4c0b74b8f1fced53940c99dcb5a1ba2",
            "0x000000000000000000000000ac631556d3d4019c95769033b5e719dd77124bac"
          ],
          "data": "0xfffffffffffffffffffffffffffffffffffffffffffffffffffffffffffcee24fffffffffffffffffffffffffffffffffffffffffffffffffffffffffffd0918000000000000000000000000000000000000000000000000000001d1a94a200000000000000000000000000000000000000000000000000000000000000000ec",
          "blockHash": "0xa2000dd7c00b470c0fc9f730a57614748bfa635abd29408512ea483b2bff7eae",
          "blockNumber": "0xe925b2a",
          "blockTimestamp": "0x699aa69c",
          "transactionHash": "0xf14cdb156b0f9acd42cd03412e54fd409e87d5500dd492e661708fae722fa4e0",
          "transactionIndex": "0x1",
          "logIndex": "0x1",
          "removed": false
        },
        {
          "address": "0x980b62da83eff3d4576c647993b0c1d7faf17c73",
          "topics": [
            "0xddf252ad1be2c89b69c2b068fc378daa952ba7f163c4a11628f55a4df523b3ef",
            "0x0000000000000000000000006789e51196ea26a159c992b70cc80453ca6e381a",
            "0x000000000000000000000000fb3e0c6f74eb1a21cc1da29aec80d2dfe6c9a317"
          ],
          "data": "0x0000000000000000000000000000000000000000000000000014aa8a323d0c6f",
          "blockHash": "0xa2000dd7c00b470c0fc9f730a57614748bfa635abd29408512ea483b2bff7eae",
          "blockNumber": "0xe925b2a",
          "blockTimestamp": "0x699aa69c",
          "transactionHash": "0xf14cdb156b0f9acd42cd03412e54fd409e87d5500dd492e661708fae722fa4e0",
          "transactionIndex": "0x1",
          "logIndex": "0x2",
          "removed": false
        },
        {
          "address": "0x980b62da83eff3d4576c647993b0c1d7faf17c73",
          "topics": [
            "0x8c5be1e5ebec7d5bd14f71427d1e84f3dd0314c0f7b2291e5b200ac8c7c3b925",
            "0x0000000000000000000000006789e51196ea26a159c992b70cc80453ca6e381a",
            "0x000000000000000000000000000000000022d473030f116ddee9f6b43ac78ba3"
          ],
          "data": "0xffffffffffffffffffffffffffffffffffffffffffffffffffeb5575cdc2f390",
          "blockHash": "0xa2000dd7c00b470c0fc9f730a57614748bfa635abd29408512ea483b2bff7eae",
          "blockNumber": "0xe925b2a",
          "blockTimestamp": "0x699aa69c",
          "transactionHash": "0xf14cdb156b0f9acd42cd03412e54fd409e87d5500dd492e661708fae722fa4e0",
          "transactionIndex": "0x1",
          "logIndex": "0x3",
          "removed": false
        },
        {
          "address": "0xb893e3334d4bd6c5ba8277fd559e99ed683a9fc7",
          "topics": [
            "0xddf252ad1be2c89b69c2b068fc378daa952ba7f163c4a11628f55a4df523b3ef",
            "0x0000000000000000000000006789e51196ea26a159c992b70cc80453ca6e381a",
            "0x000000000000000000000000fb3e0c6f74eb1a21cc1da29aec80d2dfe6c9a317"
          ],
          "data": "0x0000000000000000000000000000000000000000000000000000000001066792",
          "blockHash": "0xa2000dd7c00b470c0fc9f730a57614748bfa635abd29408512ea483b2bff7eae",
          "blockNumber": "0xe925b2a",
          "blockTimestamp": "0x699aa69c",
          "transactionHash": "0xf14cdb156b0f9acd42cd03412e54fd409e87d5500dd492e661708fae722fa4e0",
          "transactionIndex": "0x1",
          "logIndex": "0x4",
          "removed": false
        },
        {
          "address": "0xb893e3334d4bd6c5ba8277fd559e99ed683a9fc7",
          "topics": [
            "0x8c5be1e5ebec7d5bd14f71427d1e84f3dd0314c0f7b2291e5b200ac8c7c3b925",
            "0x0000000000000000000000006789e51196ea26a159c992b70cc80453ca6e381a",
            "0x000000000000000000000000000000000022d473030f116ddee9f6b43ac78ba3"
          ],
          "data": "0xfffffffffffffffffffffffffffffffffffffffffffffffffffffffffef9986d",
          "blockHash": "0xa2000dd7c00b470c0fc9f730a57614748bfa635abd29408512ea483b2bff7eae",
          "blockNumber": "0xe925b2a",
          "blockTimestamp": "0x699aa69c",
          "transactionHash": "0xf14cdb156b0f9acd42cd03412e54fd409e87d5500dd492e661708fae722fa4e0",
          "transactionIndex": "0x1",
          "logIndex": "0x5",
          "removed": false
        }
      ],
      "logsBloom": "0x000000408000000000000000000000080000000000a0140040000a00000000000000000000000000100000000000000000000000800000000000000000200040000000000020000000004008100000000040000000000800000000000000000000000000020400000000000000080800000002000000000001000010000000000000000001000000000080000000000000000000000000000000000000000000020004200000000000000000000000000800000000000000000000000000000000000002000000004000010000000000000000000000000000000000000020000010000400000000400000000000000004000000000000000000000000000004",
      "type": "0x2",
      "transactionHash": "0xf14cdb156b0f9acd42cd03412e54fd409e87d5500dd492e661708fae722fa4e0",
      "transactionIndex": "0x1",
      "blockHash": "0xa2000dd7c00b470c0fc9f730a57614748bfa635abd29408512ea483b2bff7eae",
      "blockNumber": "0xe925b2a",
      "gasUsed": "0x3e49c",
      "effectiveGasPrice": "0x1312d00",
      "from": "0x6789e51196ea26a159c992b70cc80453ca6e381a",
      "to": "0xac631556d3d4019c95769033b5e719dd77124bac",
      "contractAddress": null,
      "gasUsedForL1": "0x0",
      "l1BlockNumber": "0x9d5825",
      "timeboosted": false
    }
  ],
  "libraries": [],
  "pending": [],
  "returns": {},
  "timestamp": 1771742878,
  "chain": 421614,
  "commit": "5b7f00d"
}