{
  "transactions": [
    {
      "hash": "0x4adf89e39e7154f3215d54018797f3b3d78d2fd5960559994f65d391934b8c36",
      "transactionType": "CALL",
      "contractName": null,
      "contractAddress": "0x980b62da83eff3d4576c647993b0c1d7faf17c73",
      "function": "approve(address,uint256)",
      "arguments": [
        "0x000000000022D473030F116dDEE9F6B43aC78BA3",
        "115792089237316195423570985008687907853269984665640564039457584007913129639935"
      ],
      "transaction": {
        "from": "0x564323ae0d8473103f3763814c5121ca9e48004b",
        "to": "0x980b62da83eff3d4576c647993b0c1d7faf17c73",
        "gas": "0xbc0c",
        "value": "0x0",
        "input": "0x095ea7b3000000000000000000000000000000000022d473030f116ddee9f6b43ac78ba3ffffffffffffffffffffffffffffffffffffffffffffffffffffffffffffffff",
        "nonce": "0x6f",
        "chainId": "0x66eee"
      },
      "additionalContracts": [],
      "isFixedGasLimit": false
    },
    {
      "hash": "0xbf66ea31556aaf48a8167d3974986660dda99bf1ac4e583c08be03e3b3c9c7f3",
      "transactionType": "CALL",
      "contractName": null,
      "contractAddress": "0xb893e3334d4bd6c5ba8277fd559e99ed683a9fc7",
      "function": "approve(address,uint256)",
      "arguments": [
        "0x000000000022D473030F116dDEE9F6B43aC78BA3",
        "115792089237316195423570985008687907853269984665640564039457584007913129639935"
      ],
      "transaction": {
        "from": "0x564323ae0d8473103f3763814c5121ca9e48004b",
        "to": "0xb893e3334d4bd6c5ba8277fd559e99ed683a9fc7",
        "gas": "0x968d",
        "value": "0x0",
        "input": "0x095ea7b3000000000000000000000000000000000022d473030f116ddee9f6b43ac78ba3ffffffffffffffffffffffffffffffffffffffffffffffffffffffffffffffff",
        "nonce": "0x70",
        "chainId": "0x66eee"
      },
      "additionalContracts": [],
      "isFixedGasLimit": false
    },
    {
      "hash": "0xc0a6f6e80be8ef6b3ea6f9de92ed605850d03e558f67fce3022f0e9d8a6acfcb",
      "transactionType": "CALL",
      "contractName": null,
      "contractAddress": "0x000000000022d473030f116ddee9f6b43ac78ba3",
      "function": "approve(address,address,uint160,uint48)",
      "arguments": [
        "0x980B62Da83eFf3D4576C647993b0c1D7faf17c73",
        "0xAc631556d3d4019C95769033B5E719dD77124BAc",
        "1461501637330902918203684832716283019655932542975",
        "281474976710655"
      ],
      "transaction": {
        "from": "0x564323ae0d8473103f3763814c5121ca9e48004b",
        "to": "0x000000000022d473030f116ddee9f6b43ac78ba3",
        "gas": "0x8f87",
        "value": "0x0",
        "input": "0x87517c45000000000000000000000000980b62da83eff3d4576c647993b0c1d7faf17c73000000000000000000000000ac631556d3d4019c95769033b5e719dd77124bac000000000000000000000000ffffffffffffffffffffffffffffffffffffffff0000000000000000000000000000000000000000000000000000ffffffffffff",
        "nonce": "0x71",
        "chainId": "0x66eee"
      },
      "additionalContracts": [],
      "isFixedGasLimit": false
    },
    {
      "hash": "0x4f87bfc006c5f7c7699434015ace59c11f02dc1690fce9970cc64ee2ba8b8fab",
      "transactionType": "CALL",
      "contractName": null,
      "contractAddress": "0x000000000022d473030f116ddee9f6b43ac78ba3",
      "function": "approve(address,address,uint160,uint48)",
      "arguments": [
        "0xb893E3334D4Bd6C5ba8277Fd559e99Ed683A9FC7",
        "0xAc631556d3d4019C95769033B5E719dD77124BAc",
        "1461501637330902918203684832716283019655932542975",
        "281474976710655"
      ],
      "transaction": {
        "from": "0x564323ae0d8473103f3763814c5121ca9e48004b",
        "to": "0x000000000022d473030f116ddee9f6b43ac78ba3",
        "gas": "0x8f87",
        "value": "0x0",
        "input": "0x87517c45000000000000000000000000b893e3334d4bd6c5ba8277fd559e99ed683a9fc7000000000000000000000000ac631556d3d4019c95769033b5e719dd77124bac000000000000000000000000ffffffffffffffffffffffffffffffffffffffff0000000000000000000000000000000000000000000000000000ffffffffffff",
        "nonce": "0x72",
        "chainId": "0x66eee"
      },
      "additionalContracts": [],
      "isFixedGasLimit": false
    },
    {
      "hash": "0xa719734664ed0aa5064b48059eefb0fbbaba81055be899c4a62be3773294d8b1",
      "transactionType": "CALL",
      "contractName": null,
      "contractAddress": "0xac631556d3d4019c95769033b5e719dd77124bac",
      "function": "modifyLiquidities(bytes,uint256)",
      "arguments": [
        "0x0000000000000000000000000000000000000000000000000000000000000040000000000000000000000000000000000000000000000000000000000000008000000000000000000000000000000000000000000000000000000000000000030212120000000000000000000000000000000000000000000000000000000000000000000000000000000000000000000000000000000000000000000000000300000000000000000000000000000000000000000000000000000000000000600000000000000000000000000000000000000000000000000000000000000220000000000000000000000000000000000000000000000000000000000000026000000000000000000000000000000000000000000000000000000000000001a0000000000000000000000000980b62da83eff3d4576c647993b0c1d7faf17c73000000000000000000000000b893e3334d4bd6c5ba8277fd559e99ed683a9fc70000000000000000000000000000000000000000000000000000000000000bb8000000000000000000000000000000000000000000000000000000000000003c00000000000000000000000051ed077265dc54b2afdbf26181b48f7314b44a40fffffffffffffffffffffffffffffffffffffffffffffffffffffffffffcee24fffffffffffffffffffffffffffffffffffffffffffffffffffffffffffd0918000000000000000000000000000000000000000000000000000002ba7def3000000000000000000000000000000000000000000000000000002386f26fc100000000000000000000000000000000000000000000000000000000000001c9c380000000000000000000000000564323ae0d8473103f3763814c5121ca9e48004b000000000000000000000000000000000000000000000000000000000000018000000000000000000000000000000000000000000000000000000000000000000000000000000000000000000000000000000000000000000000000000000020000000000000000000000000980b62da83eff3d4576c647993b0c1d7faf17c730000000000000000000000000000000000000000000000000000000000000020000000000000000000000000b893e3334d4bd6c5ba8277fd559e99ed683a9fc7",
        "1771742394"
      ],
      "transaction": {
        "from": "0x564323ae0d8473103f3763814c5121ca9e48004b",
        "to": "0xac631556d3d4019c95769033b5e719dd77124bac",
        "gas": "0x5883b",
        "value": "0x0",
        "input": "0xdd46508f000000000000000000000000000000000000000000000000000000000000004000000000000000000000000000000000000000000000000000000000699aa4ba00000000000000000000000000000000000000000000000000000000000003400000000000000000000000000000000000000000000000000000000000000040000000000000000000000000000000000000000000000000000000000000008000000000000000000000000000000000000000000000000000000000000000030212120000000000000000000000000000000000000000000000000000000000000000000000000000000000000000000000000000000000000000000000000300000000000000000000000000000000000000000000000000000000000000600000000000000000000000000000000000000000000000000000000000000220000000000000000000000000000000000000000000000000000000000000026000000000000000000000000000000000000000000000000000000000000001a0000000000000000000000000980b62da83eff3d4576c647993b0c1d7faf17c73000000000000000000000000b893e3334d4bd6c5ba8277fd559e99ed683a9fc70000000000000000000000000000000000000000000000000000000000000bb8000000000000000000000000000000000000000000000000000000000000003c00000000000000000000000051ed077265dc54b2afdbf26181b48f7314b44a40fffffffffffffffffffffffffffffffffffffffffffffffffffffffffffcee24fffffffffffffffffffffffffffffffffffffffffffffffffffffffffffd0918000000000000000000000000000000000000000000000000000002ba7def3000000000000000000000000000000000000000000000000000002386f26fc100000000000000000000000000000000000000000000000000000000000001c9c380000000000000000000000000564323ae0d8473103f3763814c5121ca9e48004b000000000000000000000000000000000000000000000000000000000000018000000000000000000000000000000000000000000000000000000000000000000000000000000000000000000000000000000000000000000000000000000020000000000000000000000000980b62da83eff3d4576c647993b0c1d7faf17c730000000000000000000000000000000000000000000000000000000000000020000000000000000000000000b893e3334d4bd6c5ba8277fd559e99ed683a9fc7",
        "nonce": "0x73",
        "chainId": "0x66eee"
      },
      "additionalContracts": [],
      "isFixedGasLimit": false
    }
  ],
  "receipts": [
    {
      "status": "0x1",
      "cumulativeGasUsed": "0x8f3c",
      "logs": [
        {
          "address": "0x980b62da83eff3d4576c647993b0c1d7faf17c73",
          "topics": [
            "0x8c5be1e5ebec7d5bd14f71427d1e84f3dd0314c0f7b2291e5b200ac8c7c3b925",
            "0x000000000000000000000000564323ae0d8473103f3763814c5121ca9e48004b",
            "0x000000000000000000000000000000000022d473030f116ddee9f6b43ac78ba3"
          ],
          "data": "0xffffffffffffffffffffffffffffffffffffffffffffffffffffffffffffffff",
          "blockHash": "0x39061136e4aaabec4d0239a3be65f8d8b3a90a21992306baceccf0bc594a2a36",
          "blockNumber": "0xe925601",
          "blockTimestamp": "0x699aa3a6",
          "transactionHash": "0x4adf89e39e7154f3215d54018797f3b3d78d2fd5960559994f65d391934b8c36",
          "transactionIndex": "0x1",
          "logIndex": "0x0",
          "removed": false
        }
      ],
      "logsBloom": "0x00000000000000000000000000000000000000000000000000000800000000000000000000000000000000000000000000000000800000000000000000200000000000000000000000004000100000000000000000000800000000000000000000000000000000000000000000000000000000000000000000000000000000000000000000000002000000000000000000000000000000000000000000000000020000000000000000000000000000000000000000000000000000000000000002000000000000004000000000000000000000000000000000000000000000000010000000000000000000000000000000000100000000000000000000000000",
      "type": "0x2",
      "transactionHash": "0x4adf89e39e7154f3215d54018797f3b3d78d2fd5960559994f65d391934b8c36",
      "transactionIndex": "0x1",
      "blockHash": "0x39061136e4aaabec4d0239a3be65f8d8b3a90a21992306baceccf0bc594a2a36",
      "blockNumber": "0xe925601",
      "gasUsed": "0x8f3c",
      "effectiveGasPrice": "0x1312d00",
      "from": "0x564323ae0d8473103f3763814c5121ca9e48004b",
      "to": "0x980b62da83eff3d4576c647993b0c1d7faf17c73",
      "contractAddress": null,
      "gasUsedForL1": "0x0",
      "l1BlockNumber": "0x9d57e7",
      "timeboosted": false
    },
    {
      "status": "0x1",
      "cumulativeGasUsed": "0x7272",
      "logs": [
        {
          "address": "0xb893e3334d4bd6c5ba8277fd559e99ed683a9fc7",
          "topics": [
            "0x8c5be1e5ebec7d5bd14f71427d1e84f3dd0314c0f7b2291e5b200ac8c7c3b925",
            "0x000000000000000000000000564323ae0d8473103f3763814c5121ca9e48004b",
            "0x000000000000000000000000000000000022d473030f116ddee9f6b43ac78ba3"
          ],
          "data": "0xffffffffffffffffffffffffffffffffffffffffffffffffffffffffffffffff",
          "blockHash": "0x352923c3b8670144aaeea23019f7844fbf8cd577af9412090eaf5ad0fc926d27",
          "blockNumber": "0xe925606",
          "blockTimestamp": "0x699aa3a7",
          "transactionHash": "0xbf66ea31556aaf48a8167d3974986660dda99bf1ac4e583c08be03e3b3c9c7f3",
          "transactionIndex": "0x1",
          "logIndex": "0x0",
          "removed": false
        }
      ],
      "logsBloom": "0x00000000000000000000000000000000000000000000000000000000000000000000000000000000000000000000000000000000800000000000000000200000000000000000000000004000000000000000000000000800000000000000000000000000000000000000000000000000000002000000000000000000000000000000000000000002000080000000000000000000000000000000000000000000020000000000000000000000000000000000000000000000000000000000000002000000000000000000000000000000000000000000000000000000000000000010000400000000000000000000000000000100000000000000000000000000",
      "type": "0x2",
      "transactionHash": "0xbf66ea31556aaf48a8167d3974986660dda99bf1ac4e583c08be03e3b3c9c7f3",
      "transactionIndex": "0x1",
      "blockHash": "0x352923c3b8670144aaeea23019f7844fbf8cd577af9412090eaf5ad0fc926d27",
      "blockNumber": "0xe925606",
      "gasUsed": "0x7272",
      "effectiveGasPrice": "0x1314470",
      "from": "0x564323ae0d8473103f3763814c5121ca9e48004b",
      "to": "0xb893e3334d4bd6c5ba8277fd559e99ed683a9fc7",
      "contractAddress": null,
      "gasUsedForL1": "0x0",
      "l1BlockNumber": "0x9d57e7",
      "timeboosted": false
    },
    {
      "status": "0x1",
      "cumulativeGasUsed": "0x6d0e",
      "logs": [
        {
          "address": "0x000000000022d473030f116ddee9f6b43ac78ba3",
          "topics": [
            "0xda9fa7c1b00402c17d0161b249b1ab8bbec047c5a52207b9c112deffd817036b",
            "0x000000000000000000000000564323ae0d8473103f3763814c5121ca9e48004b",
            "0x000000000000000000000000980b62da83eff3d4576c647993b0c1d7faf17c73",
            "0x000000000000000000000000ac631556d3d4019c95769033b5e719dd77124bac"
          ],
          "data": "0x000000000000000000000000ffffffffffffffffffffffffffffffffffffffff0000000000000000000000000000000000000000000000000000ffffffffffff",
          "blockHash": "0xdbc926a58b9024a94e85efa1bfa22976f762a74399072228c5c2c676b74a4d09",
          "blockNumber": "0xe92560b",
          "blockTimestamp": "0x699aa3a9",
          "transactionHash": "0xc0a6f6e80be8ef6b3ea6f9de92ed605850d03e558f67fce3022f0e9d8a6acfcb",
          "transactionIndex": "0x1",
          "logIndex": "0x0",
          "removed": false
        }
      ],
      "logsBloom": "0x00010000000000000000000000000000000000000000000000000000000000000000000000000000100000000000000000000000000000000000000000080000000020000020000000000000000000000000000000000000000000000000000000020000000000000000000000000000000000000000000000000000000000000020000000000002000000000000000000000000000000000000000000000000000000000000000000000000000000000000000000000000000000080000000002000000000000000000010200000000000000000000000040000000000000000000000000000000000000000000000000000100000000000000000000000400",
      "type": "0x2",
      "transactionHash": "0xc0a6f6e80be8ef6b3ea6f9de92ed605850d03e558f67fce3022f0e9d8a6acfcb",
      "transactionIndex": "0x1",
      "blockHash": "0xdbc926a58b9024a94e85efa1bfa22976f762a74399072228c5c2c676b74a4d09",
      "blockNumber": "0xe92560b",
      "gasUsed": "0x6d0e",
      "effectiveGasPrice": "0x1312d00",
      "from": "0x564323ae0d8473103f3763814c5121ca9e48004b",
      "to": "0x000000000022d473030f116ddee9f6b43ac78ba3",
      "contractAddress": null,
      "gasUsedForL1": "0x0",
      "l1BlockNumber": "0x9d57e7",
      "timeboosted": false
    },
    {
      "status": "0x1",
      "cumulativeGasUsed": "0x6d0e",
      "logs": [
        {
          "address": "0x000000000022d473030f116ddee9f6b43ac78ba3",
          "topics": [
            "0xda9fa7c1b00402c17d0161b249b1ab8bbec047c5a52207b9c112deffd817036b",
            "0x000000000000000000000000564323ae0d8473103f3763814c5121ca9e48004b",
            "0x000000000000000000000000b893e3334d4bd6c5ba8277fd559e99ed683a9fc7",
            "0x000000000000000000000000ac631556d3d4019c95769033b5e719dd77124bac"
          ],
          "data": "0x000000000000000000000000ffffffffffffffffffffffffffffffffffffffff0000000000000000000000000000000000000000000000000000ffffffffffff",
          "blockHash": "0x42d153c85e8b29b36c7c878c83366074404553ccb43451e9bb3157c8c20833bd",
          "blockNumber": "0xe925610",
          "blockTimestamp": "0x699aa3ab",
          "transactionHash": "0x4f87bfc006c5f7c7699434015ace59c11f02dc1690fce9970cc64ee2ba8b8fab",
          "transactionIndex": "0x1",
          "logIndex": "0x0",
          "removed": false
        }
      ],
      "logsBloom": "0x00010000000000000000000000000000000000000000000000000000000000000000000000000000100000000000000000000000000000000000000000080000000000000020000000000000000000000000000000000000000000000000000000000000000000000000000000000000040000000000000000000000000000000020000000000002000000000000000000000000000000000000000000000000000000000000000000000000000000000000000000000000000000080000000002000000000000000000010000000000000000000000000040000000000000000000000000000000000000000000000000000100004000200000000000000400",
      "type": "0x2",
      "transactionHash": "0x4f87bfc006c5f7c7699434015ace59c11f02dc1690fce9970cc64ee2ba8b8fab",
      "transactionIndex": "0x1",
      "blockHash": "0x42d153c85e8b29b36c7c878c83366074404553ccb43451e9bb3157c8c20833bd",
      "blockNumber": "0xe925610",
      "gasUsed": "0x6d0e",
      "effectiveGasPrice": "0x1315be0",
      "from": "0x564323ae0d8473103f3763814c5121ca9e48004b",
      "to": "0x000000000022d473030f116ddee9f6b43ac78ba3",
      "contractAddress": null,
      "gasUsedForL1": "0x0",
      "l1BlockNumber": "0x9d57e7",
      "timeboosted": false
    },
    {
      "status": "0x1",
      "cumulativeGasUsed": "0x42768",
      "logs": [
        {
          "address": "0xac631556d3d4019c95769033b5e719dd77124bac",
          "topics": [
            "0xddf252ad1be2c89b69c2b068fc378daa952ba7f163c4a11628f55a4df523b3ef",
            "0x0000000000000000000000000000000000000000000000000000000000000000",
            "0x000000000000000000000000564323ae0d8473103f3763814c5121ca9e48004b",
            "0x00000000000000000000000000000000000000000000000000000000000000e9"
          ],
          "data": "0x",
          "blockHash": "0xf1fea894e531e80f34f8aa98e3c59d3bf8e50d14aa233b56f26f365b08ebc937",
          "blockNumber": "0xe925613",
          "blockTimestamp": "0x699aa3ae",
          "transactionHash": "0xa719734664ed0aa5064b48059eefb0fbbaba81055be899c4a62be3773294d8b1",
          "transactionIndex": "0x1",
          "logIndex": "0x0",
          "removed": false
        },
        {
          "address": "0xfb3e0c6f74eb1a21cc1da29aec80d2dfe6c9a317",
          "topics": [
            "0xf208f4912782fd25c7f114ca3723a2d5dd6f3bcc3ac8db5af63baa85f711d5ec",
            "0x08f0aa16861abbc231031678ba2326eaf4c0b74b8f1fced53940c99dcb5a1ba2",
            "0x000000000000000000000000ac631556d3d4019c95769033b5e719dd77124bac"
          ],
          "data": "0xfffffffffffffffffffffffffffffffffffffffffffffffffffffffffffcee24fffffffffffffffffffffffffffffffffffffffffffffffffffffffffffd0918000000000000000000000000000000000000000000000000000002ba7def300000000000000000000000000000000000000000000000000000000000000000e9",
          "blockHash": "0xf1fea894e531e80f34f8aa98e3c59d3bf8e50d14aa233b56f26f365b08ebc937",
          "blockNumber": "0xe925613",
          "blockTimestamp": "0x699aa3ae",
          "transactionHash": "0xa719734664ed0aa5064b48059eefb0fbbaba81055be899c4a62be3773294d8b1",
          "transactionIndex": "0x1",
          "logIndex": "0x1",
          "removed": false
        },
        {
          "address": "0x980b62da83eff3d4576c647993b0c1d7faf17c73",
          "topics": [
            "0xddf252ad1be2c89b69c2b068fc378daa952ba7f163c4a11628f55a4df523b3ef",
            "0x000000000000000000000000564323ae0d8473103f3763814c5121ca9e48004b",
            "0x000000000000000000000000fb3e0c6f74eb1a21cc1da29aec80d2dfe6c9a317"
          ],
          "data": "0x000000000000000000000000000000000000000000000000001effcf4b5b92a6",
          "blockHash": "0xf1fea894e531e80f34f8aa98e3c59d3bf8e50d14aa233b56f26f365b08ebc937",
          "blockNumber": "0xe925613",
          "blockTimestamp": "0x699aa3ae",
          "transactionHash": "0xa719734664ed0aa5064b48059eefb0fbbaba81055be899c4a62be3773294d8b1",
          "transactionIndex": "0x1",
          "logIndex": "0x2",
          "removed": false
        },
        {
          "address": "0x980b62da83eff3d4576c647993b0c1d7faf17c73",
          "topics": [
            "0x8c5be1e5ebec7d5bd14f71427d1e84f3dd0314c0f7b2291e5b200ac8c7c3b925",
            "0x000000000000000000000000564323ae0d8473103f3763814c5121ca9e48004b",
            "0x000000000000000000000000000000000022d473030f116ddee9f6b43ac78ba3"
          ],
          "data": "0xffffffffffffffffffffffffffffffffffffffffffffffffffe10030b4a46d59",
          "blockHash": "0xf1fea894e531e80f34f8aa98e3c59d3bf8e50d14aa233b56f26f365b08ebc937",
          "blockNumber": "0xe925613",
          "blockTimestamp": "0x699aa3ae",
          "transactionHash": "0xa719734664ed0aa5064b48059eefb0fbbaba81055be899c4a62be3773294d8b1",
          "transactionIndex": "0x1",
          "logIndex": "0x3",
          "removed": false
        },
        {
          "address": "0xb893e3334d4bd6c5ba8277fd559e99ed683a9fc7",
          "topics": [
            "0xddf252ad1be2c89b69c2b068fc378daa952ba7f163c4a11628f55a4df523b3ef",
            "0x000000000000000000000000564323ae0d8473103f3763814c5121ca9e48004b",
            "0x000000000000000000000000fb3e0c6f74eb1a21cc1da29aec80d2dfe6c9a317"
          ],
          "data": "0x0000000000000000000000000000000000000000000000000000000001899b5b",
          "blockHash": "0xf1fea894e531e80f34f8aa98e3c59d3bf8e50d14aa233b56f26f365b08ebc937",
          "blockNumber": "0xe925613",
          "blockTimestamp": "0x699aa3ae",
          "transactionHash": "0xa719734664ed0aa5064b48059eefb0fbbaba81055be899c4a62be3773294d8b1",
          "transactionIndex": "0x1",
          "logIndex": "0x4",
          "removed": false
        },
        {
          "address": "0xb893e3334d4bd6c5ba8277fd559e99ed683a9fc7",
          "topics": [
            "0x8c5be1e5ebec7d5bd14f71427d1e84f3dd0314c0f7b2291e5b200ac8c7c3b925",
            "0x000000000000000000000000564323ae0d8473103f3763814c5121ca9e48004b",
            "0x000000000000000000000000000000000022d473030f116ddee9f6b43ac78ba3"
          ],
          "data": "0xfffffffffffffffffffffffffffffffffffffffffffffffffffffffffe7664a4",
          "blockHash": "0xf1fea894e531e80f34f8aa98e3c59d3bf8e50d14aa233b56f26f365b08ebc937",
          "blockNumber": "0xe925613",
          "blockTimestamp": "0x699aa3ae",
          "transactionHash": "0xa719734664ed0aa5064b48059eefb0fbbaba81055be899c4a62be3773294d8b1",
          "transactionIndex": "0x1",
          "logIndex": "0x5",
          "removed": false
        }
      ],
      "logsBloom": "0x000000400000000000000000000000080000000000a0100000000800000000000000000000000000101000000000000000000000800000000000000000200040000000000020000000004008100000000000000000000800000000000000000000000000020400000000000000080800000002000000000000000010000000000000000001000002000080000000000000000000000000000000000000000000020004200000000000000000000000000800001000000000000000000000000002000002000000004000010000000000000000000000000000000000000020000010000400800000400000000000000004000100000000000000000000000004",
      "type": "0x2",
      "transactionHash": "0xa719734664ed0aa5064b48059eefb0fbbaba81055be899c4a62be3773294d8b1",
      "transactionIndex": "0x1",
      "blockHash": "0xf1fea894e531e80f34f8aa98e3c59d3bf8e50d14aa233b56f26f365b08ebc937",
      "blockNumber": "0xe925613",
      "gasUsed": "0x42768",
      "effectiveGasPrice": "0x1312d00",
      "from": "0x564323ae0d8473103f3763814c5121ca9e48004b",
      "to": "0xac631556d3d4019c95769033b5e719dd77124bac",
      "contractAddress": null,
      "gasUsedForL1": "0x0",
      "l1BlockNumber": "0x9d57e9",
      "timeboosted": false
    }
  ],
  "libraries": [],
  "pending": [],
  "returns": {},
  "timestamp": 1771742127,
  "chain": 421614,
  "commit": "5b7f00d"
}