{
  "transactions": [
    {
      "hash": "0x9e90203878a8ffcf6284090c399fb9a865051491c3166e870d5de42781e1e910",
      "transactionType": "CALL",
      "contractName": null,
      "contractAddress": "0x980b62da83eff3d4576c647993b0c1d7faf17c73",
      "function": "approve(address,uint256)",
      "arguments": [
        "0x000000000022D473030F116dDEE9F6B43aC78BA3",
        "115792089237316195423570985008687907853269984665640564039457584007913129639935"
      ],
      "transaction": {
        "from": "0x6789e51196ea26a159c992b70cc80453ca6e381a",
        "to": "0x980b62da83eff3d4576c647993b0c1d7faf17c73",
        "gas": "0xadcd",
        "value": "0x0",
        "input": "0x095ea7b3000000000000000000000000000000000022d473030f116ddee9f6b43ac78ba3ffffffffffffffffffffffffffffffffffffffffffffffffffffffffffffffff",
        "nonce": "0xe",
        "chainId": "0x66eee"
      },
      "additionalContracts": [],
      "isFixedGasLimit": false
    },
    {
      "hash": "0x6bedf9681b92cb83e8532bdfba0603209f675d547a74d432548aa372b37d27cd",
      "transactionType": "CALL",
      "contractName": null,
      "contractAddress": "0xb893e3334d4bd6c5ba8277fd559e99ed683a9fc7",
      "function": "approve(address,uint256)",
      "arguments": [
        "0x000000000022D473030F116dDEE9F6B43aC78BA3",
        "115792089237316195423570985008687907853269984665640564039457584007913129639935"
      ],
      "transaction": {
        "from": "0x6789e51196ea26a159c992b70cc80453ca6e381a",
        "to": "0xb893e3334d4bd6c5ba8277fd559e99ed683a9fc7",
        "gas": "0x884d",
        "value": "0x0",
        "input": "0x095ea7b3000000000000000000000000000000000022d473030f116ddee9f6b43ac78ba3ffffffffffffffffffffffffffffffffffffffffffffffffffffffffffffffff",
        "nonce": "0xf",
        "chainId": "0x66eee"
      },
      "additionalContracts": [],
      "isFixedGasLimit": false
    },
    {
      "hash": "0xbd96b032d7c43fc3130a77522e5f3620b60108e2828aa89b46469ab7fd93fcb0",
      "transactionType": "CALL",
      "contractName": null,
      "contractAddress": "0x000000000022d473030f116ddee9f6b43ac78ba3",
      "function": "approve(address,address,uint160,uint48)",
      "arguments": [
        "0x980B62Da83eFf3D4576C647993b0c1D7faf17c73",
        "0xAc631556d3d4019C95769033B5E719dD77124BAc",
        "1461501637330902918203684832716283019655932542975",
        "281474976710655"
      ],
      "transaction": {
        "from": "0x6789e51196ea26a159c992b70cc80453ca6e381a",
        "to": "0x000000000022d473030f116ddee9f6b43ac78ba3",
        "gas": "0xf4c9",
        "value": "0x0",
        "input": "0x87517c45000000000000000000000000980b62da83eff3d4576c647993b0c1d7faf17c73000000000000000000000000ac631556d3d4019c95769033b5e719dd77124bac000000000000000000000000ffffffffffffffffffffffffffffffffffffffff0000000000000000000000000000000000000000000000000000ffffffffffff",
        "nonce": "0x10",
        "chainId": "0x66eee"
      },
      "additionalContracts": [],
      "isFixedGasLimit": false
    },
    {
      "hash": "0x8d3d9c03e599bf798f2436e74ecd18d62bb6c02a47a4746629f24aee0f4dc4a7",
      "transactionType": "CALL",
      "contractName": null,
      "contractAddress": "0x000000000022d473030f116ddee9f6b43ac78ba3",
      "function": "approve(address,address,uint160,uint48)",
      "arguments": [
        "0xb893E3334D4Bd6C5ba8277Fd559e99Ed683A9FC7",
        "0xAc631556d3d4019C95769033B5E719dD77124BAc",
        "1461501637330902918203684832716283019655932542975",
        "281474976710655"
      ],
      "transaction": {
        "from": "0x6789e51196ea26a159c992b70cc80453ca6e381a",
        "to": "0x000000000022d473030f116ddee9f6b43ac78ba3",
        "gas": "0xf4c9",
        "value": "0x0",
        "input": "0x87517c45000000000000000000000000b893e3334d4bd6c5ba8277fd559e99ed683a9fc7000000000000000000000000ac631556d3d4019c95769033b5e719dd77124bac000000000000000000000000ffffffffffffffffffffffffffffffffffffffff0000000000000000000000000000000000000000000000000000ffffffffffff",
        "nonce": "0x11",
        "chainId": "0x66eee"
      },
      "additionalContracts": [],
      "isFixedGasLimit": false
    },
    {
      "hash": "0x3d73208a048c27c73be3c39652cb65f497a716238804d62c64f2dc9ce4947969",
      "transactionType": "CALL",
      "contractName": null,
      "contractAddress": "0xac631556d3d4019c95769033b5e719dd77124bac",
      "function": "modifyLiquidities(bytes,uint256)",
      "arguments": [
        "0x0000000000000000000000000000000000000000000000000000000000000040000000000000000000000000000000000000000000000000000000000000008000000000000000000000000000000000000000000000000000000000000000030212120000000000000000000000000000000000000000000000000000000000000000000000000000000000000000000000000000000000000000000000000300000000000000000000000000000000000000000000000000000000000000600000000000000000000000000000000000000000000000000000000000000220000000000000000000000000000000000000000000000000000000000000026000000000000000000000000000000000000000000000000000000000000001a0000000000000000000000000980b62da83eff3d4576c647993b0c1d7faf17c73000000000000000000000000b893e3334d4bd6c5ba8277fd559e99ed683a9fc70000000000000000000000000000000000000000000000000000000000000bb8000000000000000000000000000000000000000000000000000000000000003c00000000000000000000000051ed077265dc54b2afdbf26181b48f7314b44a40fffffffffffffffffffffffffffffffffffffffffffffffffffffffffffcee24fffffffffffffffffffffffffffffffffffffffffffffffffffffffffffd0918000000000000000000000000000000000000000000000000000002ba7def3000000000000000000000000000000000000000000000000000002386f26fc100000000000000000000000000000000000000000000000000000000000001c9c3800000000000000000000000006789e51196ea26a159c992b70cc80453ca6e381a000000000000000000000000000000000000000000000000000000000000018000000000000000000000000000000000000000000000000000000000000000000000000000000000000000000000000000000000000000000000000000000020000000000000000000000000980b62da83eff3d4576c647993b0c1d7faf17c730000000000000000000000000000000000000000000000000000000000000020000000000000000000000000b893e3334d4bd6c5ba8277fd559e99ed683a9fc7",
        "1771741148"
      ],
      "transaction": {
        "from": "0x6789e51196ea26a159c992b70cc80453ca6e381a",
        "to": "0xac631556d3d4019c95769033b5e719dd77124bac",
        "gas": "0x5bce4",
        "value": "0x0",
        "input": "0xdd46508f000000000000000000000000000000000000000000000000000000000000004000000000000000000000000000000000000000000000000000000000699a9fdc00000000000000000000000000000000000000000000000000000000000003400000000000000000000000000000000000000000000000000000000000000040000000000000000000000000000000000000000000000000000000000000008000000000000000000000000000000000000000000000000000000000000000030212120000000000000000000000000000000000000000000000000000000000000000000000000000000000000000000000000000000000000000000000000300000000000000000000000000000000000000000000000000000000000000600000000000000000000000000000000000000000000000000000000000000220000000000000000000000000000000000000000000000000000000000000026000000000000000000000000000000000000000000000000000000000000001a0000000000000000000000000980b62da83eff3d4576c647993b0c1d7faf17c73000000000000000000000000b893e3334d4bd6c5ba8277fd559e99ed683a9fc70000000000000000000000000000000000000000000000000000000000000bb8000000000000000000000000000000000000000000000000000000000000003c00000000000000000000000051ed077265dc54b2afdbf26181b48f7314b44a40fffffffffffffffffffffffffffffffffffffffffffffffffffffffffffcee24fffffffffffffffffffffffffffffffffffffffffffffffffffffffffffd0918000000000000000000000000000000000000000000000000000002ba7def3000000000000000000000000000000000000000000000000000002386f26fc100000000000000000000000000000000000000000000000000000000000001c9c3800000000000000000000000006789e51196ea26a159c992b70cc80453ca6e381a000000000000000000000000000000000000000000000000000000000000018000000000000000000000000000000000000000000000000000000000000000000000000000000000000000000000000000000000000000000000000000000020000000000000000000000000980b62da83eff3d4576c647993b0c1d7faf17c730000000000000000000000000000000000000000000000000000000000000020000000000000000000000000b893e3334d4bd6c5ba8277fd559e99ed683a9fc7",
        "nonce": "0x12",
        "chainId": "0x66eee"
      },
      "additionalContracts": [],
      "isFixedGasLimit": false
    }
  ],
  "receipts": [
    {
      "status": "0x1",
      "cumulativeGasUsed": "0x844c",
      "logs": [
        {
          "address": "0x980b62da83eff3d4576c647993b0c1d7faf17c73",
          "topics": [
            "0x8c5be1e5ebec7d5bd14f71427d1e84f3dd0314c0f7b2291e5b200ac8c7c3b925",
            "0x0000000000000000000000006789e51196ea26a159c992b70cc80453ca6e381a",
            "0x000000000000000000000000000000000022d473030f116ddee9f6b43ac78ba3"
          ],
          "data": "0xffffffffffffffffffffffffffffffffffffffffffffffffffffffffffffffff",
          "blockHash": "0xfe1d9c0a22630bbac705b3d74ef0ede8026e7be5f45d481590f69b824f6c3f0b",
          "blockNumber": "0xe924bf9",
          "blockTimestamp": "0x699a9ec6",
          "transactionHash": "0x9e90203878a8ffcf6284090c399fb9a865051491c3166e870d5de42781e1e910",
          "transactionIndex": "0x1",
          "logIndex": "0x0",
          "removed": false
        }
      ],
      "logsBloom": "0x00000000000000000000000000000000000000000000000040000a00000000000000000000000000000000000000000000000000800000000000000000200000000000000000000000004000100000000040000000000800000000000000000000000000000000000000000000000000000000000000000000000000000000000000000000000000000000000000000000000000000000000000000000000000020000000000000000000000000000000000000000000000000000000000000000000000000000004000000000000000000000000000000000000000000000000010000000000000000000000000000000000000000000000000000000000000",
      "type": "0x2",
      "transactionHash": "0x9e90203878a8ffcf6284090c399fb9a865051491c3166e870d5de42781e1e910",
      "transactionIndex": "0x1",
      "blockHash": "0xfe1d9c0a22630bbac705b3d74ef0ede8026e7be5f45d481590f69b824f6c3f0b",
      "blockNumber": "0xe924bf9",
      "gasUsed": "0x844c",
      "effectiveGasPrice": "0x1312d00",
      "from": "0x6789e51196ea26a159c992b70cc80453ca6e381a",
      "to": "0x980b62da83eff3d4576c647993b0c1d7faf17c73",
      "contractAddress": null,
      "gasUsedForL1": "0x0",
      "l1BlockNumber": "0x9d5783",
      "timeboosted": false
    },
    {
      "status": "0x1",
      "cumulativeGasUsed": "0x6782",
      "logs": [
        {
          "address": "0xb893e3334d4bd6c5ba8277fd559e99ed683a9fc7",
          "topics": [
            "0x8c5be1e5ebec7d5bd14f71427d1e84f3dd0314c0f7b2291e5b200ac8c7c3b925",
            "0x0000000000000000000000006789e51196ea26a159c992b70cc80453ca6e381a",
            "0x000000000000000000000000000000000022d473030f116ddee9f6b43ac78ba3"
          ],
          "data": "0xffffffffffffffffffffffffffffffffffffffffffffffffffffffffffffffff",
          "blockHash": "0xbff25160c6afc795d982db7282a6ed51b08d09a31923236c426757fa8f25823f",
          "blockNumber": "0xe924c03",
          "blockTimestamp": "0x699a9ec9",
          "transactionHash": "0x6bedf9681b92cb83e8532bdfba0603209f675d547a74d432548aa372b37d27cd",
          "transactionIndex": "0x1",
          "logIndex": "0x0",
          "removed": false
        }
      ],
      "logsBloom": "0x00000000000000000000000000000000000000000000000040000200000000000000000000000000000000000000000000000000800000000000000000200000000000000000000000004000000000000040000000000800000000000000000000000000000000000000000000000000000002000000000000000000000000000000000000000000000080000000000000000000000000000000000000000000020000000000000000000000000000000000000000000000000000000000000000000000000000000000000000000000000000000000000000000000000000000010000400000000000000000000000000000000000000000000000000000000",
      "type": "0x2",
      "transactionHash": "0x6bedf9681b92cb83e8532bdfba0603209f675d547a74d432548aa372b37d27cd",
      "transactionIndex": "0x1",
      "blockHash": "0xbff25160c6afc795d982db7282a6ed51b08d09a31923236c426757fa8f25823f",
      "blockNumber": "0xe924c03",
      "gasUsed": "0x6782",
      "effectiveGasPrice": "0x1322700",
      "from": "0x6789e51196ea26a159c992b70cc80453ca6e381a",
      "to": "0xb893e3334d4bd6c5ba8277fd559e99ed683a9fc7",
      "contractAddress": null,
      "gasUsedForL1": "0x0",
      "l1BlockNumber": "0x9d5783",
      "timeboosted": false
    },
    {
      "status": "0x1",
      "cumulativeGasUsed": "0x3f8cf",
      "logs": [
        {
          "address": "0x000000000022d473030f116ddee9f6b43ac78ba3",
          "topics": [
            "0xda9fa7c1b00402c17d0161b249b1ab8bbec047c5a52207b9c112deffd817036b",
            "0x0000000000000000000000006789e51196ea26a159c992b70cc80453ca6e381a",
            "0x000000000000000000000000980b62da83eff3d4576c647993b0c1d7faf17c73",
            "0x000000000000000000000000ac631556d3d4019c95769033b5e719dd77124bac"
          ],
          "data": "0x000000000000000000000000ffffffffffffffffffffffffffffffffffffffff0000000000000000000000000000000000000000000000000000ffffffffffff",
          "blockHash": "0xc41797747cdc77f55ab8b21085b2d49ca831faf37996148672ad590841f95728",
          "blockNumber": "0xe924c0a",
          "blockTimestamp": "0x699a9ecc",
          "transactionHash": "0xbd96b032d7c43fc3130a77522e5f3620b60108e2828aa89b46469ab7fd93fcb0",
          "transactionIndex": "0x3",
          "logIndex": "0x5",
          "removed": false
        }
      ],
      "logsBloom": "0x00010000000000000000000000000000000000000000000040000200000000000000000000000000100000000000000000000000000000000000000000080000000020000020000000000000000000000040000000000000000000000000000000020000000000000000000000000000000000000000000000000000000000000020000000000000000000000000000000000000000000000000000000000000000000000000000000000000000000000000000000000000000000080000000000000000000000000000010200000000000000000000000040000000000000000000000000000000000000000000000000000000000000000000000000000400",
      "type": "0x2",
      "transactionHash": "0xbd96b032d7c43fc3130a77522e5f3620b60108e2828aa89b46469ab7fd93fcb0",
      "transactionIndex": "0x3",
      "blockHash": "0xc41797747cdc77f55ab8b21085b2d49ca831faf37996148672ad590841f95728",
      "blockNumber": "0xe924c0a",
      "gasUsed": "0xbaca",
      "effectiveGasPrice": "0x1315410",
      "from": "0x6789e51196ea26a159c992b70cc80453ca6e381a",
      "to": "0x000000000022d473030f116ddee9f6b43ac78ba3",
      "contractAddress": null,
      "gasUsedForL1": "0x0",
      "l1BlockNumber": "0x9d5783",
      "timeboosted": false
    },
    {
      "status": "0x1",
      "cumulativeGasUsed": "0xbaca",
      "logs": [
        {
          "address": "0x000000000022d473030f116ddee9f6b43ac78ba3",
          "topics": [
            "0xda9fa7c1b00402c17d0161b249b1ab8bbec047c5a52207b9c112deffd817036b",
            "0x0000000000000000000000006789e51196ea26a159c992b70cc80453ca6e381a",
            "0x000000000000000000000000b893e3334d4bd6c5ba8277fd559e99ed683a9fc7",
            "0x000000000000000000000000ac631556d3d4019c95769033b5e719dd77124bac"
          ],
          "data": "0x000000000000000000000000ffffffffffffffffffffffffffffffffffffffff0000000000000000000000000000000000000000000000000000ffffffffffff",
          "blockHash": "0xe64a12f1ee7e08d1628cf7a7cec46205b0d83405634896e049e86bcafa7eba05",
          "blockNumber": "0xe924c10",
          "blockTimestamp": "0x699a9ed0",
          "transactionHash": "0x8d3d9c03e599bf798f2436e74ecd18d62bb6c02a47a4746629f24aee0f4dc4a7",
          "transactionIndex": "0x1",
          "logIndex": "0x0",
          "removed": false
        }
      ],
      "logsBloom": "0x00010000000000000000000000000000000000000000000040000200000000000000000000000000100000000000000000000000000000000000000000080000000000000020000000000000000000000040000000000000000000000000000000000000000000000000000000000000040000000000000000000000000000000020000000000000000000000000000000000000000000000000000000000000000000000000000000000000000000000000000000000000000000080000000000000000000000000000010000000000000000000000000040000000000000000000000000000000000000000000000000000000004000200000000000000400",
      "type": "0x2",
      "transactionHash": "0x8d3d9c03e599bf798f2436e74ecd18d62bb6c02a47a4746629f24aee0f4dc4a7",
      "transactionIndex": "0x1",
      "blockHash": "0xe64a12f1ee7e08d1628cf7a7cec46205b0d83405634896e049e86bcafa7eba05",
      "blockNumber": "0xe924c10",
      "gasUsed": "0xbaca",
      "effectiveGasPrice": "0x1312d00",
      "from": "0x6789e51196ea26a159c992b70cc80453ca6e381a",
      "to": "0x000000000022d473030f116ddee9f6b43ac78ba3",
      "contractAddress": null,
      "gasUsedForL1": "0x0",
      "l1BlockNumber": "0x9d5783",
      "timeboosted": false
    },
    {
      "status": "0x1",
      "cumulativeGasUsed": "0x42774",
      "logs": [
        {
          "address": "0xac631556d3d4019c95769033b5e719dd77124bac",
          "topics": [
            "0xddf252ad1be2c89b69c2b068fc378daa952ba7f163c4a11628f55a4df523b3ef",
            "0x0000000000000000000000000000000000000000000000000000000000000000",
            "0x0000000000000000000000006789e51196ea26a159c992b70cc80453ca6e381a",
            "0x00000000000000000000000000000000000000000000000000000000000000e8"
          ],
          "data": "0x",
          "blockHash": "0x9dab746c47f237eaea0141d474d22e9191f2f05f49bef12652877fb045187d90",
          "blockNumber": "0xe924c13",
          "blockTimestamp": "0x699a9ed1",
          "transactionHash": "0x3d73208a048c27c73be3c39652cb65f497a716238804d62c64f2dc9ce4947969",
          "transactionIndex": "0x1",
          "logIndex": "0x0",
          "removed": false
        },
        {
          "address": "0xfb3e0c6f74eb1a21cc1da29aec80d2dfe6c9a317",
          "topics": [
            "0xf208f4912782fd25c7f114ca3723a2d5dd6f3bcc3ac8db5af63baa85f711d5ec",
            "0x08f0aa16861abbc231031678ba2326eaf4c0b74b8f1fced53940c99dcb5a1ba2",
            "0x000000000000000000000000ac631556d3d4019c95769033b5e719dd77124bac"
          ],
          "data": "0xfffffffffffffffffffffffffffffffffffffffffffffffffffffffffffcee24fffffffffffffffffffffffffffffffffffffffffffffffffffffffffffd0918000000000000000000000000000000000000000000000000000002ba7def300000000000000000000000000000000000000000000000000000000000000000e8",
          "blockHash": "0x9dab746c47f237eaea0141d474d22e9191f2f05f49bef12652877fb045187d90",
          "blockNumber": "0xe924c13",
          "blockTimestamp": "0x699a9ed1",
          "transactionHash": "0x3d73208a048c27c73be3c39652cb65f497a716238804d62c64f2dc9ce4947969",
          "transactionIndex": "0x1",
          "logIndex": "0x1",
          "removed": false
        },
        {
          "address": "0x980b62da83eff3d4576c647993b0c1d7faf17c73",
          "topics": [
            "0xddf252ad1be2c89b69c2b068fc378daa952ba7f163c4a11628f55a4df523b3ef",
            "0x0000000000000000000000006789e51196ea26a159c992b70cc80453ca6e381a",
            "0x000000000000000000000000fb3e0c6f74eb1a21cc1da29aec80d2dfe6c9a317"
          ],
          "data": "0x000000000000000000000000000000000000000000000000001effcf4b5b92a6",
          "blockHash": "0x9dab746c47f237eaea0141d474d22e9191f2f05f49bef12652877fb045187d90",
          "blockNumber": "0xe924c13",
          "blockTimestamp": "0x699a9ed1",
          "transactionHash": "0x3d73208a048c27c73be3c39652cb65f497a716238804d62c64f2dc9ce4947969",
          "transactionIndex": "0x1",
          "logIndex": "0x2",
          "removed": false
        },
        {
          "address": "0x980b62da83eff3d4576c647993b0c1d7faf17c73",
          "topics": [
            "0x8c5be1e5ebec7d5bd14f71427d1e84f3dd0314c0f7b2291e5b200ac8c7c3b925",
            "0x0000000000000000000000006789e51196ea26a159c992b70cc80453ca6e381a",
            "0x000000000000000000000000000000000022d473030f116ddee9f6b43ac78ba3"
          ],
          "data": "0xffffffffffffffffffffffffffffffffffffffffffffffffffe10030b4a46d59",
          "blockHash": "0x9dab746c47f237eaea0141d474d22e9191f2f05f49bef12652877fb045187d90",
          "blockNumber": "0xe924c13",
          "blockTimestamp": "0x699a9ed1",
          "transactionHash": "0x3d73208a048c27c73be3c39652cb65f497a716238804d62c64f2dc9ce4947969",
          "transactionIndex": "0x1",
          "logIndex": "0x3",
          "removed": false
        },
        {
          "address": "0xb893e3334d4bd6c5ba8277fd559e99ed683a9fc7",
          "topics": [
            "0xddf252ad1be2c89b69c2b068fc378daa952ba7f163c4a11628f55a4df523b3ef",
            "0x0000000000000000000000006789e51196ea26a159c992b70cc80453ca6e381a",
            "0x000000000000000000000000fb3e0c6f74eb1a21cc1da29aec80d2dfe6c9a317"
          ],
          "data": "0x0000000000000000000000000000000000000000000000000000000001899b5b",
          "blockHash": "0x9dab746c47f237eaea0141d474d22e9191f2f05f49bef12652877fb045187d90",
          "blockNumber": "0xe924c13",
          "blockTimestamp": "0x699a9ed1",
          "transactionHash": "0x3d73208a048c27c73be3c39652cb65f497a716238804d62c64f2dc9ce4947969",
          "transactionIndex": "0x1",
          "logIndex": "0x4",
          "removed": false
        },
        {
          "address": "0xb893e3334d4bd6c5ba8277fd559e99ed683a9fc7",
          "topics": [
            "0x8c5be1e5ebec7d5bd14f71427d1e84f3dd0314c0f7b2291e5b200ac8c7c3b925",
            "0x0000000000000000000000006789e51196ea26a159c992b70cc80453ca6e381a",
            "0x000000000000000000000000000000000022d473030f116ddee9f6b43ac78ba3"
          ],
          "data": "0xfffffffffffffffffffffffffffffffffffffffffffffffffffffffffe7664a4",
          "blockHash": "0x9dab746c47f237eaea0141d474d22e9191f2f05f49bef12652877fb045187d90",
          "blockNumber": "0xe924c13",
          "blockTimestamp": "0x699a9ed1",
          "transactionHash": "0x3d73208a048c27c73be3c39652cb65f497a716238804d62c64f2dc9ce4947969",
          "transactionIndex": "0x1",
          "logIndex": "0x5",
          "removed": false
        }
      ],
      "logsBloom": "0x000000400000000000000004000000080000000000a0100040000a00000000000000000000000000100000000000000000000000800000000000000000200040000000000020000000004008100000000040000000000800000000000000000000000000020400000000000000080800000002000000000000000010000000000000000001000100000080000000000000000000000000000000000000000000020004200000000000000000000000000800000000000000000002000000000000000002000000004000010000000000000000000000000000000000000020000010000400000000400000000000000004000000000000000000000000000004",
      "type": "0x2",
      "transactionHash": "0x3d73208a048c27c73be3c39652cb65f497a716238804d62c64f2dc9ce4947969",
      "transactionIndex": "0x1",
      "blockHash": "0x9dab746c47f237eaea0141d474d22e9191f2f05f49bef12652877fb045187d90",
      "blockNumber": "0xe924c13",
      "gasUsed": "0x42774",
      "effectiveGasPrice": "0x1312d00",
      "from": "0x6789e51196ea26a159c992b70cc80453ca6e381a",
      "to": "0xac631556d3d4019c95769033b5e719dd77124bac",
      "contractAddress": null,
      "gasUsedForL1": "0x0",
      "l1BlockNumber": "0x9d5785",
      "timeboosted": false
    }
  ],
  "libraries": [],
  "pending": [],
  "returns": {},
  "timestamp": 1771740882,
  "chain": 421614,
  "commit": "5b7f00d"
}