{
  "transactions": [
    {
      "hash": "0xdb6a423fabf3c1829e579f2d8d9e85ca16187209151d3146f4fc8b4e73f7dd39",
      "transactionType": "CALL",
      "contractName": null,
      "contractAddress": "0x980b62da83eff3d4576c647993b0c1d7faf17c73",
      "function": "approve(address,uint256)",
      "arguments": [
        "0x000000000022D473030F116dDEE9F6B43aC78BA3",
        "115792089237316195423570985008687907853269984665640564039457584007913129639935"
      ],
      "transaction": {
        "from": "0x6789e51196ea26a159c992b70cc80453ca6e381a",
        "to": "0x980b62da83eff3d4576c647993b0c1d7faf17c73",
        "gas": "0xbc0c",
        "value": "0x0",
        "input": "0x095ea7b3000000000000000000000000000000000022d473030f116ddee9f6b43ac78ba3ffffffffffffffffffffffffffffffffffffffffffffffffffffffffffffffff",
        "nonce": "0x16",
        "chainId": "0x66eee"
      },
      "additionalContracts": [],
      "isFixedGasLimit": false
    },
    {
      "hash": "0x91287a3ba125e759a663fa6901d5bddcf36a3a3f70e93ce838e3e5e1ef300116",
      "transactionType": "CALL",
      "contractName": null,
      "contractAddress": "0xb893e3334d4bd6c5ba8277fd559e99ed683a9fc7",
      "function": "approve(address,uint256)",
      "arguments": [
        "0x000000000022D473030F116dDEE9F6B43aC78BA3",
        "115792089237316195423570985008687907853269984665640564039457584007913129639935"
      ],
      "transaction": {
        "from": "0x6789e51196ea26a159c992b70cc80453ca6e381a",
        "to": "0xb893e3334d4bd6c5ba8277fd559e99ed683a9fc7",
        "gas": "0x968d",
        "value": "0x0",
        "input": "0x095ea7b3000000000000000000000000000000000022d473030f116ddee9f6b43ac78ba3ffffffffffffffffffffffffffffffffffffffffffffffffffffffffffffffff",
        "nonce": "0x17",
        "chainId": "0x66eee"
      },
      "additionalContracts": [],
      "isFixedGasLimit": false
    },
    {
      "hash": "0xd0074d2b9e1425f71c2ea0c682a8316720a9401e21671e8c6c666d22e84397c5",
      "transactionType": "CALL",
      "contractName": null,
      "contractAddress": "0x000000000022d473030f116ddee9f6b43ac78ba3",
      "function": "approve(address,address,uint160,uint48)",
      "arguments": [
        "0x980B62Da83eFf3D4576C647993b0c1D7faf17c73",
        "0xAc631556d3d4019C95769033B5E719dD77124BAc",
        "1461501637330902918203684832716283019655932542975",
        "281474976710655"
      ],
      "transaction": {
        "from": "0x6789e51196ea26a159c992b70cc80453ca6e381a",
        "to": "0x000000000022d473030f116ddee9f6b43ac78ba3",
        "gas": "0x8f87",
        "value": "0x0",
        "input": "0x87517c45000000000000000000000000980b62da83eff3d4576c647993b0c1d7faf17c73000000000000000000000000ac631556d3d4019c95769033b5e719dd77124bac000000000000000000000000ffffffffffffffffffffffffffffffffffffffff0000000000000000000000000000000000000000000000000000ffffffffffff",
        "nonce": "0x18",
        "chainId": "0x66eee"
      },
      "additionalContracts": [],
      "isFixedGasLimit": false
    },
    {
      "hash": "0xa2d5acd8ad0491834cad681c5c87768607fa8e680d68d0976046536054cf5760",
      "transactionType": "CALL",
      "contractName": null,
      "contractAddress": "0x000000000022d473030f116ddee9f6b43ac78ba3",
      "function": "approve(address,address,uint160,uint48)",
      "arguments": [
        "0xb893E3334D4Bd6C5ba8277Fd559e99Ed683A9FC7",
        "0xAc631556d3d4019C95769033B5E719dD77124BAc",
        "1461501637330902918203684832716283019655932542975",
        "281474976710655"
      ],
      "transaction": {
        "from": "0x6789e51196ea26a159c992b70cc80453ca6e381a",
        "to": "0x000000000022d473030f116ddee9f6b43ac78ba3",
        "gas": "0x8f87",
        "value": "0x0",
        "input": "0x87517c45000000000000000000000000b893e3334d4bd6c5ba8277fd559e99ed683a9fc7000000000000000000000000ac631556d3d4019c95769033b5e719dd77124bac000000000000000000000000ffffffffffffffffffffffffffffffffffffffff0000000000000000000000000000000000000000000000000000ffffffffffff",
        "nonce": "0x19",
        "chainId": "0x66eee"
      },
      "additionalContracts": [],
      "isFixedGasLimit": false
    },
    {
      "hash": "0x7401ee2206fc09d72d1747cd67487f87f14e6d448e5c43be4442d35a8292ca87",
      "transactionType": "CALL",
      "contractName": null,
      "contractAddress": "0xac631556d3d4019c95769033b5e719dd77124bac",
      "function": "modifyLiquidities(bytes,uint256)",
      "arguments": [
        "0x0000000000000000000000000000000000000000000000000000000000000040000000000000000000000000000000000000000000000000000000000000008000000000000000000000000000000000000000000000000000000000000000030212120000000000000000000000000000000000000000000000000000000000000000000000000000000000000000000000000000000000000000000000000300000000000000000000000000000000000000000000000000000000000000600000000000000000000000000000000000000000000000000000000000000220000000000000000000000000000000000000000000000000000000000000026000000000000000000000000000000000000000000000000000000000000001a0000000000000000000000000980b62da83eff3d4576c647993b0c1d7faf17c73000000000000000000000000b893e3334d4bd6c5ba8277fd559e99ed683a9fc70000000000000000000000000000000000000000000000000000000000000bb8000000000000000000000000000000000000000000000000000000000000003c00000000000000000000000051ed077265dc54b2afdbf26181b48f7314b44a40fffffffffffffffffffffffffffffffffffffffffffffffffffffffffffcee24fffffffffffffffffffffffffffffffffffffffffffffffffffffffffffd0918000000000000000000000000000000000000000000000000000002ba7def3000000000000000000000000000000000000000000000000000002386f26fc100000000000000000000000000000000000000000000000000000000000001c9c3800000000000000000000000006789e51196ea26a159c992b70cc80453ca6e381a000000000000000000000000000000000000000000000000000000000000018000000000000000000000000000000000000000000000000000000000000000000000000000000000000000000000000000000000000000000000000000000020000000000000000000000000980b62da83eff3d4576c647993b0c1d7faf17c730000000000000000000000000000000000000000000000000000000000000020000000000000000000000000b893e3334d4bd6c5ba8277fd559e99ed683a9fc7",
        "1771742530"
      ],
      "transaction": {
        "from": "0x6789e51196ea26a159c992b70cc80453ca6e381a",
        "to": "0xac631556d3d4019c95769033b5e719dd77124bac",
        "gas": "0x5884b",
        "value": "0x0",
        "input": "0xdd46508f000000000000000000000000000000000000000000000000000000000000004000000000000000000000000000000000000000000000000000000000699aa54200000000000000000000000000000000000000000000000000000000000003400000000000000000000000000000000000000000000000000000000000000040000000000000000000000000000000000000000000000000000000000000008000000000000000000000000000000000000000000000000000000000000000030212120000000000000000000000000000000000000000000000000000000000000000000000000000000000000000000000000000000000000000000000000300000000000000000000000000000000000000000000000000000000000000600000000000000000000000000000000000000000000000000000000000000220000000000000000000000000000000000000000000000000000000000000026000000000000000000000000000000000000000000000000000000000000001a0000000000000000000000000980b62da83eff3d4576c647993b0c1d7faf17c73000000000000000000000000b893e3334d4bd6c5ba8277fd559e99ed683a9fc70000000000000000000000000000000000000000000000000000000000000bb8000000000000000000000000000000000000000000000000000000000000003c00000000000000000000000051ed077265dc54b2afdbf26181b48f7314b44a40fffffffffffffffffffffffffffffffffffffffffffffffffffffffffffcee24fffffffffffffffffffffffffffffffffffffffffffffffffffffffffffd0918000000000000000000000000000000000000000000000000000002ba7def3000000000000000000000000000000000000000000000000000002386f26fc100000000000000000000000000000000000000000000000000000000000001c9c3800000000000000000000000006789e51196ea26a159c992b70cc80453ca6e381a000000000000000000000000000000000000000000000000000000000000018000000000000000000000000000000000000000000000000000000000000000000000000000000000000000000000000000000000000000000000000000000020000000000000000000000000980b62da83eff3d4576c647993b0c1d7faf17c730000000000000000000000000000000000000000000000000000000000000020000000000000000000000000b893e3334d4bd6c5ba8277fd559e99ed683a9fc7",
        "nonce": "0x1a",
        "chainId": "0x66eee"
      },
      "additionalContracts": [],
      "isFixedGasLimit": false
    }
  ],
  "receipts": [
    {
      "status": "0x1",
      "cumulativeGasUsed": "0x8f3c",
      "logs": [
        {
          "address": "0x980b62da83eff3d4576c647993b0c1d7faf17c73",
          "topics": [
            "0x8c5be1e5ebec7d5bd14f71427d1e84f3dd0314c0f7b2291e5b200ac8c7c3b925",
            "0x0000000000000000000000006789e51196ea26a159c992b70cc80453ca6e381a",
            "0x000000000000000000000000000000000022d473030f116ddee9f6b43ac78ba3"
          ],
          "data": "0xffffffffffffffffffffffffffffffffffffffffffffffffffffffffffffffff",
          "blockHash": "0x3376304c5aee36a73dac01d2c15c9ceffaca78539425983e7c7e7380274d26e3",
          "blockNumber": "0xe9256e1",
          "blockTimestamp": "0x699aa437",
          "transactionHash": "0xdb6a423fabf3c1829e579f2d8d9e85ca16187209151d3146f4fc8b4e73f7dd39",
          "transactionIndex": "0x1",
          "logIndex": "0x0",
          "removed": false
        }
      ],
      "logsBloom": "0x00000000000000000000000000000000000000000000000040000a00000000000000000000000000000000000000000000000000800000000000000000200000000000000000000000004000100000000040000000000800000000000000000000000000000000000000000000000000000000000000000000000000000000000000000000000000000000000000000000000000000000000000000000000000020000000000000000000000000000000000000000000000000000000000000000000000000000004000000000000000000000000000000000000000000000000010000000000000000000000000000000000000000000000000000000000000",
      "type": "0x2",
      "transactionHash": "0xdb6a423fabf3c1829e579f2d8d9e85ca16187209151d3146f4fc8b4e73f7dd39",
      "transactionIndex": "0x1",
      "blockHash": "0x3376304c5aee36a73dac01d2c15c9ceffaca78539425983e7c7e7380274d26e3",
      "blockNumber": "0xe9256e1",
      "gasUsed": "0x8f3c",
      "effectiveGasPrice": "0x1312d00",
      "from": "0x6789e51196ea26a159c992b70cc80453ca6e381a",
      "to": "0x980b62da83eff3d4576c647993b0c1d7faf17c73",
      "contractAddress": null,
      "gasUsedForL1": "0x0",
      "l1BlockNumber": "0x9d57f3",
      "timeboosted": false
    },
    {
      "status": "0x1",
      "cumulativeGasUsed": "0x7272",
      "logs": [
        {
          "address": "0xb893e3334d4bd6c5ba8277fd559e99ed683a9fc7",
          "topics": [
            "0x8c5be1e5ebec7d5bd14f71427d1e84f3dd0314c0f7b2291e5b200ac8c7c3b925",
            "0x0000000000000000000000006789e51196ea26a159c992b70cc80453ca6e381a",
            "0x000000000000000000000000000000000022d473030f116ddee9f6b43ac78ba3"
          ],
          "data": "0xffffffffffffffffffffffffffffffffffffffffffffffffffffffffffffffff",
          "blockHash": "0x0fe7f1551b78a5b2134bbc218881a2f9a24a3d8cc83d8fc6e794d94f4dc0de6d",
          "blockNumber": "0xe9256e6",
          "blockTimestamp": "0x699aa439",
          "transactionHash": "0x91287a3ba125e759a663fa6901d5bddcf36a3a3f70e93ce838e3e5e1ef300116",
          "transactionIndex": "0x1",
          "logIndex": "0x0",
          "removed": false
        }
      ],
      "logsBloom": "0x00000000000000000000000000000000000000000000000040000200000000000000000000000000000000000000000000000000800000000000000000200000000000000000000000004000000000000040000000000800000000000000000000000000000000000000000000000000000002000000000000000000000000000000000000000000000080000000000000000000000000000000000000000000020000000000000000000000000000000000000000000000000000000000000000000000000000000000000000000000000000000000000000000000000000000010000400000000000000000000000000000000000000000000000000000000",
      "type": "0x2",
      "transactionHash": "0x91287a3ba125e759a663fa6901d5bddcf36a3a3f70e93ce838e3e5e1ef300116",
      "transactionIndex": "0x1",
      "blockHash": "0x0fe7f1551b78a5b2134bbc218881a2f9a24a3d8cc83d8fc6e794d94f4dc0de6d",
      "blockNumber": "0xe9256e6",
      "gasUsed": "0x7272",
      "effectiveGasPrice": "0x1312d00",
      "from": "0x6789e51196ea26a159c992b70cc80453ca6e381a",
      "to": "0xb893e3334d4bd6c5ba8277fd559e99ed683a9fc7",
      "contractAddress": null,
      "gasUsedForL1": "0x0",
      "l1BlockNumber": "0x9d57f3",
      "timeboosted": false
    },
    {
      "status": "0x1",
      "cumulativeGasUsed": "0x6d0e",
      "logs": [
        {
          "address": "0x000000000022d473030f116ddee9f6b43ac78ba3",
          "topics": [
            "0xda9fa7c1b00402c17d0161b249b1ab8bbec047c5a52207b9c112deffd817036b",
            "0x0000000000000000000000006789e51196ea26a159c992b70cc80453ca6e381a",
            "0x000000000000000000000000980b62da83eff3d4576c647993b0c1d7faf17c73",
            "0x000000000000000000000000ac631556d3d4019c95769033b5e719dd77124bac"
          ],
          "data": "0x000000000000000000000000ffffffffffffffffffffffffffffffffffffffff0000000000000000000000000000000000000000000000000000ffffffffffff",
          "blockHash": "0x91eb2c7f4e0947ad06f75b668b96aa920ad3638225a9edb357504a9b8418ff6d",
          "blockNumber": "0xe9256eb",
          "blockTimestamp": "0x699aa43d",
          "transactionHash": "0xd0074d2b9e1425f71c2ea0c682a8316720a9401e21671e8c6c666d22e84397c5",
          "transactionIndex": "0x1",
          "logIndex": "0x0",
          "removed": false
        }
      ],
      "logsBloom": "0x00010000000000000000000000000000000000000000000040000200000000000000000000000000100000000000000000000000000000000000000000080000000020000020000000000000000000000040000000000000000000000000000000020000000000000000000000000000000000000000000000000000000000000020000000000000000000000000000000000000000000000000000000000000000000000000000000000000000000000000000000000000000000080000000000000000000000000000010200000000000000000000000040000000000000000000000000000000000000000000000000000000000000000000000000000400",
      "type": "0x2",
      "transactionHash": "0xd0074d2b9e1425f71c2ea0c682a8316720a9401e21671e8c6c666d22e84397c5",
      "transactionIndex": "0x1",
      "blockHash": "0x91eb2c7f4e0947ad06f75b668b96aa920ad3638225a9edb357504a9b8418ff6d",
      "blockNumber": "0xe9256eb",
      "gasUsed": "0x6d0e",
      "effectiveGasPrice": "0x1315410",
      "from": "0x6789e51196ea26a159c992b70cc80453ca6e381a",
      "to": "0x000000000022d473030f116ddee9f6b43ac78ba3",
      "contractAddress": null,
      "gasUsedForL1": "0x0",
      "l1BlockNumber": "0x9d57f3",
      "timeboosted": false
    },
    {
      "status": "0x1",
      "cumulativeGasUsed": "0x6d0e",
      "logs": [
        {
          "address": "0x000000000022d473030f116ddee9f6b43ac78ba3",
          "topics": [
            "0xda9fa7c1b00402c17d0161b249b1ab8bbec047c5a52207b9c112deffd817036b",
            "0x0000000000000000000000006789e51196ea26a159c992b70cc80453ca6e381a",
            "0x000000000000000000000000b893e3334d4bd6c5ba8277fd559e99ed683a9fc7",
            "0x000000000000000000000000ac631556d3d4019c95769033b5e719dd77124bac"
          ],
          "data": "0x000000000000000000000000ffffffffffffffffffffffffffffffffffffffff0000000000000000000000000000000000000000000000000000ffffffffffff",
          "blockHash": "0x43d4194fdcefdd1ec26fde1c0cf88fab1d88ea4608bd5d7ce5c33a502b19ef74",
          "blockNumber": "0xe9256f2",
          "blockTimestamp": "0x699aa441",
          "transactionHash": "0xa2d5acd8ad0491834cad681c5c87768607fa8e680d68d0976046536054cf5760",
          "transactionIndex": "0x1",
          "logIndex": "0x0",
          "removed": false
        }
      ],
      "logsBloom": "0x00010000000000000000000000000000000000000000000040000200000000000000000000000000100000000000000000000000000000000000000000080000000000000020000000000000000000000040000000000000000000000000000000000000000000000000000000000000040000000000000000000000000000000020000000000000000000000000000000000000000000000000000000000000000000000000000000000000000000000000000000000000000000080000000000000000000000000000010000000000000000000000000040000000000000000000000000000000000000000000000000000000004000200000000000000400",
      "type": "0x2",
      "transactionHash": "0xa2d5acd8ad0491834cad681c5c87768607fa8e680d68d0976046536054cf5760",
      "transactionIndex": "0x1",
      "blockHash": "0x43d4194fdcefdd1ec26fde1c0cf88fab1d88ea4608bd5d7ce5c33a502b19ef74",
      "blockNumber": "0xe9256f2",
      "gasUsed": "0x6d0e",
      "effectiveGasPrice": "0x1313ca0",
      "from": "0x6789e51196ea26a159c992b70cc80453ca6e381a",
      "to": "0x000000000022d473030f116ddee9f6b43ac78ba3",
      "contractAddress": null,
      "gasUsedForL1": "0x0",
      "l1BlockNumber": "0x9d57f3",
      "timeboosted": false
    },
    {
      "status": "0x1",
      "cumulativeGasUsed": "0x42774",
      "logs": [
        {
          "address": "0xac631556d3d4019c95769033b5e719dd77124bac",
          "topics": [
            "0xddf252ad1be2c89b69c2b068fc378daa952ba7f163c4a11628f55a4df523b3ef",
            "0x0000000000000000000000000000000000000000000000000000000000000000",
            "0x0000000000000000000000006789e51196ea26a159c992b70cc80453ca6e381a",
            "0x00000000000000000000000000000000000000000000000000000000000000ea"
          ],
          "data": "0x",
          "blockHash": "0x5a207ce316ac8447e3a4426b8a2e18f2d7118040303f3dbd104f1e463896c80b",
          "blockNumber": "0xe9256f5",
          "blockTimestamp": "0x699aa444",
          "transactionHash": "0x7401ee2206fc09d72d1747cd67487f87f14e6d448e5c43be4442d35a8292ca87",
          "transactionIndex": "0x1",
          "logIndex": "0x0",
          "removed": false
        },
        {
          "address": "0xfb3e0c6f74eb1a21cc1da29aec80d2dfe6c9a317",
          "topics": [
            "0xf208f4912782fd25c7f114ca3723a2d5dd6f3bcc3ac8db5af63baa85f711d5ec",
            "0x08f0aa16861abbc231031678ba2326eaf4c0b74b8f1fced53940c99dcb5a1ba2",
            "0x000000000000000000000000ac631556d3d4019c95769033b5e719dd77124bac"
          ],
          "data": "0xfffffffffffffffffffffffffffffffffffffffffffffffffffffffffffcee24fffffffffffffffffffffffffffffffffffffffffffffffffffffffffffd0918000000000000000000000000000000000000000000000000000002ba7def300000000000000000000000000000000000000000000000000000000000000000ea",
          "blockHash": "0x5a207ce316ac8447e3a4426b8a2e18f2d7118040303f3dbd104f1e463896c80b",
          "blockNumber": "0xe9256f5",
          "blockTimestamp": "0x699aa444",
          "transactionHash": "0x7401ee2206fc09d72d1747cd67487f87f14e6d448e5c43be4442d35a8292ca87",
          "transactionIndex": "0x1",
          "logIndex": "0x1",
          "removed": false
        },
        {
          "address": "0x980b62da83eff3d4576c647993b0c1d7faf17c73",
          "topics": [
            "0xddf252ad1be2c89b69c2b068fc378daa952ba7f163c4a11628f55a4df523b3ef",
            "0x0000000000000000000000006789e51196ea26a159c992b70cc80453ca6e381a",
            "0x000000000000000000000000fb3e0c6f74eb1a21cc1da29aec80d2dfe6c9a317"
          ],
          "data": "0x000000000000000000000000000000000000000000000000001effcf4b5b92a6",
          "blockHash": "0x5a207ce316ac8447e3a4426b8a2e18f2d7118040303f3dbd104f1e463896c80b",
          "blockNumber": "0xe9256f5",
          "blockTimestamp": "0x699aa444",
          "transactionHash": "0x7401ee2206fc09d72d1747cd67487f87f14e6d448e5c43be4442d35a8292ca87",
          "transactionIndex": "0x1",
          "logIndex": "0x2",
          "removed": false
        },
        {
          "address": "0x980b62da83eff3d4576c647993b0c1d7faf17c73",
          "topics": [
            "0x8c5be1e5ebec7d5bd14f71427d1e84f3dd0314c0f7b2291e5b200ac8c7c3b925",
            "0x0000000000000000000000006789e51196ea26a159c992b70cc80453ca6e381a",
            "0x000000000000000000000000000000000022d473030f116ddee9f6b43ac78ba3"
          ],
          "data": "0xffffffffffffffffffffffffffffffffffffffffffffffffffe10030b4a46d59",
          "blockHash": "0x5a207ce316ac8447e3a4426b8a2e18f2d7118040303f3dbd104f1e463896c80b",
          "blockNumber": "0xe9256f5",
          "blockTimestamp": "0x699aa444",
          "transactionHash": "0x7401ee2206fc09d72d1747cd67487f87f14e6d448e5c43be4442d35a8292ca87",
          "transactionIndex": "0x1",
          "logIndex": "0x3",
          "removed": false
        },
        {
          "address": "0xb893e3334d4bd6c5ba8277fd559e99ed683a9fc7",
          "topics": [
            "0xddf252ad1be2c89b69c2b068fc378daa952ba7f163c4a11628f55a4df523b3ef",
            "0x0000000000000000000000006789e51196ea26a159c992b70cc80453ca6e381a",
            "0x000000000000000000000000fb3e0c6f74eb1a21cc1da29aec80d2dfe6c9a317"
          ],
          "data": "0x0000000000000000000000000000000000000000000000000000000001899b5b",
          "blockHash": "0x5a207ce316ac8447e3a4426b8a2e18f2d7118040303f3dbd104f1e463896c80b",
          "blockNumber": "0xe9256f5",
          "blockTimestamp": "0x699aa444",
          "transactionHash": "0x7401ee2206fc09d72d1747cd67487f87f14e6d448e5c43be4442d35a8292ca87",
          "transactionIndex": "0x1",
          "logIndex": "0x4",
          "removed": false
        },
        {
          "address": "0xb893e3334d4bd6c5ba8277fd559e99ed683a9fc7",
          "topics": [
            "0x8c5be1e5ebec7d5bd14f71427d1e84f3dd0314c0f7b2291e5b200ac8c7c3b925",
            "0x0000000000000000000000006789e51196ea26a159c992b70cc80453ca6e381a",
            "0x000000000000000000000000000000000022d473030f116ddee9f6b43ac78ba3"
          ],
          "data": "0xfffffffffffffffffffffffffffffffffffffffffffffffffffffffffe7664a4",
          "blockHash": "0x5a207ce316ac8447e3a4426b8a2e18f2d7118040303f3dbd104f1e463896c80b",
          "blockNumber": "0xe9256f5",
          "blockTimestamp": "0x699aa444",
          "transactionHash": "0x7401ee2206fc09d72d1747cd67487f87f14e6d448e5c43be4442d35a8292ca87",
          "transactionIndex": "0x1",
          "logIndex": "0x5",
          "removed": false
        }
      ],
      "logsBloom": "0x000000400000000000000000000000080000000000a0100040000a00000000000000000000000000100000000000000000000000800000000000000000200040000000000020000000004008100000000040000000000800000000000000000000000000020400000000000000080800000002000000000000000010000000000000000001000000000080000000000000000000000000000000010000000000020004200000000000000000000000000800000000000000000000000000000000000002000001004000010000000000000000000000000000000000000020000010000400000000400000000000000004000000000000000000000000000004",
      "type": "0x2",
      "transactionHash": "0x7401ee2206fc09d72d1747cd67487f87f14e6d448e5c43be4442d35a8292ca87",
      "transactionIndex": "0x1",
      "blockHash": "0x5a207ce316ac8447e3a4426b8a2e18f2d7118040303f3dbd104f1e463896c80b",
      "blockNumber": "0xe9256f5",
      "gasUsed": "0x42774",
      "effectiveGasPrice": "0x1312d00",
      "from": "0x6789e51196ea26a159c992b70cc80453ca6e381a",
      "to": "0xac631556d3d4019c95769033b5e719dd77124bac",
      "contractAddress": null,
      "gasUsedForL1": "0x0",
      "l1BlockNumber": "0x9d57f4",
      "timeboosted": false
    }
  ],
  "libraries": [],
  "pending": [],
  "returns": {},
  "timestamp": 1771742277,
  "chain": 421614,
  "commit": "5b7f00d"
}