{
  "transactions": [
    {
      "hash": null,
      "transactionType": "CALL",
      "contractName": null,
      "contractAddress": "0x980b62da83eff3d4576c647993b0c1d7faf17c73",
      "function": "approve(address,uint256)",
      "arguments": [
        "0x000000000022D473030F116dDEE9F6B43aC78BA3",
        "115792089237316195423570985008687907853269984665640564039457584007913129639935"
      ],
      "transaction": {
        "from": "0x564323ae0d8473103f3763814c5121ca9e48004b",
        "to": "0x980b62da83eff3d4576c647993b0c1d7faf17c73",
        "gas": "0xbc0c",
        "value": "0x0",
        "input": "0x095ea7b3000000000000000000000000000000000022d473030f116ddee9f6b43ac78ba3ffffffffffffffffffffffffffffffffffffffffffffffffffffffffffffffff",
        "nonce": "0x68",
        "chainId": "0x66eee"
      },
      "additionalContracts": [],
      "isFixedGasLimit": false
    },
    {
      "hash": null,
      "transactionType": "CALL",
      "contractName": null,
      "contractAddress": "0xb893e3334d4bd6c5ba8277fd559e99ed683a9fc7",
      "function": "approve(address,uint256)",
      "arguments": [
        "0x000000000022D473030F116dDEE9F6B43aC78BA3",
        "115792089237316195423570985008687907853269984665640564039457584007913129639935"
      ],
      "transaction": {
        "from": "0x564323ae0d8473103f3763814c5121ca9e48004b",
        "to": "0xb893e3334d4bd6c5ba8277fd559e99ed683a9fc7",
        "gas": "0x968d",
        "value": "0x0",
        "input": "0x095ea7b3000000000000000000000000000000000022d473030f116ddee9f6b43ac78ba3ffffffffffffffffffffffffffffffffffffffffffffffffffffffffffffffff",
        "nonce": "0x69",
        "chainId": "0x66eee"
      },
      "additionalContracts": [],
      "isFixedGasLimit": false
    },
    {
      "hash": null,
      "transactionType": "CALL",
      "contractName": null,
      "contractAddress": "0x000000000022d473030f116ddee9f6b43ac78ba3",
      "function": "approve(address,address,uint160,uint48)",
      "arguments": [
        "0x980B62Da83eFf3D4576C647993b0c1D7faf17c73",
        "0xAc631556d3d4019C95769033B5E719dD77124BAc",
        "1461501637330902918203684832716283019655932542975",
        "281474976710655"
      ],
      "transaction": {
        "from": "0x564323ae0d8473103f3763814c5121ca9e48004b",
        "to": "0x000000000022d473030f116ddee9f6b43ac78ba3",
        "gas": "0x8f87",
        "value": "0x0",
        "input": "0x87517c45000000000000000000000000980b62da83eff3d4576c647993b0c1d7faf17c73000000000000000000000000ac631556d3d4019c95769033b5e719dd77124bac000000000000000000000000ffffffffffffffffffffffffffffffffffffffff0000000000000000000000000000000000000000000000000000ffffffffffff",
        "nonce": "0x6a",
        "chainId": "0x66eee"
      },
      "additionalContracts": [],
      "isFixedGasLimit": false
    },
    {
      "hash": null,
      "transactionType": "CALL",
      "contractName": null,
      "contractAddress": "0x000000000022d473030f116ddee9f6b43ac78ba3",
      "function": "approve(address,address,uint160,uint48)",
      "arguments": [
        "0xb893E3334D4Bd6C5ba8277Fd559e99Ed683A9FC7",
        "0xAc631556d3d4019C95769033B5E719dD77124BAc",
        "1461501637330902918203684832716283019655932542975",
        "281474976710655"
      ],
      "transaction": {
        "from": "0x564323ae0d8473103f3763814c5121ca9e48004b",
        "to": "0x000000000022d473030f116ddee9f6b43ac78ba3",
        "gas": "0x8f87",
        "value": "0x0",
        "input": "0x87517c45000000000000000000000000b893e3334d4bd6c5ba8277fd559e99ed683a9fc7000000000000000000000000ac631556d3d4019c95769033b5e719dd77124bac000000000000000000000000ffffffffffffffffffffffffffffffffffffffff0000000000000000000000000000000000000000000000000000ffffffffffff",
        "nonce": "0x6b",
        "chainId": "0x66eee"
      },
      "additionalContracts": [],
      "isFixedGasLimit": false
    },
    {
      "hash": null,
      "transactionType": "CALL",
      "contractName": null,
      "contractAddress": "0xac631556d3d4019c95769033b5e719dd77124bac",
      "function": "modifyLiquidities(bytes,uint256)",
      "arguments": [
        "0x0000000000000000000000000000000000000000000000000000000000000040000000000000000000000000000000000000000000000000000000000000008000000000000000000000000000000000000000000000000000000000000000030212120000000000000000000000000000000000000000000000000000000000000000000000000000000000000000000000000000000000000000000000000300000000000000000000000000000000000000000000000000000000000000600000000000000000000000000000000000000000000000000000000000000220000000000000000000000000000000000000000000000000000000000000026000000000000000000000000000000000000000000000000000000000000001a0000000000000000000000000980b62da83eff3d4576c647993b0c1d7faf17c73000000000000000000000000b893e3334d4bd6c5ba8277fd559e99ed683a9fc70000000000000000000000000000000000000000000000000000000000000bb8000000000000000000000000000000000000000000000000000000000000003c00000000000000000000000051ed077265dc54b2afdbf26181b48f7314b44a40fffffffffffffffffffffffffffffffffffffffffffffffffffffffffffcee24fffffffffffffffffffffffffffffffffffffffffffffffffffffffffffd0918000000000000000000000000000000000000000000000000000002ba7def3000000000000000000000000000000000000000000000000000002386f26fc100000000000000000000000000000000000000000000000000000000000001c9c380000000000000000000000000564323ae0d8473103f3763814c5121ca9e48004b000000000000000000000000000000000000000000000000000000000000018000000000000000000000000000000000000000000000000000000000000000000000000000000000000000000000000000000000000000000000000000000020000000000000000000000000980b62da83eff3d4576c647993b0c1d7faf17c730000000000000000000000000000000000000000000000000000000000000020000000000000000000000000b893e3334d4bd6c5ba8277fd559e99ed683a9fc7",
        "1771742354"
      ],
      "transaction": {
        "from": "0x564323ae0d8473103f3763814c5121ca9e48004b",
        "to": "0xac631556d3d4019c95769033b5e719dd77124bac",
        "gas": "0x5883b",
        "value": "0x0",
        "input": "0xdd46508f000000000000000000000000000000000000000000000000000000000000004000000000000000000000000000000000000000000000000000000000699aa49200000000000000000000000000000000000000000000000000000000000003400000000000000000000000000000000000000000000000000000000000000040000000000000000000000000000000000000000000000000000000000000008000000000000000000000000000000000000000000000000000000000000000030212120000000000000000000000000000000000000000000000000000000000000000000000000000000000000000000000000000000000000000000000000300000000000000000000000000000000000000000000000000000000000000600000000000000000000000000000000000000000000000000000000000000220000000000000000000000000000000000000000000000000000000000000026000000000000000000000000000000000000000000000000000000000000001a0000000000000000000000000980b62da83eff3d4576c647993b0c1d7faf17c73000000000000000000000000b893e3334d4bd6c5ba8277fd559e99ed683a9fc70000000000000000000000000000000000000000000000000000000000000bb8000000000000000000000000000000000000000000000000000000000000003c00000000000000000000000051ed077265dc54b2afdbf26181b48f7314b44a40fffffffffffffffffffffffffffffffffffffffffffffffffffffffffffcee24fffffffffffffffffffffffffffffffffffffffffffffffffffffffffffd0918000000000000000000000000000000000000000000000000000002ba7def3000000000000000000000000000000000000000000000000000002386f26fc100000000000000000000000000000000000000000000000000000000000001c9c380000000000000000000000000564323ae0d8473103f3763814c5121ca9e48004b000000000000000000000000000000000000000000000000000000000000018000000000000000000000000000000000000000000000000000000000000000000000000000000000000000000000000000000000000000000000000000000020000000000000000000000000980b62da83eff3d4576c647993b0c1d7faf17c730000000000000000000000000000000000000000000000000000000000000020000000000000000000000000b893e3334d4bd6c5ba8277fd559e99ed683a9fc7",
        "nonce": "0x6c",
        "chainId": "0x66eee"
      },
      "additionalContracts": [],
      "isFixedGasLimit": false
    }
  ],
  "receipts": [],
  "libraries": [],
  "pending": [],
  "returns": {},
  "timestamp": 1771742076,
  "chain": 421614,
  "commit": "5b7f00d"
}